:020000040800F2
:10000000481F0020C51D00086501000867010008A1
:100010006B0100086F010008730100080000000078
:100020000000000000000000000000007701000850
:1000300079010008000000007B0100087D01000834
:10004000DF1D0008DF1D0008DF1D0008DF1D0008A0
:10005000DF1D0008DF1D0008DF1D0008DF1D000890
:10006000DF1D0008DF1D0008DF1D0008DF1D000880
:10007000DF1D0008DF1D0008DF1D0008DF1D000870
:10008000DF1D0008DF1D0008A7010008DF1D0008B4
:10009000DF1D0008DF1D0008DF1D0008DF1D000850
:1000A000DF1D0008DF1D0008DF1D0008DF1D000840
:1000B000DF1D0008DF1D0008DF1D0008DF1D000830
:1000C000DF1D0008DF1D0008DF1D0008DF1D000820
:1000D000DF1D0008ED290008DF1D0008DF1D0008F6
:1000E000DF1D0008DF1D0008DF1D00080000000004
:1000F0000000000000000000000000000000000000
:100100000000000000000000DF1D0008DF1D0008E7
:10011000DF1D0008F92A0008DF1D0008DF1D0008A8
:10012000DF1D0008DF1D0008DF1D0008DF1D0008BF
:10013000DF1D0008DF1D0008DF1D0008DF1D0008AF
:10014000DF1D0008DF1D0008DF1D0008DF1D00089F
:10015000DFF80CD003F034FA00480047DB02000857
:10016000481F0020704700BFFEE700BFFEE700BF4A
:10017000FEE700BFFEE770477047704710B500F01C
:10018000ECF80C480068401C0A4908600846006802
:1001900000F0010018B101200749087002E00020BA
:1001A0000549087010BD10B5044800F0DFFE044991
:1001B000088010BD04000020080000200028014035
:1001C0000000002001B569490098086000BF674839
:1001D00000680028FBD108BD10B50446082C4CD29D
:1001E000DFE804F04B0416283A29170500BF042164
:1001F0005F4800F0F4FC08215D4800F0F2FC10219B
:100200005B4800F0EEFC8021594800F0EAFC34E045
:1002100000BF0421564800F0E4FC0821544800F0D7
:10022000DEFC1021524800F0DCFC8021504800F038
:10023000D8FC22E000BF04214D4800F0D2FC082188
:100240004B4800F0CEFC1021494800F0C8FC80214A
:10025000474800F0C6FC10E00421454800F0C1FC0E
:100260000821434800F0BDFC1021414800F0B9FCD2
:1002700080213F4800F0B3FC00BF00BF10BD30B587
:100280003C4800684FF47A72B0FBF2F1B1F1807F24
:1002900001D301201DE021F07F40401E4FF0E022FD
:1002A000506150170F22002807DA13071D0E324B3A
:1002B00000F00F04241F1D5503E013071C0E2F4BE5
:1002C0001C5400BF00204FF0E02290610720106115
:1002D000002008B100BFFEE730BD02F059FC4FF42A
:1002E000965002F0C4FB01F096FDFFF7C8FF24A072
:1002F00002F019FC27A002F016FCC82002F085FCD1
:1003000002F0C0F802F0A5F9C82002F07EFC28A097
:1003100002F009FC2DA002F006FC02F0C5F91BE07A
:100320000120FFF759FF4FF47A70FFF74BFF0220CF
:10033000FFF752FF4FF47A70FFF744FF0320FFF7F7
:100340004BFF4FF47A70FFF73DFF0420FFF744FFA7
:100350004FF47A70FFF736FFE2E70448006820B1F7
:1003600002480068401E0149086070470C000020E8
:10037000001401402400002018ED00E000E400E03B
:1003800053797374656D20537461727465642E2E95
:100390002E0D0A005072657061726520646174618F
:1003A00020666F72204646542061736D2E0D0A0040
:1003B00050726570617265206461746120666F724D
:1003C000204646542067322E0D0A0000676F2074C5
:1003D0006F207768696C65206C6F6F702E200D0A36
:1003E00000000000FB48006840F00100F949086087
:1003F00008464068F8490840F649486008460068E1
:10040000F6490840F34908600846006820F4802057
:1004100008600846406820F4FE004860084600680E
:1004200020F0A05008604FF47F0088600020C86270
:100430007047E849096821F48031E64A11601146A5
:10044000096821F480211160B0F5803F03D0B0F538
:10045000802F0ED106E0DF49096841F48031DD4A82
:10046000116007E0DB49096841F4A021D94A116015
:1004700000E000BF00BF704710B501460022002316
:1004800000204A11012A02D1D24C236806E0022A38
:1004900002D1D04C236A01E0CE4C636A01F01F0206
:1004A000012494401C400CB1012000E0002010BD4C
:1004B00038B5002000900024002500BF3120FFF750
:1004C000DBFF05460098401C00900098B0F5A06F37
:1004D00001D0002DF2D03120FFF7CEFF08B101246A
:1004E00000E00024204638BD01460020B94A1068CB
:1004F00020F0F80040EAC10010607047B849086079
:10050000704702460020B34B586820F4741042EA4A
:1005100001031843AF4B58607047B14908667047F4
:1005200002460020AB4BD86AAE4B184042EA0103AA
:100530001843A84BD862704701460020A54AD06AEC
:1005400020F0F0000843D062704701460020A14A25
:10055000D06A20F470600843D0627047A049886672
:100560007047014600209B4AD06A20F4704008433F
:10057000D06270479A490867704701460020954A43
:10058000506820F00300084350607047914840686D
:1005900000F00C007047014600208E4A506820F0A1
:1005A000F00008435060704701460020894A5068B7
:1005B00020F4E06008435060704701460020854AFF
:1005C000506820F4605040EAC1005060704729B183
:1005D000804A527A02437F4B5A7204E07D4A527A33
:1005E00082437C4B5A7270477D49D831086070470E
:1005F00001460020774A506820F44040084350608C
:1006000070477949086070477749091D086070474D
:100610000021704A203211706E4A82F820100128A1
:1006200002D004280AD104E001216A4A2032117064
:1006300005E00521674A2032117000E000BF00BFCD
:1006400070476A49086070476249096A0143614A14
:100650001162704765494439086070472DE9F041DF
:1006600000210022002500230026002400278C46BC
:10067000DFF86081D8F8048008F00C0121B104296A
:1006800007D0082959D109E0DFF86481C0F800805B
:1006900058E0DFF86081C0F8008053E0DFF8348173
:1006A000D8F8048008F47012DFF82881D8F80480A4
:1006B00008F48035920C0D2A01D0921C00E006222D
:1006C00035B9DFF8348102FB08F8C0F8008033E068
:1006D000DFF80081D8F82C8008F48036DFF8F48049
:1006E000D8F82C8008F00F0808F1010446B9DFF8AB
:1006F0000481B8FBF4F808FB02F8C0F800801BE0A6
:10070000DFF8D080D8F82C80C8F3031808F101076F
:10071000DFF8C080D8F82C80C8F3032808F1020C59
:10072000DFF8D080B8FBF7F808FB0CF8B8FBF4F85A
:1007300008FB02F8C0F8008004E0DFF8B480C0F8DD
:10074000008000BF00BFDFF88C80D8F8048008F07C
:10075000F0010909DFF8A48018F80130D0F8008012
:1007600028FA03F8C0F80480DFF86880D8F804801D
:1007700008F4E061090ADFF8848018F80130D0F845
:10078000048028FA03F8C0F80880DFF84880D8F819
:10079000048008F46051C90ADFF8608018F801305D
:1007A000D0F8048028FA03F8C0F80C80DFF8248021
:1007B000D8F8048008F44041890BDFF8448018F829
:1007C0000130D0F80C80B8FBF3F8C0F81080BDE819
:1007D000F0810000001002400000FFF0FFFFF6FE75
:1007E00000004242F0FFFEFFC40542428004424244
:1007F00000127A0040787D0100093D0010000020C1
:100800002000002029B1354A52690243334B5A6116
:1008100004E0324A52698243304B5A61704729B131
:100820002E4A926902432D4B9A6104E02B4A926949
:1008300082432A4B9A61704729B1284AD269024300
:10084000264BDA6104E0254AD2698243234BDA6100
:10085000704729B1214A926A0243204B9A6204E010
:100860001E4A926A82431D4B9A62704729B11B4A05
:10087000D2680243194BDA6004E0184AD268824316
:10088000164BDA60704729B1144A12690243134BC0
:100890001A6104E0114A12698243104B1A617047D1
:1008A0000F49086070470F49C86470470B49C87109
:1008B00070470A48406A40F08070084948627047B3
:1008C00001460020054A92680A400AB1012000E072
:1008D00000207047014988727047000000100240F4
:1008E000400442420000424231490143314A116012
:1008F000704770B5002100230F22C47804B32D4C3B
:10090000246804F4E064C4F5E064210AC1F104033E
:10091000CA40447804FA03F1847814402143090161
:10092000254C0678A155047804F01F050124AC403D
:1009300005786D11AD0005F1E025C5F8004109E02D
:10094000047804F01F050124AC401C4D0678761194
:1009500045F8264070BD1A4A0A400243154B1B1F3A
:100960001A60704739B1134A121D12680243114BC5
:100970001B1D1A6006E00F4A121D126882430D4BC0
:100980001B1D1A607047042808D14FF0E021096947
:1009900041F004014FF0E022116107E04FF0E02147
:1009A000096921F004014FF0E02211617047000055
:1009B0000000FA050CED00E000E400E080E100E05A
:1009C00080FFFF1F10B50446CC48844208D10121A6
:1009D0000420FFF74BFF00210420FFF747FF46E00C
:1009E000C748844208D101210820FFF73FFF0021BA
:1009F0000820FFF73BFF3AE0C248844208D10121BA
:100A00001020FFF733FF00211020FFF72FFF2EE00B
:100A1000BD48844208D101212020FFF727FF002193
:100A20002020FFF723FF22E0B848844208D10121AB
:100A30004020FFF71BFF00214020FFF717FF16E0C3
:100A4000B348844208D101218020FFF70FFF002125
:100A50008020FFF70BFF0AE0AE48844207D1012156
:100A60008015FFF703FF0021A015FFF7FFFE10BD63
:100A700010B501210846FFF7F9FE00210120FFF71C
:100A8000F5FE10BD2DE9F0410246002500260020AC
:100A900000230024002791F803C00CF00F0591F803
:100AA00003C00CF0100CBCF1000F03D091F802C091
:100AB0004CEA050591F800C0BCF1000F31D0146874
:100AC00000202BE04FF0010C0CFA00F3B1F800C04D
:100AD0000CEA03069E4220D183004FF00F0C0CFA63
:100AE00003F7BC4305FA03FC4CEA040491F803C085
:100AF000BCF1280F06D14FF0010C0CFA00FCC2F833
:100B000014C00AE091F803C0BCF1480F05D14FF0C2
:100B1000010C0CFA00FCC2F810C0401C0828D1D30C
:100B20001460B1F800C0BCF1FF0F34DD5468002040
:100B30002EE000F1080C4FF0010808FA0CF3B1F8B0
:100B400000C00CEA03069E4221D183004FF00F0C37
:100B50000CFA03F7BC4305FA03FC4CEA040491F8D1
:100B600003C0BCF1280F05D100F1080C08FA0CF8FD
:100B7000C2F8148091F803C0BCF1480F07D100F10E
:100B8000080C4FF0010808FA0CF8C2F81080401C5D
:100B90000828CED35460BDE8F0814FF6FF71018084
:100BA000022181700421C1707047024600209368C1
:100BB0000B400BB1012000E000207047014688681F
:100BC00080B2704702460020D3680B400BB1012071
:100BD00000E0002070470146C86880B2704701619C
:100BE0007047416170470AB1016100E0416170479F
:100BF000C16070474FF480320A4382618161826133
:100C000082698269704702460020434B18684FF69C
:100C10008073184040EA021008433F4B1860704749
:100C20003E49C8617047F0B50A4600230024002100
:100C3000002500F00046B6F1004F02D1364EF169B2
:100C400001E0354E7168C0F3034583B200F44016ED
:100C5000B6F5401F08D121F070612F4E766826F05E
:100C600070662D4F7E6012E000F48016B6F5801F8E
:100C700006D1032606FA05F4A14341F0706106E0AF
:100C8000460D360103FA06F6B14341F0706122B118
:100C9000460D360103FA06F6314300F00046B6F180
:100CA000004F02D11C4EF16101E01B4E7160F0BD9E
:100CB00030B500228B071C0F0F2303FA04F2164BEA
:100CC00008338C1053F824309343134C08348D10A0
:100CD00044F8253023468C1053F824308C07240F19
:100CE00000FA04F423430C4C08348D1044F82530EA
:100CF00030BD0A49DC31086070470000000801403F
:100D0000000C014000100140001401400018014097
:100D1000001C014000200140000001400000204272
:100D200010B50446FA48844208D101214015FFF766
:100D30009DFD00216015FFF799FD17E0F5488442FD
:100D400008D101210015FFF791FD00212015FFF7C3
:100D50008DFD0BE0F048844208D10121C803FFF764
:100D600085FD00214FF40040FFF780FD10BD30B538
:100D70000246002000235068E84C20400D790C68A2
:100D800044EA0524204350609068E54C2040D1E9B6
:100D900002542C434D7944EA450420439060D06AC4
:100DA00020F470000C7C641EE4B2234340EA03503C
:100DB000D06230BD00210160017141718160C1606C
:100DC00001210174704721B1826842F00102826002
:100DD00003E0826822F001028260704721B18268DC
:100DE00042F48072826003E0826822F48072826042
:100DF000704710B50023CBB21AB144681C4344605D
:100E000002E044689C43446010BD816841F00801E1
:100E100081607047014600208A6802F008020AB12A
:100E2000012000E000207047816841F004018160EA
:100E30007047014600208A6802F004020AB10120CE
:100E400000E00020704721B1826842F4A002826075
:100E500003E0826822F4A00282607047014600200D
:100E60008A6802F480020AB1012000E00020704785
:100E700010B50A4600210023416821F46041531E49
:100E800041EA4331416010BD21B1426842F4006241
:100E9000426003E0426822F4006242607047F0B5AD
:100EA00004460D4600200021092D11DDE068A5F162
:100EB0000A0606EB4607072606FA07F18843A5F15E
:100EC0000A0606EB460603FA06F10843E0600CE06A
:100ED000206905EB4507072606FA07F1884305EB6D
:100EE000450603FA06F108432061072A0FDA606B12
:100EF000561E06EB86071F2606FA07F18843561E84
:100F000006EB860605FA06F10843606322E00D2A27
:100F10000FDA206BD61F06EB86071F2606FA07F1AD
:100F20008843D61F06EB860605FA06F108432063C0
:100F300010E0E06AA2F10D0606EB86071F2606FA0E
:100F400007F18843A2F10D0606EB860605FA06F1C5
:100F50000843E062F0BD21B1826842F480128260F1
:100F600003E0826822F48012826070470146C86CF8
:100F700080B2704766484C300068704721B14268C3
:100F800042F48062426003E0426822F48062426080
:100F9000704721B1426842F48052426003E04268E7
:100FA00022F48052426070470A460021816821F491
:100FB000E04111438160704721B1826842F40042F0
:100FC000826003E0826822F400428260704721B1AF
:100FD000826842F40212826003E0826822F4021204
:100FE00082607047014600208A6802F400120AB14C
:100FF000012000E000207047F0B5044615460020AF
:1010000000220026092911DDE068A1F10A0707EB9B
:10101000470C072707FA0CF29043A1F10A0707EBE8
:10102000470703FA07F21043E0600CE0206901EB88
:10103000410C072707FA0CF2904301EB410703FA32
:1010400007F210432061A06BC0F30156EF1C06F1BC
:10105000010CA7EB0C0707EB870C1F2707FA0CF214
:101060009043EF1C06F1010CA7EB0C0707EB870779
:1010700001FA07F21043A063F0BD10B50A46002143
:101080000023816B21F44011531E41EA0351816317
:1010900010BD08B5002300930090009B0B44009303
:1010A000009B1A6008BD08B502460020009000921F
:1010B00001F12800009B184400900098006880B25D
:1010C00008BD0A4600214168164B19401143416092
:1010D00070474162826270470A460021416821F0F0
:1010E0001F0111434160704740B109490831096847
:1010F00041F40001064A0832116007E00449083152
:10110000096821F40001024A0832116070470000AA
:101110000024014000280140003C0140FFFEF0FF98
:10112000FDF7F1FFFFFD3FFF0246002013680B4073
:101130000BB1012000E000207047CA4302607047F5
:1011400070B502460020002300240B125568CEB271
:1011500005EA060415681D4015B10CB1012000E038
:10116000002070BD00220A12D343036070470000C4
:1011700001460020FE4A106800F038000843106065
:101180007047FB49096821F00801F94A11601146CE
:101190000968014311607047F549096821F01001A1
:1011A000F34A116011460968014311607047F14824
:1011B000EF494860F04848607047EE48EC494860A5
:1011C000ED4848607047EA48006940F08000E8490F
:1011D00008617047E648006940F08000E449086112
:1011E00070470420E249C96801F0010109B10120FA
:1011F0000EE0DF49C96801F0040109B1022007E0EF
:10120000DB49C96801F0100109B1032000E00420A6
:10121000704700B502460423FFF7E3FF034603E0EF
:10122000FFF7DFFF0346521E012B01D1002AF7D141
:1012300002B90523184600BD30B5054604244FF415
:101240003020FFF7E6FF0446042C19D1C848006996
:1012500040F00200C649086108464561006940F057
:10126000400008614FF43020FFF7D3FF0446052CFF
:1012700006D0BF48006941F6FD710840BC490861CD
:10128000204630BD10B504244FF43020FFF7C1FFD5
:101290000446042C18D1B648006940F00400B44953
:1012A00008610846006940F0400008614FF43020B2
:1012B000FFF7AFFF0446052C06D0AD48006941F6A4
:1012C000FB710840AA490861204610BD00B50246DE
:1012D0000423FFF786FF034603E0FFF782FF034680
:1012E000521E012B01D1002AF7D102B9052318465D
:1012F00000BD10B504244FF43020FFF7E7FF04468B
:10130000042C18D19A48006940F0040098490861FB
:101310000846006940F0400008614FF43020FFF7B4
:10132000D5FF0446052C06D09148006941F6FB71B3
:1013300008408F490861204610BD00208C49C969CA
:1013400001F0020109B1012000E00020704730B532
:10135000A5250424FFF7F1FF00B100254FF430204C
:10136000FFF757FF0446042C3AD182488049886031
:10137000814888600846006940F0200008610846FE
:10138000006940F0400008614FF43020FFF741FF52
:101390000446042C1BD17648006941F6DF710840F1
:1013A000734908610846006940F0100008617348FD
:1013B0000580E002FFF72DFF0446052C10D06C4895
:1013C000006941F6EF7108406949086108E0052CA1
:1013D00006D06748006941F6EF710840644908612A
:1013E000204630BD78B506460D4604240020009006
:1013F000E002FFF70EFF0446042C28D15C48006988
:1014000040F001005A4908613580E002FFF701FF12
:101410000446042C12D1B01C0090280C00990880BE
:10142000E002FFF7F6FE0446052C10D05048006994
:1014300041F6FE7108404E49086108E0052C06D0CF
:101440004B48006941F6FE71084049490861204651
:1014500078BD70B505460E460424E002FFF7D9FEBC
:101460000446042C13D14248006940F00100404971
:1014700008612E80E002FFF7CCFE0446052C06D062
:101480003B48006941F6FE71084039490861204631
:1014900070BD70B505460E460424E002FFF7B9FEA4
:1014A0000446042C17D1334831498860324888609B
:1014B0000846006940F0100008612E80E002FFF746
:1014C000A8FE0446052C06D02948006941F6EF71B4
:1014D000084027490861204670BD2DE9F0430446C5
:1014E0004FF6FF763746B046B1460425E443E6B2F0
:1014F000C4F30727C4F307484FEA1469E802FFF76B
:1015000088FE0546042D4AD11A48194988601A48B0
:1015100088600846006940F010000861FF2E06D080
:10152000164808300680E802FFF773FE0546042DD2
:1015300008D1FF2F06D011480A300780E802FFF7D4
:1015400068FE0546042D0AD1B8F1FF0F07D00B48FD
:101550000C30A0F80080E802FFF75BFE0546042D82
:1015600014D1B9F1FF0F11D004480E3008E000008B
:101570000020024023016745AB89EFCD00F8FF1F33
:10158000A0F80090E802FFF744FE0546052D06D0BE
:101590006848006941F6EF710840664908612846CD
:1015A000BDE8F08330B5054604244FF43020FFF742
:1015B00030FE0446042C41D15F485E4988605F4894
:1015C00088600846006940F020000861084600690C
:1015D00040F0400008614FF43020FFF71AFE044647
:1015E000042C22D15348006941F6DF71084051496B
:1015F00008610846006940F0100008611DB1002034
:101600004F49088002E0A5204D4908804FF4302062
:10161000FFF7FFFD0446052C10D04648006941F64F
:10162000EF7108404349086108E0052C06D04148A5
:10163000006941F6DF7108403E490861204630BD2F
:10164000F0B505460E46174604243B4839498860E4
:101650003A488860E002FFF7DCFD0446042C19D10B
:101660003448006940F010003249086147F0F80042
:10167000304328433249891C0880E002FFF7C9FD46
:101680000446052C06D02B48006941F6EF7108404E
:10169000284908612046F0BD2648C0698008704787
:1016A0002448006A704700202249096801F020019F
:1016B00009B1012000E00020704729B11D4A1269DC
:1016C00002431C4B1A6104E01A4A12698243194B07
:1016D0001A61704701460020012908D1154AD269D4
:1016E00002F001020AB1012008E0002006E0114AE0
:1016F000D2680A400AB1012000E0002070470D497D
:10170000C860704704200B49C96801F0010109B1A4
:1017100001200EE00749C96801F0040109B1022067
:1017200007E00449C96801F0100109B1032000E095
:10173000042070470020024023016745AB89EFCDAC
:1017400000F8FF1F10B50446FB48844209D101216F
:101750008803FFF78BF800214FF48040FFF786F8ED
:1017600032E0F648844209D101214804FFF78BF8A2
:1017700000214FF40030FFF786F825E0F04884425E
:1017800009D101218804FFF77EF800214FF4802061
:10179000FFF779F818E0EB48844209D10121C80429
:1017A000FFF771F800214FF40020FFF76CF80BE011
:1017B000E548844208D101210805FFF764F80021BB
:1017C0004FF48010FFF75FF810BD2DE9F04786B0A9
:1017D00005460E460024A24600BFA1460027B08958
:1017E00000B100BF2F462C8A4CF6FF700440F088F1
:1017F00004432C82AC894EF6F3100440B088318942
:101800000843718908430443AC81AC8A4FF6FF401A
:101810000440B0890443AC8201A8FEF71FFFC6480C
:10182000874202D1DDF810A001E0DDF80CA0A88904
:1018300000F4004040B10AEBCA0000EB0A10316826
:101840004900B0FBF1F807E00AEBCA0000EB0A1010
:1018500031688900B0FBF1F86420B8FBF0F00401B6
:101860002009642101FB1089A88900F4004040B1DF
:10187000322000EBC900B0FBF1F000F00700044398
:1018800008E0322000EB09106421B0FBF1F000F019
:101890000F0004432C8106B0BDE8F0874FF41651C9
:1018A000016000218180C18001810C2141810021E2
:1018B0008181704710B502460020108A4FF2FF0365
:1018C00018400B884C8823438C882343CC882343BF
:1018D0001843108210BD0021018041808180C180A9
:1018E000704721B1828942F40052828104E08289EA
:1018F0004DF6FF731A4082817047F0B5034600240D
:1019000000260025002040F66A17B94200D100BF2A
:101910001846C1F3421401F01F06012707FA06F525
:10192000012C01D10C3004E0022C01D1103000E078
:1019300014301AB107682F43076002E00768AF430D
:101940000760F0BD1AB1838A0B43838202E0838A69
:101950008B4383827047028A4FF6F0731A400282EB
:10196000028A0A430282704782894FF2FF731A404B
:10197000828182890A438281704721B1828942F043
:101980000202828104E082894FF6FD731A4082814F
:101990007047028A4FF6DF731A400282028A0A43B6
:1019A0000282704721B1028A42F48042028204E03E
:1019B000028A4BF6FF731A4002827047C1F3080295
:1019C0008280704701468888C0F30800704781898B
:1019D00041F0010181817047028BD2B20283028BF8
:1019E00042EA012202837047028B02F47F420283A3
:1019F000028B0A430283704721B1828A42F020029F
:101A0000828204E0828A4FF6DF731A408282704736
:101A100021B1828A42F01002828204E0828A4FF66B
:101A2000EF731A408282704721B1828A42F0080225
:101A3000828204E0828A4FF6F7731A4082827047EE
:101A400021B1828942F40042828103E08289C2F39B
:101A50000E028281704721B1828A42F40062828242
:101A600004E0828A4FF2FF731A4082827047828AB2
:101A70004FF6FB731A408282828A0A438282704741
:101A800021B1828A42F00202828204E0828A4FF609
:101A9000FD731A408282704702460020B1F5007F34
:101AA00000D100BF13880B400BB1012000E00020E3
:101AB000704701F40072B2F5007F00D100BFCA4345
:101AC0000280704770B502460024002300250020E4
:101AD00040F66A16B14200D100BFC1F3421501F0D1
:101AE0001F03012606FA03F3012D02D19689334024
:101AF00006E0022D02D1168A334001E0968A334077
:101B00000C12012606FA04F41688344013B10CB105
:101B1000012000E0002070BD10B50022002340F637
:101B20006A14A14200D100BF0A1201249440A3B25A
:101B3000DC43048010BD0000003801400044004038
:101B400000480040004C0040005000400CB5002010
:101B5000019000909048006840F480308E49086001
:101B600000BF8D48006800F4003000900198401CD0
:101B70000190009818B90198B0F5A06FF1D186488E
:101B8000006800F4003010B10120009001E0002056
:101B90000090009801285CD18048006840F0100057
:101BA0007E4908600846006820F003000860084687
:101BB000006840F002000860774840687649486055
:101BC0000846406848600846406840F480604860C5
:101BD0000846C06A724908406F49C8620846C06A30
:101BE000704908436C49C8620846006840F080604C
:101BF000086000BF6848006800F000600028F9D065
:101C00006548406820F47C10634948600846406895
:101C100040F4E81048600846006840F080700860B2
:101C200000BF5D48006800F000700028F9D05A48F5
:101C3000406820F00300584948600846406840F07A
:101C40000200486000BF5448406800F00C000828BB
:101C5000F9D10CBD10B5FFF779FF10BD10B54E4896
:101C6000006840F001004C490860084640684E4951
:101C7000084049494860084600684C4908404649C0
:101C800008600846006820F4802008600846406824
:101C900020F4FE0048600846006820F0A05008606C
:101CA0004FF47F0088600020C862FFF7D3FF10BDAB
:101CB000F0B500210020002300240022002500268A
:101CC000354F7F6807F00C0121B1042908D008299D
:101CD0004BD10BE0364FDFF8DCC0CCF800704AE0A7
:101CE000354FDFF8D0C0CCF8007044E02A4F7F6851
:101CF00007F47010284F7F6807F48033800C0D289C
:101D000001D0801C00E0062033B92C4F4743DFF898
:101D1000A4C0CCF8007027E01F4FFF6A07F480349E
:101D20001D4FFF6A07F00F077A1C44B9224FB7FB1B
:101D3000F2F74743DFF87CC0CCF8007014E0164F90
:101D4000FF6AC7F303177D1C134FFF6AC7F303270E
:101D5000BE1C194FB7FBF5F77743B7FBF2F74743C4
:101D6000DFF850C0CCF8007005E0114FDFF844C038
:101D7000CCF8007000BF00BF074F7F68C7F30317A0
:101D8000DFF83CC01CF807100A4F3F68CF40DFF86F
:101D900024C0CCF80070F0BD0010024000200240CA
:101DA00000F0FEFF440601000000FFF0FFFFF6FE1A
:101DB00000127A002400002040787D0100093D00D7
:101DC000280000200648804706480047FEE7FEE757
:101DD000FEE7FEE7FEE7FEE7FEE7FEE7FEE7FEE7DB
:101DE0005D1C00085101000810B54FF480614FF4EC
:101DF000E13000F07FFD10BD08B59C20ADF800007B
:101E000010208DF8030003208DF802006946304849
:101E1000FEF738FE08BD10B5FEF7E4FA4FF4803047
:101E2000FEF707FBFEF744FB2A49087008460078D6
:101E300001283DD11020FFF7AFF90220FFF798F9F4
:101E40000020FEF7A8FB0020FEF7B7FB4FF48060F0
:101E5000FEF7AAFB0620FEF729FD4020FEF76CFBEB
:101E60004FF4C060FEF771FB0120FEF777FB00BF67
:101E70003B20FEF701FB0028FAD004218803FEF77F
:101E80004FFB4FF4E0114FF48030FEF73AFB012096
:101E9000FEF743FB00BF3920FEF7EEFA0028FAD028
:101EA0000220FEF76AFB00BFFEF770FB0828FBD19B
:101EB000012140F2FD10FEF7B2FC01218803FEF77C
:101EC000AEFCFFF799FFFFF78FFF10BD70470000D2
:101ED00000140140380000202DE9F04F4FF0000CB5
:101EE0004FF0000301EB9C6EBEF902503EF9404BEF
:101EF000BEF902903EF9408BBEF902703EF9406B8C
:101F0000BEF902B03EF940ABD044D944A8EB4A0A2E
:101F1000A9EB4B0B4FEAA4044FEAA50504EBA6047A
:101F200005EBA705A4EB6606A5EB670704EBA80481
:101F300005EBA905A4EB6808A5EB690906EBAB0660
:101F4000A7EBAA07A6EB6B0B07EB6A0A458020F804
:101F5000044B478020F8046BA0F8029020F8048B13
:101F6000A0F802A020F804BB03F1010393FAA3FC3C
:101F7000102BB7D1A0EB82014FF0100312090FF222
:101F8000361000F1000006B403EB430C6144A2F5E7
:101F9000803202EB8332B1F90250B1F90040A1EB7B
:101FA0000301B0F902B0B0F900A000F10400A5EB04
:101FB000040E0EFB0BFC0AEB4B0E05FB0ACB04FBDD
:101FC0000ECAB1F90250B1F90040A1EB0301B0F91A
:101FD0000290B0F9008000F10400A5EB040E0EFBA6
:101FE00009FC08EB490E05FB08C904FB0EC8B1F952
:101FF0000250B1F90040A1EB0301B0F90270B0F951
:10200000006000F10400A5EB040E0EFB07FC06EBDC
:10201000470E05FB06C704FB0EC6B1F90250B1F925
:10202000004001F10001D044D944A8EB4A0AA9EBD1
:102030004B0B4FEAA4044FEAA50504EB264405EB3D
:102040002745A4EBE636A5EBE73704EB284405EB80
:102050002945A4EBE838A5EBE93906EB2B46A7EBBD
:102060002A47A6EBEB3B07EBEA3A4D800C8019447C
:102070004F800E801944A1F80290A1F80080194405
:10208000A1F802A021F804BBB2F5803283DA03EB99
:10209000430C6144A2F101025FEA024E18BFA0EBBB
:1020A0000C007FF476AF06BC4FEA830392087FF4FE
:1020B0006AAFBDE8F08F0040000000400000004023
:1020C00000005DDD213BA3227E180000412D7EA58E
:1020D000412D0000412D00C000405DDD82E75DDD47
:1020E000213B7EA5412D0040000000400000004043
:1020F0000000AA2A94126B39460649327C0CA811BA
:102100008E2349327C0CA3227E1821F77931AA2A2A
:102110009412A8118E235DDD213BA3227E180000BE
:10212000412D95C6B13F461A2B1E58EE3735BEB429
:10213000C53EA8118E235DDD213B63A97138DF0800
:102140009A28B7CDC53E7EA5412D0000412D00C087
:10215000004063A92B1E21F77931BEB4C53EBEB441
:102160007C0C58EE373561AC213B95C6BAF9BAE51F
:1021700071383BA737355DDD82E75DDD213B7EA50C
:10218000412D21F766D756D53F3D3BA78E23A81199
:10219000C9CAB7CDC53E61AC7E18AA2AC1C295C6D0
:1021A000B13FBEB47C0C00000FB42DE9F04786B0FF
:1021B0000446DDE916532A46DDE91271384600F07F
:1021C000D2FE81468A46DDE914532A46DDE91071C4
:1021D000384600F0C8FE4A465346CDE9000100F0FB
:1021E000BCFECDE90201DDE914532A46DDE9127196
:1021F000384600F0B8FE81468A46DDE916532A4685
:10220000DDE91071384600F0AEFE4A465346CDE98E
:10221000000100F001FECDE9040102A80FC884E826
:102220000F0006B0BDE8F0075DF814FB2DE9F04F94
:102230009DB004468846404608EBD071491019917C
:10224000CDF86C8001201A9002E01A98401C1A9078
:102250001B9800EBD07149101B910129F5D1DDF8D5
:1022600068A0D3E0504600F06DFF02460B46CDE972
:10227000060100204FF0804102F0CEF9CDE90801BF
:1022800000F0ABFF834658460BEBD0714910139119
:102290007B4812900026B2E0304600F053FFCDE9B3
:1022A00008011A99A1EB0A0000F04CFF02460B4608
:1022B000CDE9040100204FF0804102F0ADF9CDE9F5
:1022C0000601DDE9082300F04EFECDE91601404687
:1022D00000F02AFF06904FF08040129900F02CFD8C
:1022E0000590069900F05AFD079000F095FFCDE9A2
:1022F0000801DDE9162300F036FECDE91401DDE921
:10230000140102F03BF9CDE90E01DDE9140102F000
:102310006FFE81F00041CDE9100135466AE0139867
:102320002F1804EB05130FCBCDE90C23CDE90A01DF
:1023300004EB071003C8CDE9080104EB051003C83E
:10234000CDE90601DDE9082300F066FD04EB051286
:1023500003C204EB0710C1688068CDE9080104EBF3
:102360000510C1688068CDE90601DDE9082300F0A9
:1023700053FD04EB0512C2E90201DDE90A01CDE9D2
:10238000080104EB071003C8CDE90601DDE90823C5
:1023900000F0E3FD04EB071203C2DDE90C01CDE917
:1023A000080104EB0711D1E90201CDE90601DDE9DD
:1023B000082300F0D2FD04EB0712C2E902010EA8C7
:1023C0000FC8CDE90423CDE9020104EB0711D1E9DF
:1023D0000201CDE9000104EB071106A8D1E90023B1
:1023E000FFF7E2FE04EB071006A991E80E10A0E843
:1023F0000E105D44A8F10100A84290DA761C1398F3
:10240000401EB042BFF648AFAAF1010ABAF1010F6F
:10241000BFF628AFA8F102001890404608EBD07133
:102420004E10012525E0B54215DA04EB06130FCB5B
:10243000CDE90C23CDE90A0104EB061004EB051CE1
:102440009CE80E10A0E80E1004EB05100AA991E814
:102450000E10A0E80E10DDF8649006E0A6EB090669
:10246000484609EBD0714FEA61094E45F6DA4E4411
:102470006D1C18988542D6DD1DB0BDE8F08F0000B8
:10248000D00F49402DE9F04F8FB0002400BF71E01C
:10249000204600F068FE8246724A734B00F063FDEE
:1024A00007460022714B00F05EFD05460022704B8E
:1024B00000F0CBFDCDE9040102F09AFD00226D4B46
:1024C000CDE9060100F04FFDCDE90A01204600F0FC
:1024D0004AFE0746634A644B00F045FD054600226C
:1024E000654B00F040FD0022614BCDE9000100F09A
:1024F000ACFDCDE9020102F07BFD824600225D4B7E
:1025000000F031FDCDE90601204600F02CFE8246A8
:10251000544A554B00F027FD05460022574B00F06A
:1025200022FD0022524BCDE9000100F08EFD07464E
:1025300002F05EFD00224F4BCDE9020100F013FDD9
:10254000CDE90401DDE9062300F066FCCDE90801D0
:10255000DDE90A2300F060FCCDE90C0100F06FFE1C
:102560008146484600F00CFE0004454941F824002D
:10257000601C84B2402C8BDB0FB0BDE8F08F2DE9DE
:10258000F04F95B0342107A800F073FB00245BE006
:102590003C4830F8240005B23A4850F824000614AC
:1025A000284600F0C1FD80464FF0854100F0C4FB95
:1025B00007464FF08E4100F0F1FB8146304600F0B7
:1025C000B3FD80464FF0854100F0B6FB07464FF063
:1025D0008E4100F0E3FB82465146504600F0ACFBD2
:1025E00049460190484600F0A7FB0090019900F091
:1025F0004BFB834600F010FECDE9020102F048FDDE
:102600000022214BCDE9040100F01FFD074600F038
:1026100016FE06904FF08F41069800F08DFB07469E
:1026200000F0C7FD194941F82400084650F824304D
:10263000224617A107A800F0D5FF07A800F073FAFB
:10264000C82000F0E2FA641C202CA1D315B0BDE82C
:10265000F08F10B540220A490A48FFF73DFCFFF70A
:102660008EFF10BD1C2D4454FB21194000ECA340EB
:102670000000A9400040AF400088A340000049404E
:10268000440000204401002000005040440200208B
:1026900025642054696D6573204D61673A252E329B
:1026A000660D0A00000000002DE9F04F97B03421BC
:1026B00009A800F0DEFA4FF0000A4FF4C850089065
:1026C00000BF95E0089800F038FD01460590784875
:1026D00000F064FB834600F09FFDCDE90601504603
:1026E00000F041FD734A744BCDE9040100F03BFC5E
:1026F0008046DDE9062300F036FC064602F078FC51
:10270000044600226D4B00F02EFC6D4A02EB0A12CB
:1027100003C2089800F011FD01460390694800F0DB
:102720003DFB834600F078FD80468946504600F028
:102730001AFD604A604BCDE9020100F014FC4246EC
:102740004B46CDE9040100F00EFC064602F050FCB9
:10275000044600225C4B00F006FCCDE90601584817
:1027600000EB0A10D0E900432246069800F054FB23
:10277000534A02EB0A1203C2089800F0DEFC01463D
:102780000390524800F00AFB834600F045FDCDE976
:102790000601504600F0E7FC464A474BCDE90201EE
:1027A00000F0E1FBCDE90401DDE9062300F0DBFBED
:1027B000064602F01DFC04460022454B00F0D3FB08
:1027C00080463F4800EB0A10D0E9004322464046CD
:1027D00000F022FB3A4A02EB0A1203C20021384AF7
:1027E00002EB0A129160D1600AF101001FFA80FA2F
:1027F000BAF1FF0F7FF766AF4FF480713048FFF7F3
:1028000015FD4FF0000A4CE02D4800EB0A10D0E90E
:1028100002432B4800EB0A11D1E9026122463046FF
:1028200000F0A1FBCDE90201254800EB0A10D0E938
:102830000043234800EB0A102246D0E900613046ED
:1028400000F091FBCDE90001DDE9022300F0E4FA9C
:10285000CDE9040102F01CFC804600224FF08043C9
:1028600000F081FB00221B4BCDE9060100F0EDFBDF
:10287000194A02EBCA0203C2174800EBCA0003C898
:102880005246CDE9000115A109A800F0ABFE09A848
:1028900000F049F9C82000F0B8F90AF101001FFA68
:1028A00080FABAF1800FAFDB17B0BDE8F08F0000FF
:1028B000000048421C2D4454FB2119400040DF40D9
:1028C000480B0020008009440040CF4000C08F44E6
:1028D0000094C1400000704048030020256420544B
:1028E000696D657320526573756C743A252E326676
:1028F0000D0A000030B589B005460C469E48FEF72B
:1029000021FF00214FF00060FEF725F84FF4E06052
:10291000FDF7EAFF25208DF8040001208DF8050061
:1029200000208DF8060001208DF8070001A8FDF7B2
:10293000E0FF4FF40070ADF8200018208DF8230060
:1029400003208DF8220008A98C48FEF79BF84FF46D
:102950008060ADF8200004208DF8230008A9874886
:10296000FEF790F804954FF48050ADF81400002065
:10297000ADF81600B4F5806F03D0B4F5C06F00D089
:102980000024ADF818400020ADF81C000C20ADF874
:102990001A000020ADF80800ADF80A004FF40070EE
:1029A000ADF80C000020ADF80E0004A97248FEF747
:1029B0000CFF02A97048FEF77DFF012240F225516D
:1029C0006D48FEF79AFF01216B48FEF78AFF09B0B8
:1029D00030BD00BF6849098801F080010029F9D0A5
:1029E000C0F30801644A121D1180704710B540F20F
:1029F00025516148FFF766F830B15F48001D008837
:102A0000C4B22046FFF7E5FF10BD30B504460D46C1
:102A1000002304E0E05CFFF7DCFF581C83B2AB420C
:102A2000F8DB30BD70B504460D46E1B25248FEF702
:102A3000C5FF00BF80215048FFF72EF80028F9D0CD
:102A4000204670BD08B54FF4E060FDF74DFF35201E
:102A50008DF8000002208DF8010000208DF80200A2
:102A600001208DF803006846FDF743FF08BD10B54F
:102A700086B0044601210805FDF7DEFE0121302065
:102A8000FDF7CDFE0420ADF8140003208DF81600EC
:102A900004208DF8170005A93948FDF7F3FF4FF41E
:102AA0008050ADF8140003208DF8160018208DF822
:102AB000170005A93348FDF7E5FF01940020ADF8A4
:102AC0000800ADF80A00ADF80C00ADF810000C20BD
:102AD000ADF80E0001A92C48FEF777FE012240F266
:102AE00025512948FEF709FF01212748FEF7F9FE85
:102AF000FFF7A8FF06B010BD10B540F225512248DF
:102B0000FEF7E0FF70B12048FEF75CFF0446214667
:102B10001D48FEF753FF00BF40211B48FEF7BCFFD6
:102B20000028F9D010BD38B5044618A00068009000
:102B300000250BE021781448FEF740FF00BF40213C
:102B40001148FEF7A9FF0028F9D0641C207800285E
:102B5000F0D100250CE01DF805100B48FEF72EFF04
:102B600000BF40210848FEF797FF0028F9D06D1CF0
:102B7000032DF0DB38BD00000038014000080140A3
:102B8000001401400010014000500040FFFFFF0012
:102B900010B56FF00400FDF7F6FE2E4800682E49D0
:102BA000B0FBF1F02D4908700846007800EB4001B9
:102BB000C1EBC0104FF6FF7101EAC0002849088040
:102BC00010BD0146254A12784A434FF0E0235A616E
:102BD00000229A611A46126942F001021A6100BF8E
:102BE0004FF0E022106900F001021AB100F48032C7
:102BF000002AF5D04FF0E022126922F001024FF0D6
:102C0000E0231A6100229A6170470146144A128833
:102C10004A434FF0E0235A6100229A611A46126932
:102C200042F001021A6100BF4FF0E022106900F08B
:102C300001021AB100F48032002AF5D04FF0E022F0
:102C4000126922F001024FF0E0231A6100229A611A
:102C5000704700002400002000127A003A00002093
:102C60003C000020D2B201E000F8012B491EFBD24B
:102C700070470022F6E710B513460A460446194687
:102C8000FFF7F0FF204610BDF0B480EA0102D40F38
:102C90004200B2EB410F02D20246084611464A00FA
:102CA00042D0C30DDDB2C1F3C752AD1A202D35DAC3
:102CB000C1F3160141F4000204B15242C5F12006ED
:102CC00002FA06F12A411044B3EBD05F23D0C4B11D
:102CD000012DA0EBC35009DCF0BC4FF0004202EA2A
:102CE000C352DBB200F5000000F046BB400000F12B
:102CF000807000EBC350A0F1807040EAD1704900B1
:102D000009E0490841EAC071A0EBC35000F500009A
:102D1000400800EBC350F0BC00F025BB614201222B
:102D200002EB4101001BF6E7F0BC704781F0004167
:102D3000AAE780F00040A7E780EA010210B502F0A0
:102D40000043400022D04A001FD0010E01EB126167
:102D5000C0F35600C2F3560240F4000042F40002F1
:102D6000A0FB022000047F39140400D0401C50EA6C
:102D7000124001D44000491EC2B20C0604EBD01030
:102D8000401C4008802A02D003E0002010BD20F043
:102D90000100002900DA0020184310BD30B480EA99
:102DA000010202F0004530F0004221F0004013D053
:102DB00090B1C30DD40DC2F31601C0F31600E41A8E
:102DC00041F4000140F400027D34914201D3641CBF
:102DD00000E04900002C02DA30BC002070474FF4BC
:102DE00000000023914201D3891A034340084FEAAF
:102DF0004101F7D151B1914202D14FF0004105E0BC
:102E000002D24FF0010101E06FF0010103EBC45069
:102E1000284430BC00F0A7BA2DE9FE4F804681EA75
:102E20000300C00F0C46009021F0004123F0004544
:102E3000B8EB0200A94105D24046214690461C4607
:102E40000B46024623F00040104347D0270DC7F33E
:102E50000A00C3F30A510290401A019040286BDA2D
:102E6000C3F3130040F4801B0098924620B1002366
:102E7000D2EB030A63EB0B0B01985946C0F14002F9
:102E8000504600F03FFA06460D4650465946019A14
:102E900000F057FA10EB08006141002487EA115254
:102EA00084EAE7731A4340D0009A62B3019A012A78
:102EB0004FEA075215DC001B61EB02014FF00042A4
:102EC00002EA0752CDE90042001C41F5801132466A
:102ED0002B4600F08EFA03B0BDE8F08F4046214645
:102EE000F9E7001B61EB0201001C41F5801300189B
:102EF0005B412018A2F5001747EB030140EAD570AB
:102F0000B6196D4111E06D084FEA360645EAC07505
:102F10004FEA0752001B61EB0201001C41F58011D2
:102F200049084FEA30000019514132462B4603B0A0
:102F3000BDE8F04F00F04EBA009801224000002397
:102F4000D0EB020263EBE073009821464FEAE07495
:102F5000B8EB000061EB0401E9E783F000435BE7B5
:102F600081F0004158E72DE9FE4F81EA030404F0A7
:102F7000004421F0004100944FF0000B23F0004387
:102F800050EA01045ED052EA03045BD0C3F30A5452
:102F9000C1F30A552C44A4F2F3340194A0FB02546B
:102FA000C1F3130141F48011C3F3130343F48013FD
:102FB00001FB024400FB034E840A970A44EA815451
:102FC00047EA8357A4FB076802958D0A05FB07852E
:102FD0004FEA932C04FB0C542705029D4FEA065838
:102FE00047EA1637B5EB08056EEB070C870E920E15
:102FF00047EA811742EA8312A7FB0201B6EB0B01F5
:1030000064EB00042B0D43EA0C335E1844EB1C50B8
:10301000DA465146E7FB0201C5F313044FEA0B33CE
:1030200043EA14534FEA0432019C43EA0603A4F135
:103030000C040294009CCDE900B400F0DAF903B06E
:10304000BDE8F08F00200146F9E72DE9F04D81EA57
:10305000030404F0004B21F0004514464FF0000A31
:1030600023F0004150EA050220D054EA01021DD0AD
:10307000C5F30A570246C5F31303C1F31300C1F3A6
:103080000A5640F4801543F48013A7EB0608101B82
:10309000D64608F2FD3873EB050002D308F10108AB
:1030A00001E092185B41B8F1000F03DA00200146FD
:1030B000BDE8F08D00204FF48011064684460EE0F6
:1030C000171B73EB050705D3121B63EB05030643C0
:1030D0004CEA010C49084FEA300092185B4150EA73
:1030E0000107EDD152EA030012D082EA040083EA1C
:1030F0000501084305D0101BAB4106D20122002375
:1031000006E000224FF0004302E06FF0010253108E
:103110001AEB06004CEB085110EB0A0041EB0B01D7
:10312000BDE8F04D00F056B9C10F80EAE0700844E8
:10313000CA079623002100F01FB9962300221146EA
:1031400000F01AB90EB5C10F80EAE0700844CA0752
:10315000002140F233438DE80E000A460B4600F092
:1031600048F903B000BD0EB540F233410291002191
:10317000CDE900110A460B4600F03BF903B000BD53
:1031800000F0004220F00040C10DC0F3160040F4F2
:1031900000007F2901DA00207047962903DCC1F185
:1031A0009601C84001E096398840002AF4D0404298
:1031B000704720F00040C10DC0F3160040F400003D
:1031C0007F2901DA00207047962903DCC1F19601BE
:1031D000C840704796398840704770B5C1F30A52AD
:1031E00001F000450024C1F3130140F2FF3341F424
:1031F00080119A4201DA002070BD40F233439A42B6
:10320000A2F2334203DC524200F08BF800E090401F
:103210002C43F1D0404270BD00F0004230F000403D
:103220000AD0C10D01F56071C0F3160042EA0151E8
:10323000C20840071143704700200146704701F063
:10324000004330B421F0004150EA010206D00A0DDB
:10325000A2F56072C1F31301002A02DC30BC002029
:103260007047440F44EAC104C100E01830BC00EBD1
:10327000C25000F078B830B50B460146002020223D
:10328000012409E021FA02F59D4205D303FA02F573
:10329000491B04FA02F52844151EA2F10102F1DCD3
:1032A00030BD2DE9F05F0546002092469B468846DA
:1032B0000646814640241BE02846414647462246B2
:1032C00000F02FF853465A46C01A914110D31146C8
:1032D0001846224600F016F82D1A67EB01084F46F3
:1032E00022460120002100F00DF817EB00094E41A5
:1032F000201EA4F10104DFDC484631462A4643463D
:10330000BDE8F09F202A04DB203A00FA02F10020F9
:1033100070479140C2F1200320FA03F31943904013
:103320007047202A04DB203A21FA02F0002170477E
:1033300021FA02F3D040C2F120029140084319461D
:103340007047202A06DBCB17203A41FA02F043EA05
:10335000E07306E041FA02F3D040C2F1200291404E
:103360000843194670470029A8BF7047401C490010
:1033700008BF20F00100704710B4B0FA80FC00FADA
:103380000CF050EA010404BF10BC704749B1CCF105
:10339000200421FA04F411FA0CF118BF0121214391
:1033A0000843A3EB0C01CB1D4FEA00614FEA10204C
:1033B00042BF002010BC704700EBC35010440029EE
:1033C000A4BF10BC7047401C490008BF20F001009A
:1033D00010BC704710B5141E73F1000408DA401CCD
:1033E00041F1000192185B411A4301D120F0010024
:1033F00010BD2DE9F04D92469B4611B1B1FA81F214
:1034000002E0B0FA80F220329046FFF77BFF0446DC
:103410000F4640EA0A0041EA0B0153465A46084368
:1034200013D0114653EA010019D0C8F140025046AA
:10343000FFF777FF05460E46504659464246FFF7CE
:1034400061FF084305D0012004E020463946BDE86D
:10345000F08D0020054346EAE0762C4337430A9876
:103460006305E40AA0EB08000022FD0A44EA475481
:103470000A3002D500200146E9E70105101969412B
:10348000DDE9084500196941BDE8F04DA2E770B5D6
:1034900021F0004303430CD0C1F30A550024D5EBBF
:1034A000040564EB0403D617AD1AB34102DB002018
:1034B000014670BD201841EB025170BD2DE9F04D61
:1034C00000231A461B1A8A4103DB00200146BDE88F
:1034D000F08DC1F30A52C1F3130141F480154FF08E
:1034E000000BD10702D100186D41521E002704467F
:1034F00040F2FF11384601EB620A3E468046024622
:1035000000204FF48011FFF70CFFC2197141BB1866
:1035100046EB0100B4EB030C75EB000C04D3E41A8A
:1035200065EB000517460E46241908F101006D41B0
:1035300080463428E3DDF91946EB0600091BA84153
:1035400003D24FF0FF32134601E0002213461BEB7B
:10355000070046EB0A51BDE8F04DFFF73BBFC1F352
:103560000A52C1F3130140F2FF3341F480119A4231
:1035700002DA00200146704740F233439A42A2F239
:10358000334202DC5242FFF7CCBEFFF7BBBE000065
:1035900030B5041E71F1000404DB4FF000444042DA
:1035A00064EB0101141E73F1000405DB1C464FF0AF
:1035B0000043524263EB0403994208BF904230BD7E
:1035C000064C074D06E0E06840F0010394E8070070
:1035D00098471034AC42F6D3FCF7BEFD9052000879
:1035E000B05200080FB4084B10B504A902AA039802
:1035F00000F028FC044602A9002000F0BAFF204693
:1036000010BC5DF814FB000073450008490050EA47
:10361000C12018BF04204A0D18BF40F0010040F23D
:10362000FF72B2EB515F08BF40F00200012808BFF3
:10363000052070472DE9F74F144694B00021C4E9E6
:1036400002111599079121F00045C9498D4206DC08
:103650001599C4E9000117B00020BDE8F08FC549F5
:10366000DFF814A3A9423CDD0799C44E0029C44FDA
:10367000C44A1599534619DDFFF76FFC554506D02E
:10368000C14AC24BFFF769FCC4E900010AE04FF0F0
:10369000D352BE4BFFF761FC32463B46FFF75DFC61
:1036A000C4E9000117B00120BDE8F08FFFF7B4FBBB
:1036B000554506D0B44AB54BFFF7AEFBC4E900014F
:1036C0000AE04FF0D352B14BFFF7A6FB32463B4620
:1036D000FFF7A2FBC4E9000117B04FF0FF30BDE8CF
:1036E000F08FAB49A942159978DB21F00041834660
:1036F0008846A84AA84BFFF736FC0022A74BFFF7E5
:103700008BFBFFF76AFD0990FFF71CFD06460F468D
:103710009C4A5346FFF727FC43465A46FFF720FCD6
:1037200080468A46984A994B30463946FFF71BFC3B
:103730002A0D01250B9242465346FFF711FC032D3B
:10374000C4E9000139D00B98C1F30A51401A05EBC6
:1037500045111139814230DA9148C346784400EB73
:103760000510CDF80CA00C90D0E900233046394666
:10377000FFF7F9FB02460B46049106905846039961
:10378000FFF7EBFB80468A4602460B4658460399F4
:10379000FFF7E3FB049B069AFFF7DFFB83460C98D9
:1037A00003913946D0E902233046FFF7DCFB5A4645
:1037B000039BFFF7D2FB6D1CBDE707980028A2BF53
:1037C000099817B0BDE8F08F616881F00041616031
:1037D000099817B04042BDE8F08FFFE7844615987E
:1037E000C1F31301C0F30A50A0F2F5304FEA60189C
:1037F00000F01F06C6F120001390002006900790ED
:1038000041F4801E05206D4676B1664A08EB000142
:103810007A4452F8213002EB8101B3404A6813998F
:1038200022FA01F1194305E05F4908EB00027944EF
:1038300051F82210A1FB0E27A1FB0C131A449A4247
:1038400034BF0123002303EB070A05EB8003D3E910
:1038500001B70F448F4234BF0121002193448B44B0
:1038600011B1934502D903E0934501D2012100E053
:103870000021C3E901B7514445F82010011EA0F111
:103880000100C1DC0298059F00F10050800F1290EA
:103890000298DDE903568000FFF754FC8346284672
:1038A0000D91FFF760FC6FF01D02FFF7F0FDCDE911
:1038B0000E013046FFF757FC6FF03D02FFF7E7FDC2
:1038C00080468A463846FFF74EFC6FF05D02FFF7F0
:1038D000DEFD0746424653461191FFF79DFADDE9AA
:1038E0000E23FFF799FA5A460D9BFFF795FA00252C
:1038F0000E465A4628460D9BFFF72FFBDDE90E23A7
:10390000FFF72BFB42465346FFF727FB3A46119B36
:10391000FFF726FBDFF898A0244A5346FFF723FB66
:1039200007468846234A244B31462846FFF71BFBAF
:103930003A464346FFF770FA074688464FF0A842DA
:10394000534631462846FFF70EFB3A464346FFF7FB
:1039500063FA159A12F0004F04D0129A81F00041D8
:1039600052421292C4E90001129817B0BDE8F08FDC
:10397000FB21E93F7CD90240FB21F93F7370032E04
:103980008A19A33B000040543163621A61B4D03DF0
:10399000FB21394183C8C96D305FE43F0000E03F3F
:1039A000401A0000BC1900009E190000182D445454
:1039B000FB21F93D3326A611460B113C2DE9FF4DA5
:1039C00021F0004807460C46B8F1795F08DAFFF7A6
:1039D00004FC002801BF0020324904B0BDE8F08D8E
:1039E0003A46234610461946FFF7BDFA05460246F9
:1039F0002D480E460B460621784400F05DF82A4615
:103A00003346FFF7B0FADDE9022382468B4638469B
:103A10002146FFF7A8FA04460F4652465B46284661
:103A20003146FFF7A0FA22463B46FFF796FA0746D3
:103A30008A464FF0FF3228463146FFF728FD1B4AE1
:103A400090450ADA3A465346FFF787FA04B0002257
:103A5000BDE8F04D134BFFF783BA154A4245A8BFA6
:103A6000A8F500154FF00004B8BF124D22462B46B2
:103A7000FFF773FA0646884622462B46002009497E
:103A8000FFF76BFA04460D463A4653463046414628
:103A9000FFF763FA04B022462B46BDE8F04DFFF76E
:103AA0005FBA00000000F03F6C1700003333D33FD3
:103AB0000000E93F0000D23F2DE9F0414F1E00EB2E
:103AC000C7010446D1E9000115461E4637F006023B
:103AD0000DD02A463346FFF746FA7F1E04EBC70394
:103AE000D3E90023FFF798F937F00602F1D1022F4E
:103AF00025D0042F13D0062F18BFBDE8F0812A4629
:103B00003346FFF730FAD4E90A23FFF785F92A464E
:103B10003346FFF728FAD4E90823FFF77DF92A4650
:103B20003346FFF720FAD4E90623FFF775F92A4652
:103B30003346FFF718FAD4E90423FFF76DF92A4654
:103B40003346FFF710FAD4E90223FFF765F92A4656
:103B50003346FFF708FAD4E90023BDE8F041FFF748
:103B60005BB900002DE9FF4D054621F0004084B00F
:103B70000C46B0F1795F0BDA2846FFF747FD0428C1
:103B800008BF00F07FF8284608B02146BDE8F08D58
:103B90002A460B461046FFF7E6F906460F462A4628
:103BA0002346FFF7E0F9804626488A4632463B46E0
:103BB00005217844FFF780FF83461098029160B397
:103BC000214A224B40465146FFF7CDF9CDE900018D
:103BD0005A4640465146029BFFF7C5F98246884641
:103BE000DDE906014FF0FF32FFF751FC5246434634
:103BF000FFF7B3F932463B46FFF7B5F9DDE9062397
:103C0000FFF7ABF9DDE90023FFF7A7F908B02A4673
:103C10002346BDE8F04DFFF7A3B90B465A463046A0
:103C20003946FFF7A0F9084A084BFFF7F5F8424676
:103C30005346FFF798F908B02A462346BDE8F04DF1
:103C4000FFF7EAB8B2160000495555555555C5BF9E
:103C50000022134610460149FFF7F7B90000F03F74
:103C60000122FFF714BCFFF7D7B800221346104615
:103C70001146FFF7EAB940F2013200204FF0E0416F
:103C8000FFF705BC024A00201107FFF700BC000047
:103C900001FDFFFF02E008C8121F08C1002AFAD187
:103CA00070477047002001E001C1121F002AFBD1BC
:103CB0007047000001490860704700004000002084
:103CC0002DE9FF5F82B00021DDE90430020DDDF84F
:103CD00040B0034318D044F61050A2F2FF324243E2
:103CE0001514119801281FD0A5EB0B00401C5FEAAA
:103CF000000A4FF000064E4FDFF83891B0465046AC
:103D000015D5CAF1000413E0119801244AA3012833
:103D100001D16FEA0B010298119AC0E90031C0E9A4
:103D2000024206B0BDE8F09FCBF10000DFE7044699
:103D30000021404A491842EB0450CDE9001012E03E
:103D4000E00707D032463B4640464946FFF70BF9AD
:103D50008046894632463B4610461946FFF703F92E
:103D600006460F466410002CEAD1DDE90401DDE9C6
:103D70000023BAF1000F06DAFFF7F5F842464B468A
:103D8000FFF7F1F805E0FFF760F942464B46FFF711
:103D90005CF904460E460022284BFFF7F9FB03D8D6
:103DA0004FF0FF30014607E00022254B2046314608
:103DB000FFF732F8FFF7D3FB102409E0002C0ADBF1
:103DC0000A220023FFF76DFA039B30321A55641E56
:103DD00050EA0102F2D1641C039AC4F111031444A5
:103DE000119A012A03D0012208430DD10AE00843A9
:103DF00004D000204FF0110B119072E7A3EB0B05DC
:103E00006D1E0DE05B4504DD4FF0000205F101057C
:103E100004E003DA4FF00002A5F10105002AECD01E
:103E200002981199C0E90231C0E9004579E7000024
:103E3000000014400000F03F300000000000F0439C
:103E40000000E03F2DE9FF4F95B09B4689460646AE
:103E500000250FE2252877D100242746F84A0121C2
:103E6000059400E0044316F8013F203B01FA03F0FB
:103E70001042F7D130782A2811D06FF02F03307814
:103E8000A0F13002092A16D8059A44F0020402EB88
:103E9000820203EB42021044761C0590EFE759F8CA
:103EA000042B0592002A03DA504244F40054059092
:103EB00044F00204761C30782E2816D116F8010F33
:103EC00044F004042A280DD06FF02F023078A0F1BE
:103ED0003003092B09D807EB870302EB4303C7180C
:103EE000761CF3E759F8047B761C30786C280FD0E9
:103EF00006DC4C2817D068280DD06A2814D104E0BD
:103F0000742810D07A280FD10DE044F400140AE090
:103F100044F4801401E044F440147278824202D1E7
:103F200004F58014761C761C307866280BD013DCE0
:103F3000582877D009DC002875D04528F6D04628C7
:103F4000F4D047281AD19DE118E0632835D06428C1
:103F500079D0652812D195E1702873D008DC6728E4
:103F6000F1D069286FD06E280DD06F2806D1B5E04A
:103F700073282CD0752875D0782874D05A46179994
:103F800090476D1C75E1C4F30250022809D0032844
:103F90000DD0D9F8001004280DD00D6009F10409E6
:103FA00067E1D9F80010EA17C1E90052F6E7D9F83D
:103FB00000100D80F2E70D70F0E719F8041B8DF882
:103FC000001000208DF80100EA46012003E059F8B6
:103FD00004AB4FF0FF3061074FF0000102D40DE059
:103FE00008F101018846B9420FDA8045F8DB1AF87A
:103FF00008100029F4D108E008F101018846814247
:10400000FADB1AF808100029F6D105985B46A0EBF8
:10401000080721463846179A00F094FA284400EB26
:10402000080507E04DE029E10DE01AF8010B5A46BA
:1040300017999047B8F10108F7D25B4621463846F8
:10404000179A13E142E00A220092C4F302524FF0A1
:10405000000A022A08D059F804CB032A4FEAEC716F
:104060000AD00DE029E02AE009F1070121F007025A
:10407000F2E802C1914609E00FFA8CFC4FEAEC71BC
:10408000042A03D14FFA8CFC4FEAEC71002907DABD
:104090000A460021DCF1000C61EB02012D2202E056
:1040A000220504D52B228DF80420012203E0E2072B
:1040B00001D02022F7E7904659E00A2102E01022C1
:1040C0000DE010214FF0000A00910BE010224FF09C
:1040D000000A44F004040827009203E008224FF08D
:1040E000000A0092C4F30252022A05D059F804CB08
:1040F0000021032A08D009E009F1070121F0070295
:10410000F2E802C1914605E01FFA8CFC042A01D1B5
:104110000CF0FF0C4FF00008220728D5702806D0BD
:10412000009B83F0100353EA0A0305D00EE04022FF
:104130008DF80420012208E05CEA010206D030225A
:104140008DF804208DF8050002229046009B83F034
:10415000080353EA0A030AD15CEA010201D16207AB
:1041600005D530228DF804204FF001087F1E582815
:1041700004D034A003900EA802900DE036A0F9E719
:1041800053466046009AFFF78CF884460398825C99
:104190000298401E029002705CEA0100F0D1029881
:1041A00006A9081A00F1200A600702D524F4803419
:1041B00000E00127574502DDA7EB0A0000E00020E0
:1041C00000EB0A01009005984144401A0590E00375
:1041D00006D45B462146179A059800F0B3F90544CA
:1041E000002706E001A85A46C05D179990476D1C4C
:1041F0007F1C4745F6DBE0030CD55B462146179A4A
:10420000059800F09FF9054404E030205A461799BC
:1042100090476D1C0099481E00900029F5DC08E0CD
:10422000029802995A460078491C029117999047C2
:104230006D1CBAF10001AAF1010AF1DC65E1000090
:10424000092801003031323334353637383961626C
:104250006364656600000000303132333435363730
:1042600038394142434445460000000000F058F907
:104270000544761C307800287FF4ECAD19B0284650
:10428000BDE8F08F620700D4062709F1070222F08B
:10429000070CFCE80223E14603F000485FEA080C43
:1042A00002D00FF2702C0DE05FEA045C02D50FF231
:1042B000682C07E05FEAC47C02D00FF2602C01E0BA
:1042C000AFF2700C4FF0FF3823F00043CDF850C030
:1042D00065280CD006DC452809D046281DD0472883
:1042E0003DD13DE0662818D067287ED138E0002116
:1042F000112F01DB112000E0781CCDE9000106A997
:104300000EA8FFF7DDFCDDE90F010E9A03910021F5
:10431000009207F1010A04914DE04FF00040009730
:10432000CDE9011006A90EA8FFF7CAFCDDE90F02CE
:1043300003920E9B11990022DDF80CA000930492C9
:1043400011B9791C00EB010AB7EB0A0004D4C0F1E3
:10435000FF3007F1010A0490AAEB0700019044E046
:10436000012F00DA01270021112F01DD112000E0CB
:104370003846CDE9000106A90EA8FFF7A1FCDDE94A
:104380000F010E9A0391002104910092BA46210771
:104390000CD40399514500DA8A46BAF1010F05DDC4
:1043A000009AAAF10101515C302908D0B84202DA22
:1043B00010F1040F06DA0121CDE9011015E0AAF190
:1043C0000101E9E7002805DC049901440491AAEB06
:1043D000000102E0411C514500DD8A460499401A63
:1043E000401C01904FF000400290200704D4019837
:1043F000504501DBCDF8048000208DF84F00029875
:104400000DF14F07B0F1004F25D02B200E900298F0
:104410004FF0020800280CDA404202902D200E9046
:1044200007E00A210298FEF726FF3031029007F8D4
:10443000011DB8F10001A8F10108F2DC0298002882
:10444000EFD1791E0E980870307800F0200040F00F
:10445000450007F8020D12A8C01B00F107081498C8
:10446000007800B1012000EB0A01019801EBE07136
:1044700005984144401A401E0590E00306D45B466F
:104480002146179A059800F05DF8054414980078C5
:1044900018B15A46179990476D1CE00324D55B4626
:1044A0002146179A059800F04DF805441CE0049841
:1044B000002807DBDDE90301884203DD0098405C4A
:1044C000179901E0179930205A469047049805F152
:1044D0000105401C04900198401E019004D12E203B
:1044E0005A46179990476D1CBAF10001AAF1010ACA
:1044F000DDDC05E017F8010B5A46179990476D1C53
:10450000B8F10001A8F10108F4DC5B462146179AD6
:104510000598ABE62D0000002B00000020000000F5
:104520002DE9F041044600251E461746880404D4B0
:1045300005E039462020B0476D1C641EF9D5284699
:10454000BDE8F0812DE9F041044600251E46904665
:10455000C80301D5302700E02027880404D505E0F2
:1045600041463846B0476D1C641EF9D52846BDE863
:10457000F0810A68531C0B601070704700B5244B23
:1045800021F0004287B09A42DCBF0022134629DDA9
:10459000204B9A4208D140B94FF00100FFF78AFB47
:1045A000FFF763FB07B000BD03DBFFF759FB07B064
:1045B00000BD02AAFFF73EF810F0030104BF0DF1A1
:1045C000080C9CE80F000DD0012001290ED0022913
:1045D00014D00DF1080C00909CE80F00FFF7C2FA10
:1045E00007B000BDFFF7EAF907B000BD0DF1080CF8
:1045F00000909CE80F00FFF7B5FA05E00DF1080CFC
:104600009CE80F00FFF7DAF907B081F0004100BD28
:10461000FB21E93F0000F07F2DE9F04D1D460C46DF
:1046200098B0174621F0004123F00043002814BF42
:104630004FF0010C4FF0000C0CEB440CFE4A0CEB5D
:1046400002064FEA620C66452BD33E0018BF0126D6
:1046500006EB45061644F94A964222D3F84A53EA35
:10466000070C02D0944205D148B918B00020114679
:10467000BDE8F08D002808BF4FF0000C01D04FF0CE
:10468000010C0CEB440212F5001F0AD8002F14BFD6
:104690004FF0010C4FF0000C0CEB450212F5001F1F
:1046A00007D918B03A462B462146BDE8F04DFFF732
:1046B000DABA0022DFF88CA3002CB8BF534526DA03
:1046C000DFF884C36345A8BF022220DADFF870C395
:1046D0009C451CDCDFF874C30CEB235CBCF1140FAD
:1046E00008DDCCF1340627FA06FC0CFA06F6BE42C9
:1046F0000DD108E05FB9CCF1140623FA06FC0CFAE0
:1047000006F69E4203D10CF00102C2F1020251EA08
:10471000000C19D1002D17DA002C18BF022A01D085
:10472000012A07D00220FFF7C5FA18B0BDE8F04D06
:10473000FFF78EBA0220FFF7BDFAFFF789FA18B02B
:1047400081F00041BDE8F08DB7F1000C6CD153450C
:1047500025D104F1804212F5801201BF002800200B
:10476000B74918B008BFBDE8F08DB548884207DCEE
:10477000002DA1BF6046294618B0BDE8F08D07E0C6
:10478000281E05DA80F0004118B06046BDE8F08DC3
:10479000AF497944D1E9000118B0BDE8F08DDFF8E8
:1047A000A0C2634525D1002D1FDA19B1514512D1A0
:1047B000D8B909E0002840F0EC82A24A214618B09E
:1047C00062F31E01BDE8F08D0020214618B060F3B1
:1047D0001E01BDE8F08D08DA18B02346BDE8F04DA3
:1047E000024600206146FEF730BC18B02146BDE805
:1047F000F08D514518DAB5F1804F0DD0A5F1005C70
:10480000BCF1FF5C10D1B4F1000C0DDB18B06146B7
:10481000BDE8F04D00F03CBC234618B00246BDE8B0
:10482000F04D1946FEF79FBB060024F0004C3BD12B
:10483000D9B1514533D1002C06DD002DA1BF002098
:10484000514618B0BDE8F08D002C01DD002D1BDBBA
:10485000002C13DA002D11DB012A4FF0000014BFE9
:1048600078497C4918B0BDE8F08D022A18BF002CA9
:104870000AD0012A08D1002C06DA0AE0002CB8BFC1
:10488000002D11DA012A04D0002018B00146BDE83D
:10489000F08D18B000204FF00041BDE8F08DA1F17F
:1048A0004050B0F17F601AD0012000EBE47050EA74
:1048B000020421D0624C521E4FF0000B104304BF83
:1048C0004FF0000B644C654883427CDD644A6548C8
:1048D00093421FDD884217DB002D25DB37E0002CDB
:1048E00000DA4AB1022A0CBF01204FF0FF3018B0A5
:1048F000BDE8F04DFEF726BC0120FFF7DBF918B04C
:10490000BDE8F04DFFF7B1B94D4A8A4202DC002DF7
:104910000ADC1CE0814202DA002D18DA04E0484B80
:10492000994220DD002D12DD0220FFF7C3F9FFF7C9
:10493000A2F905460E460022534658462146FEF788
:1049400012FB18B066F31E012846BDE8F08D022068
:10495000FFF7B0F9FFF796F90A46214618B062F35F
:104960001E01BDE8F08D002230466146FEF7F5FAE3
:1049700080460E466FF00102FEF789FD4FF055327A
:10498000394BFEF7EDFA42463346FEF7ECFA0022C9
:10499000364BFEF7E5FA824642463346049110460E
:1049A0001946FEF7E0FA5246049BFEF7DCFA8A4607
:1049B00000904FF0C0422E4B40463146FEF7D3FAEE
:1049C0002C4A2B4B00E027E0CDE906015146009828
:1049D000FEF7C9FA82460191274A284B40463146E4
:1049E000FEF7C1FA5246019BFEF7B7FA82460B4624
:1049F00002460591DDE90601FEF70EFADDE9062320
:104A0000002688463046FEF7A8FA5246059BFEF778
:104A1000A7FA024600F07EB90020B1F5801F07DA40
:104A2000352230466146FEF732FD06466FF034000F
:104A300000EB215024E00000FFFF1F00FFFF0F00EC
:104A40000000F03F0000F07F0000404301FCFFFF4A
:104A5000020A00000000F0FF0000F0BF0000E0418B
:104A60000000F043FFFFEF3F5555D53F0000E03F0A
:104A70004715F73FFE822B6544DF5DF80BAE543ED1
:104A8000A0F2FF300190C1F3130040F07F6141F0CC
:104A900040510291FE498842D8BF002004DDFD4903
:104AA0008142C8BF012001DD0D9008E000200D907B
:104AB0000198401C01900298A0F580100290029984
:104AC000F54878440B910D9900EBC100D0E9002323
:104AD0000F9330460A920B99FEF73FFACDE9060193
:104AE000DDE90A2130460F9BFEF796F902460B4698
:104AF0000020EA49FEF7A9FA059102460B4600900C
:104B0000DDE90601FEF72FFA1490E5488A464FF0DA
:104B1000000878440299006812904FF0005040EA73
:104B200061010D980F9B01EB804000F50021099178
:104B30000A9A1298FEF711FA32460B9BFEF710FA0A
:104B400042465346FEF70FFA06460291404651464A
:104B5000099B129AFEF707FADDE90623FEF700FA31
:104B60003246029BFEF7F9F9059B009AFEF7FBF926
:104B70000091149A0490534610461946FEF7F3F933
:104B800006460246C7480B46029106217844FEF7C6
:104B900093FFCDE90510029B324610461946FEF7F9
:104BA000E2F9DDE90532FEF7DEF9059106465346E6
:104BB00040461946149AFEF72FF9009B049AFEF717
:104BC000D2F93246059BFEF727F9CDE9051042469A
:104BD000534610461946FEF7C6F90022B24B029121
:104BE0000A90FEF719F9DDE90532FEF715F90E46D0
:104BF0004246AD4B4046FEF7B0F9029B0A9AFEF7DB
:104C0000ACF9DDE90532FEF7ABF9424602910A90B4
:104C1000334610465146FEF7A6F9CDE90601534644
:104C2000149A02990A98FEF79EF98A460290334632
:104C3000424600990498FEF796F95346029AFEF709
:104C4000EBF882460B4602460591DDE90601FEF7C8
:104C5000E3F8DDE90623002088460646FEF77DF9E5
:104C60005246059BFEF77CF9824609914FF060425F
:104C70008E4B30464146FEF776F9049006918C4AF9
:104C80008A4B50460999FEF76EF982460291894A8D
:104C9000894B30464146FEF766F95246029BFEF7C5
:104CA000BBF8864B7B440D9A03EBC203D3E9002388
:104CB000FEF7B2F80E9007910198FEF743FA0591BE
:104CC000DDE9061382460E9A0498FEF7A5F87C4AA1
:104CD0007A440D9B02EBC303D3E9002300930292B5
:104CE000FEF79AF85246059BFEF796F8002688468E
:104CF00052463046059BFEF730F9009B029AFEF7BC
:104D00002CF9069B049AFEF728F9079B0E9AFEF7EA
:104D100027F9024600200B46029038462946FEF746
:104D200022F9824601912B4638461946029AFEF72F
:104D300014F932464346FEF716F95246019BFEF738
:104D40006BF807468A463246434629460298FEF7E4
:104D50000AF905460E463A465346FEF75DF8594AAB
:104D60008846914221DBA8EB020353EA000210D1EE
:104D70002A463346FEF7F1F8CDE90401524A534B77
:104D800038465146FEF748F8DDE90423FEF700FCFB
:104D900021D20220FEF78EFFFEF76DFF0A46214664
:104DA00018B062F31E01BDE8F08D494B28F00042B7
:104DB0009A4210D3474A08EB020353EA00027FF4F9
:104DC000C6AD2A463346FEF7C8F83A465346FEF7C4
:104DD000DFFB7FF6BCAD0022019228F000403E4987
:104DE0003E4A01EB2051824223DA481C4FF48011E5
:104DF00021FA00F040443A4AC0F30A517A44394B50
:104E0000A1F2FF31CB4020EA0303C0F3130040F4CA
:104E10008010C1F11401C84012680190B8F1000F70
:104E2000BCBF4042019028463146FEF796F8054641
:104E30000E462A46334638465146FDF7EDFF4FF001
:104E400000084246284B40460591FEF78CF8CDE914
:104E50000601264A264B40460599FEF784F8009144
:104E600002902A46334640460599FEF776F83A46C0
:104E70005346FEF775F81F4A1F4BFEF774F8009B68
:104E8000029AFDF7C9FF0746884602460B4635E001
:104E90008E9803007AB60B001A0600000000F03F5F
:104EA00082060000800500000000084009C7EE3FB0
:104EB000FD033ADCF5015B14E02F3EBE5804000010
:104EC0001C04000000009040FE822B654715973CB3
:104ED00000CC904000346F3F01FCFFFF0000E03F3A
:104EE00098030000FFFF0F00432EE63F396CA80C2B
:104EF000615C20BEEF39FAFE422EE63FDDE9060195
:104F0000FDF78AFFDDE9062305460E46FEF725F884
:104F10003A464346FEF724F80F462A4633460090A9
:104F200010461946FEF71FF8824602462E4888466C
:104F30000B4605217844FEF7BFFD52464346FEF777
:104F400012F82A463346FEF70BF880468A463B465F
:104F500028463146009AFEF706F83B46009AFDF7D0
:104F60005BFF0691009000224FF08043404651467F
:104F7000FDF7F3FF0F460C90424653462846314654
:104F8000FDF7F1FF3B460C9AFEF75FF8069B009A8F
:104F9000FDF7E3FF2A463346FDF7DFFF0022134B00
:104FA000FDF7DEFF054601980E4601EB005108159E
:104FB000002810DC28463146019AFEF768FAFEF711
:104FC00025FB042808BFFEF75DFE28463146019AFE
:104FD000FEF75DFA05460B4618B02A4658462146AC
:104FE000BDE8F04DFDF7BFBF080200000000F03F34
:104FF00000B5254B21F0004287B09A4203DC002225
:10500000134600922BE0214B9A4208D140B94FF051
:105010000100FEF74FFEFEF728FE07B000BD03DBE0
:10502000FEF71EFE07B000BD02AAFEF703FB10F05C
:1050300003014FF001000DD0012914D002291AD02C
:105040000DF1080C9CE80F00FEF7B8FC07B081F0EA
:10505000004100BD0DF1080C00909CE80F00FEF728
:1050600081FD07B000BD0DF1080C9CE80F00FEF7B4
:10507000A5FC07B000BD0DF1080C00909CE80F00E6
:10508000FEF770FDE2E70000FB21E93F0000F07F42
:105090002DE9F04106460F46FEF710FA041E0D46B4
:1050A00018BF0120284320F00040C0F17F6000F1CC
:1050B000E040C00F0ED0301C18BF0120384320F054
:1050C0000040C0F17F6000F1E040C00F04BF01204C
:1050D000FEF7F0FD20462946BDE8F0810000000003
:1050E000000000000000F03F000000000000F83F5A
:1050F00000000000000000000000004003B8E23F94
:10510000000000000000000006D0CF43EBFD4C3E45
:10511000033333333333E33FFFAB6FDBB66DDB3F3A
:105120004D268F515555D53F01411DA96074D13F82
:1051300065DBC9934A86CD3FEF4E454A287ECA3F7C
:105140003E5555555555C53F93BDBE166CC166BFFE
:105150002CDE25AF6A56113FF16BD2C541BDBBBEF7
:10516000D0A4BE726937663E4C5555555555A53F7E
:105170007751C1166CC156BF9015CB19A001FA3EEC
:10518000AD529C804F7E92BEC4B1B4BD9EEE213E16
:10519000D43888BEE9FAA8BD000000000000000075
:1051A00000004054FB21F93F3163621A61B4D03DE5
:1051B0000000601A61B4D03D7370032E8A19A33BBE
:1051C0000000002E8A19A33BC14920259A837B3910
:1051D00000000000000000006E83F9A22915444E73
:1051E000D15727FCC0DD34F5999562DB4190433CF3
:1051F000AB6351FE61C5BBDE3A6E24B7E0D24D42CF
:10520000EA2E49061C92D1091CEB1DFE3EA729B1CE
:10521000F53582E88444BB2E26709CE9417E5FB45C
:1052200039D69139F43953838B5F849C3B28F9BD7F
:10523000FF97F81F0F9805DE8B112FEF1F6D0A5A8D
:10524000CF7E366DB709CB27663F464F2DEA5F9E6E
:10525000C7BA27757BF1E5EBF739073DEA92528A29
:10526000B15FFB6B085D8D1FA6F810111111813F16
:10527000D561C119A0012ABF7DFEB157E31DC73E0C
:10528000EB9C2B8AE6E55ABE7CD5CF5A3AD9E53D50
:10529000B05200080000002044000000943C0008C8
:1052A000F452000844000020041F0000A43C000841
:1052B00000000000000000000000000000000000EE
:1052C00000000000010203040102030406070809AC
:1052D0000204060800A24A040000000000000000CA
:1052E0000102030406070809010000000000000095
:0452F00000000000BA
:04000005080001519D
:00000001FF
