:020000040800F2
:10000000880E0020710400087502000877020008BD
:100010007B0200087F020008830200080000000045
:10002000000000000000000000000000870200083F
:1000300089020008000000008B0200088D02000801
:100040008B0400088B0400088B0400088B04000854
:100050008B0400088B0400088B0400088B04000844
:100060008B0400088B0400088B0400088B04000834
:100070008B0400088B0400088B0400088B04000824
:100080008B0400088B0400088B0400088B04000814
:100090008B0400088B0400088B0400088B04000804
:1000A0008B0400088B0400088B0400088B040008F4
:1000B0008B04000847280008DD2800088B0400088E
:1000C0008B0400088B0400088B0400088B040008D4
:1000D0008B040008732500088B0400088B040008BB
:1000E0008B0400088B0400088B0400088B040008B4
:1000F0008B0400088B0400088B0400088B040008A4
:100100008B0400088B0400088B0400088B04000893
:100110008B0400084D2600088B0400088B0400089F
:100120008B0400088B0400088B0400088B04000873
:1001300000F002F800F03AF80AA090E8000C8244BF
:100140008344AAF10107DA4501D100F02FF8AFF29C
:10015000090EBAE80F0013F0010F18BFFB1A43F0A5
:10016000010318471C5500003C550000103A24BFFD
:1001700078C878C1FAD8520724BF30C830C144BF0C
:1001800004680C607047000000230024002500264E
:10019000103A28BF78C1FBD8520728BF30C148BFEA
:1001A0000B6070471FB51FBD10B510BD02F040FFBA
:1001B0001146FFF7F7FF00F009F802F05EFF03B405
:1001C000FFF7F2FF03BC02F005F900008EB0342106
:1001D00001A802F0EEFE00BF02F092F802F092FADF
:1001E00002F0F4FB4FF4A06000F062F94FF4965077
:1001F00002F0FFF84FF4965002F0E3F941F61F4188
:1002000040F2F31002F0F2FA2C2140F2F31002F067
:1002100038FB10A002F031FA1BE04FF47A7002F0C4
:10022000ACF81048006801280CD102F0B3FD02F0D0
:10023000A1FE00200B4908600B49086001210B4812
:1002400001F07CFB00BF4021094801F0FFFF0028BE
:10025000F9D0E2E7496E697469616C204F4B0D0A71
:10026000000000004C000020480000200008004072
:1002700000500040704700BFFEE700BFFEE700BF30
:10028000FEE700BFFEE77047704770477047000009
:100290000CB50020019000906C48006840F480305C
:1002A0006A49086000BF6948006800F400300090A7
:1002B0000198401C0190009818B90198B0F5A06F02
:1002C000F1D16248006800F4003010B101200090C4
:1002D00001E0002000900098012843D15C480068AC
:1002E00040F010005A4908600846006820F00300FA
:1002F00008600846006840F0020008605348406803
:10030000524948600846406848600846406840F4E2
:10031000806048600846406820F47C1048600846C9
:10032000406840F4E81048600846006840F080707B
:10033000086000BF4548006800F000700028F9D050
:100340004248406820F00300404948600846406841
:1003500040F00200486000BF3C48406800F00C00DC
:100360000828F9D10CBD10B5FFF792FF10BD10B5EC
:100370003648006840F0010034490860084640688B
:10038000344908403149486008460068324908400D
:100390002E4908600846006820F48020086008465E
:1003A000406820F4FE0048604FF41F008860FFF7AB
:1003B000DAFF4FF000602949086010BD10B5002138
:1003C00000200022214B5B6803F00C0121B10429BD
:1003D00006D0082928D107E0214B224C236027E0D2
:1003E0001F4B204C236023E0184B5B6803F4701014
:1003F000164B5B6803F48032022303EB904022B972
:10040000194B4343174C23600DE0104B5B6803F41A
:10041000003323B1144B4343124C236003E0104BD1
:100420004343104C236003E00D4B0E4C236000BF90
:1004300000BF064B5B68C3F303130C4CE15C094B34
:100440001B68CB40074C236010BD00000010024029
:10045000002002400000FFF8FFFFF6FE08ED00E07C
:1004600000127A000000002000093D000400002076
:100470000948804709480047FEE7FEE7FEE7FEE738
:10048000FEE7FEE7FEE7FEE7FEE7FEE70448054974
:10049000054A064B704700006F0300083101000851
:1004A00088080020880E0020880A0020880A002082
:1004B00031490143314A1160704770B50021002372
:1004C0000F22C47804B32D4C246804F4E064C4F50E
:1004D000E064210AC1F10403CA40447804FA03F13C
:1004E0008478144021430901254C0678A1550478ED
:1004F00004F01F050124AC4005786D11AD0005F135
:10050000E025C5F8004109E0047804F01F05012446
:10051000AC401C4D0678761145F8264070BD1A4A4D
:100520000A400243154B1B1F1A60704739B1134A2A
:10053000121D12680243114B1B1D1A6006E00F4A80
:10054000121D126882430D4B1B1D1A607047042850
:1005500008D14FF0E021096941F004014FF0E02299
:10056000116107E04FF0E021096921F004014FF02B
:10057000E0221161704700000000FA050CED00E078
:1005800000E400E080E100E080FFFF1F10B50446BA
:10059000FA48844208D10121401500F055FD0021A0
:1005A000601500F051FD17E0F548844208D10121A3
:1005B000001500F049FD0021201500F045FD0BE07D
:1005C000F048844208D10121C80300F03DFD00211C
:1005D0004FF4004000F038FD10BD30B50246002059
:1005E00000235068E84C20400D790C6844EA05244B
:1005F000204350609068E54C2040D1E902542C43E0
:100600004D7944EA450420439060D06A20F470009C
:100610000C7C641EE4B2234340EA0350D06230BD38
:1006200000210160017141718160C160012101748B
:10063000704721B1826842F00102826003E0826863
:1006400022F001028260704721B1826842F4807218
:10065000826003E0826822F480728260704710B585
:100660000023CBB21AB144681C43446002E04468E2
:100670009C43446010BD816841F00801816070476F
:10068000014600208A6802F008020AB1012000E059
:1006900000207047816841F0040181607047014685
:1006A00000208A6802F004020AB1012000E0002064
:1006B000704721B1826842F4A002826003E0826840
:1006C00022F4A00282607047014600208A6802F48A
:1006D00080020AB1012000E00020704710B50A46F0
:1006E00000210023416821F46041531E41EA433157
:1006F000416010BD21B1426842F40062426003E0F3
:10070000426822F4006242607047F0B504460D462C
:1007100000200021092D11DDE068A5F10A0606EB95
:100720004607072606FA07F18843A5F10A0606EBF5
:10073000460603FA06F10843E0600CE0206905EB89
:100740004507072606FA07F1884305EB450603FA35
:1007500006F108432061072A0FDA606B561E06EB8C
:1007600086071F2606FA07F18843561E06EB860603
:1007700005FA06F10843606322E00D2A0FDA206BC8
:10078000D61F06EB86071F2606FA07F18843D61FF9
:1007900006EB860605FA06F10843206310E0E06ADE
:1007A000A2F10D0606EB86071F2606FA07F188431D
:1007B000A2F10D0606EB860605FA06F10843E06293
:1007C000F0BD21B1826842F48012826003E0826849
:1007D00022F48012826070470146C86C80B2704774
:1007E00066484C300068704721B1426842F480622C
:1007F000426003E0426822F480624260704721B1A7
:10080000426842F48052426003E0426822F480521F
:10081000426070470A460021816821F4E04111439B
:100820008160704721B1826842F40042826003E037
:10083000826822F400428260704721B1826842F4EB
:100840000212826003E0826822F402128260704722
:10085000014600208A6802F400120AB1012000E07B
:1008600000207047F0B504461546002000220026FF
:10087000092911DDE068A1F10A0707EB470C0727FA
:1008800007FA0CF29043A1F10A0707EB470703FAB6
:1008900007F21043E0600CE0206901EB410C0727F0
:1008A00007FA0CF2904301EB410703FA07F21043F9
:1008B0002061A06BC0F30156EF1C06F1010CA7EB01
:1008C0000C0707EB870C1F2707FA0CF29043EF1C6D
:1008D00006F1010CA7EB0C0707EB870701FA07F2FB
:1008E0001043A063F0BD10B50A4600210023816BC0
:1008F00021F44011531E41EA0351816310BD08B534
:10090000002300930090009B0B440093009B1A600F
:1009100008BD08B5024600200090009201F12800B1
:10092000009B184400900098006880B208BD0A46F9
:1009300000214168164B19401143416070474162E4
:10094000826270470A460021416821F01F0111436D
:100950004160704740B109490831096841F400011C
:10096000064A0832116007E004490831096821F499
:100970000001024A08321160704700000024014063
:1009800000280140003C0140FFFEF0FFFDF7F1FFB1
:10099000FFFD3FFF0246002013680B400BB1012012
:1009A00000E000207047CA430260704770B50246FD
:1009B0000020002300240B125568CEB205EA06047D
:1009C00015681D4015B10CB1012000E0002070BD7C
:1009D00000220A12D34303607047000010B504469A
:1009E000CC48844208D10121042000F02DFB0021D5
:1009F000042000F029FB46E0C748844208D10121C9
:100A0000082000F021FB0021082000F01DFB3AE047
:100A1000C248844208D10121102000F015FB0021BA
:100A2000102000F011FB2EE0BD48844208D10121C6
:100A3000202000F009FB0021202000F005FB22E02F
:100A4000B848844208D10121402000F0FDFA00217D
:100A5000402000F0F9FA16E0B348844208D10121A1
:100A6000802000F0F1FA0021802000F0EDFA0AE089
:100A7000AE48844207D10121801500F0E5FA00213B
:100A8000A01500F0E1FA10BD10B50121084600F0F4
:100A9000DBFA0021012000F0D7FA10BD2DE9F0416A
:100AA000024600250026002000230024002791F89C
:100AB00003C00CF00F0591F803C00CF0100CBCF152
:100AC000000F03D091F802C04CEA050591F800C070
:100AD000BCF1000F31D0146800202BE04FF0010C66
:100AE0000CFA00F3B1F800C00CEA03069E4220D1D4
:100AF00083004FF00F0C0CFA03F7BC4305FA03FC1C
:100B00004CEA040491F803C0BCF1280F06D14FF061
:100B1000010C0CFA00FCC2F814C00AE091F803C002
:100B2000BCF1480F05D14FF0010C0CFA00FCC2F8E3
:100B300010C0401C0828D1D31460B1F800C0BCF12B
:100B4000FF0F34DD546800202EE000F1080C4FF058
:100B5000010808FA0CF3B1F800C00CEA03069E4243
:100B600021D183004FF00F0C0CFA03F7BC4305FAB8
:100B700003FC4CEA040491F803C0BCF1280F05D132
:100B800000F1080C08FA0CF8C2F8148091F803C0C0
:100B9000BCF1480F07D100F1080C4FF0010808FA2A
:100BA0000CF8C2F81080401C0828CED35460BDE871
:100BB000F0814FF6FF710180022181700421C17024
:100BC00070470246002093680B400BB1012000E003
:100BD000002070470146886880B2704702460020B6
:100BE000D3680B400BB1012000E0002070470146A4
:100BF000C86880B2704701617047416170470AB1AF
:100C0000016100E041617047C16070474FF480327C
:100C10000A4382618161826182698269704702460A
:100C20000020434B18684FF68073184040EA0210CA
:100C300008433F4B186070473E49C8617047F0B5A4
:100C40000A46002300240021002500F00046B6F1EA
:100C5000004F02D1364EF16901E0354E7168C0F3A4
:100C6000034583B200F44016B6F5401F08D121F0C9
:100C700070612F4E766826F070662D4F7E6012E010
:100C800000F48016B6F5801F06D1032606FA05F497
:100C9000A14341F0706106E0460D360103FA06F605
:100CA000B14341F0706122B1460D360103FA06F6F8
:100CB000314300F00046B6F1004F02D11C4EF16105
:100CC00001E01B4E7160F0BD30B500228B071C0F98
:100CD0000F2303FA04F2164B08338C1053F8243018
:100CE0009343134C08348D1044F8253023468C1060
:100CF00053F824308C07240F00FA04F423430C4CDF
:100D000008348D1044F8253030BD0A49DC310860C4
:100D10007047000000080140000C01400010014035
:100D20000014014000180140001C01400020014057
:100D30000000014000002042DF48006840F0010050
:100D4000DD49086008464068DC490840DA494860E7
:100D500008460068DA490840D74908600846006834
:100D600020F4802008600846406820F4FE004860B7
:100D70004FF41F0088607047CF49096821F4803123
:100D8000CD4A11601146096821F480211160B0F547
:100D9000803F03D0B0F5802F0ED106E0C649096828
:100DA00041F48031C44A116007E0C349096841F445
:100DB000A021C14A116000E000BF00BF704710B51C
:100DC00001460022002300204A11012A02D1BA4C18
:100DD000236806E0022A02D1B74C236A01E0B64C30
:100DE000636A01F01F02012494401C400CB10120F1
:100DF00000E0002010BD38B5002000900024002540
:100E000000BF3120FFF7DBFF05460098401C009033
:100E10000098B0F5A06F01D0002DF2D03120FFF77F
:100E2000CEFF08B1012400E00024204638BD014671
:100E30000020A14A106820F0F80040EAC1001060CC
:100E40007047A04908607047024600209A4B5868D6
:100E500020F47C1042EA01031843974B5860704716
:100E600098490866704701460020934A506820F070
:100E700003000843506070478F48406800F00C0042
:100E80007047014600208C4A506820F0F00008436B
:100E90005060704701460020874A506820F4E060A7
:100EA00008435060704701460020834A506820F490
:100EB000605040EAC1005060704729B17E4A527AC2
:100EC00002437D4B5A7204E07B4A527A82437A4B4A
:100ED0005A7270477B49D83108607047014600203C
:100EE000754A506820F44040084350607047002124
:100EF000714A20321170704A82F82010012802D005
:100F000004280AD104E001216B4A2032117005E067
:100F10000521694A2032117000E000BF00BF704710
:100F20006949086070476449096A0143624A11626D
:100F30007047654944390860704730B50021002288
:100F4000002400235C4D6D6805F00C0121B10429DB
:100F500005D0082923D105E05C4D056022E05B4DFA
:100F600005601FE0544D6D6805F47012524D6D68B8
:100F700005F48034022505EB92421CB9544D5543CB
:100F800005600BE04C4D6D6805F400351DB1504D0A
:100F90005543056002E04D4D5543056002E04B4D61
:100FA000056000BF00BF444D6D6805F0F001090900
:100FB000484D6B5C0568DD4045603F4D6D6805F44C
:100FC000E061090A434D6B5C4568DD4085603A4D40
:100FD0006D6805F46051C90A3E4D6B5C4568DD40A3
:100FE000C560354D6D6805F44041890B3A4D6B5C29
:100FF000C568B5FBF3F5056130BD29B12E4A5269CC
:1010000002432D4B5A6104E02B4A526982432A4B1A
:101010005A61704729B1284A92690243264B9A6166
:1010200004E0254A92698243234B9A61704729B1B3
:10103000214AD2690243204BDA6104E01E4AD26998
:1010400082431D4BDA61704729B11B4AD2680243C3
:10105000194BDA6004E0184AD2688243164BDA6012
:10106000704729B1144A12690243134B1A6104E014
:10107000114A12698243104B1A6170471249403974
:10108000086070470F49C86470470B49C8717047C2
:101090000948406A40F0807007494862704701463D
:1010A0000020054A92680A400AB1012000E00020B1
:1010B0007047014988727047001002400000FFF835
:1010C000FFFFF6FE000042428004424200127A0016
:1010D00000093D00140000202400002010B5044643
:1010E000FE48844208D10121C014FFF7ADFF002162
:1010F000E014FFF7A9FFC4E0B4F1804F08D101214B
:101100000846FFF7AEFF00210120FFF7AAFFB8E075
:10111000F348844208D101210220FFF7A2FF0021F9
:101120000220FFF79EFFACE0EE48844208D1012187
:101130000420FFF796FF00210420FFF792FFA0E0B4
:10114000E948844208D101210820FFF78AFF0021E5
:101150000820FFF786FF94E0E448844208D101218B
:101160001020FFF77EFF00211020FFF77AFF88E0B4
:10117000DF48844208D101212020FFF772FF0021BF
:101180002020FFF76EFF7CE0DA48844208D101217D
:101190004014FFF759FF00216014FFF755FF70E07E
:1011A000D548844209D10121C804FFF74DFF002131
:1011B0004FF40020FFF748FF63E0D048844209D194
:1011C00001210805FFF740FF00214FF48010FFF7D1
:1011D0003BFF56E0CA48844209D101214805FFF788
:1011E00033FF00214FF40010FFF72EFF49E0C54800
:1011F000844208D101214020FFF733FF0021402025
:10120000FFF72FFF3DE0C048844208D10121802034
:10121000FFF727FF00218020FFF723FF31E0BB48C5
:10122000844208D101218015FFF71BFF0021A01582
:10123000FFF717FF25E0B648844209D101210804D1
:10124000FFF702FF00214FF48030FFF7FDFE18E0AA
:10125000B048844209D101214804FFF7F5FE00217E
:101260004FF40030FFF7F0FE0BE0AB48844208D1AA
:1012700001218804FFF7E8FE00214FF48020FFF7EA
:10128000E3FE10BD00220288944B98420ED0994B89
:1012900098420BD0B0F1804F08D0914B984205D0C6
:1012A000904B984202D0904B984204D14FF68F73E6
:1012B0001A404B881A438D4B984207D08C4B98426A
:1012C00004D04FF6FF431A40CB881A4302808B8824
:1012D00083850B880385814B98420BD0854B9842C0
:1012E00008D08B4B984205D08A4B984202D08A4B4B
:1012F000984201D10B7A038601238382704770B52F
:10130000002400220023058C4FF6FE76354005842C
:10131000028C8388048B4FF68F752C40B51E2C40B1
:101320000D882C43751E2A400D892A434D882A4377
:101330006A4DA8420BD06F4DA84208D0744DA84208
:1013400005D0744DA84202D0734DA84213D14FF678
:10135000F7752A404D892A434FF6FB752A408D8840
:101360002A434FF6FF652B404FF6FF552B408D89E2
:101370002B43CD892B4383800483CD8885860284CB
:1013800070BD70B5002400220023058C4FF6EF7667
:1013900035400584028C8388048B48F6FF752C4009
:1013A0004FF6FF452C400D884FF6FF7606EA0525DF
:1013B0002C434FF6DF752A400D8906EA05152A43AE
:1013C0004D8806EA05152A43444DA84202D0494DEE
:1013D000A8421DD14FF67F752A404D894FF6FF7602
:1013E00006EA05152A434FF6BF752A408D8806EA9E
:1013F00005152A434FF6FF352B404FF2FF752B4062
:101400008D8906EA85052B43CD8906EA85052B43A0
:1014100083800483CD880587028470BD70B5002465
:1014200000220023058C4FF6FF6635400584028CB0
:101430008388848B4FF68F752C404FF6FC752C40BB
:101440000D882C434FF6FF552A400D894FF6FF7645
:1014500006EA05252A434D8806EA05252A431F4D3D
:10146000A84202D0234DA8421DD14FF2FF752A4059
:101470004D894FF6FF7606EA05252A434FF6FF35DC
:101480002A408D8806EA05252A434EF6FF752B4033
:101490004DF6FF752B408D8906EA05152B43CD8946
:1014A00006EA05152B4383808483CD8885870284D3
:1014B00070BD70B5002200230024058C4EF6FF7627
:1014C00035400584038C8488828B48F6FF752A405A
:1014D0004FF6FF452A400D8820E00000002C014017
:1014E0000004004000080040000C004000100040D4
:1014F0000014004000340140004C01400050014005
:101500000054014000180040001C00400020004032
:101510000040014000440140004801404FF6FF7682
:1015200006EA05252A434DF6FF752B400D8906EA8C
:1015300005352B434D8806EA05352B43FA4DA84265
:1015400002D0FA4DA84208D14BF6FF752C408D8988
:101550004FF6FF7606EA85152C4384808283CD887A
:10156000A0F84050038470BD828B4FF2FF331A40C5
:101570008283828B4FF6FF7303EA01231A4382832F
:101580007047F0B50C461546002200210026078C56
:101590004EF6FF7C07EA0C070784828B018C4FF61E
:1015A000FF7707EA043640F6FF473A404FF6FF77E9
:1015B00007EA05273A434FF6FF7707EA03373A432E
:1015C000D94FB8420ED0D94FB8420BD0B0F1804FAE
:1015D00008D0D74FB84205D0D64FB84202D0D64F28
:1015E000B84206D14DF6FF77394046F4805739436B
:1015F00005E047F6FF57394044F48057394382836A
:101600000184F0BD828B4FF6F3731A408283828B84
:101610000A4382837047F0B50C461546002200212C
:101620000026078C4FF6FF6C07EA0C070784828BB5
:10163000018C4FF6FF7707EA04264FF60C773A4005
:101640004FF6FF7707EA03172F433A43B64FB842E6
:101650000ED0B64FB8420BD0B0F1804F08D0B44F87
:10166000B84205D0B34FB84202D0B34FB84206D10A
:101670004FF6FF57394046F48077394305E04FF283
:10168000FF57394044F48077394382830184F0BDA9
:10169000028B4FF2FF331A400283028B4FF6FF7327
:1016A00003EA01231A4302837047F0B50C4615463E
:1016B000002200210026078C4FF6EF7C07EA0C077A
:1016C0000784028B018C4FF6FF7707EA041640F679
:1016D000FF473A404FF6FF7707EA03373A434FF6A2
:1016E000FF7707EA05273A438F4FB8420ED08F4F56
:1016F000B8420BD0B0F1804F08D08D4FB84205D022
:101700008C4FB84202D08C4FB84206D14FF6DF77EB
:10171000394046F01007394305E04FF65F7739400E
:1017200044F01007394302830184F0BD028B4FF669
:10173000F3731A400283028B0A4302837047F0B5A9
:101740000C46154600220021068C4FF6FE773E40DF
:101750000684028B018C4FF60C7632407E1C06EA22
:1017600003162E433243704EB0420ED06F4EB0423D
:101770000BD0B0F1804F08D06D4EB04205D06D4E09
:10178000B04202D06C4EB04206D14FF6FD763140E9
:1017900044F00106314305E04FF6F576314044F060
:1017A0000106314302830184F0BD70B505460C4645
:1017B0005D4885420ED05D4885420BD0B5F1804F23
:1017C00008D05B48854205D05A48854202D05A4825
:1017D000854200D100E000BF208850B92389A2884B
:1017E00061882846FFF7ABFFE1882846FFF79EFF98
:1017F00025E0208804280AD12389A2886188284608
:10180000FFF753FFE1882846FFF742FF17E02088E3
:1018100008280AD12389A28861882846FFF7FBFEA1
:10182000E1882846FFF7EEFE09E02389A288618857
:101830002846FFF7A6FEE1882846FFF795FE70BD13
:101840002DE9F04105460C4600260127608808B9BD
:10185000022600E00026A088012801D1022700E02E
:1018600001272088A0B92389A28861882846FFF72C
:1018700066FFE1882846FFF759FF23893A4631463B
:101880002846FFF712FFE1882846FFF701FF13E023
:101890002389A28861882846FFF707FFE188284648
:1018A000FFF7F6FE23893A4631462846FFF747FF01
:1018B000E1882846FFF73AFFBDE8F0810A884B88A7
:1018C0001A438B881A43CB881A430B891A434B89D6
:1018D0001A438B891A43A0F8442070474FF6FF71D2
:1018E000818000210180C180418001727047002108
:1018F000018041808180C180018141818181C181DC
:101900007047002101804180012181800021C18038
:10191000018170470021018041808180C180018167
:101920004181818170470000002C0140003401405A
:101930000004004000080040000C004021B1028873
:1019400042F00102028004E002884FF6FE731A4062
:101950000280704731B1B0F8442042F40042A0F850
:10196000442005E0B0F84420C2F30E02A0F8442061
:1019700070471AB183890B43838102E083898B43CB
:10198000838170478182704741EA0203A0F84830A2
:1019900070471AB183890B43838102E083898B43AB
:1019A0008381704701894FF6F872114001817047B9
:1019B0000A46002101894FF68F73194011430181B6
:1019C000704730B504460D4629462046FFF7F0FF24
:1019D000208940F00700208130BD2DE9F041044608
:1019E0000D4616461F46602D06D13B460122314664
:1019F0002046FFF75AFE05E03B46012231462046CD
:101A0000FFF79DFE29462046FFF7D2FF208940F0D0
:101A100007002081BDE8F08130B50C460021018926
:101A2000C9B24FF6FF7505EA03251543254329433F
:101A3000018130BD2DE9F04105460E461746984616
:101A4000002443463A4631462846FFF7E5FF2C89F5
:101A50004FF6F870044044F007044FF68F700440CE
:101A600044F070042C81BDE8F081F0B504460D46C9
:101A700016461F463B46324629462046FFF7CCFF16
:101A8000208940F480402081F0BD0185828270472A
:101A90000A46002101884FF68F73194011430180D7
:101AA0007047F0B50C4615461E4600210022002363
:101AB0000189028B038C4FF6F877394021434FF6AA
:101AC000FC473A4040F201173A434FF6DD773B407E
:101AD0004FF6FF7707EA06172F433B430181028346
:101AE0000384F0BD0A460021018B4FF68F73194025
:101AF0001143018370470A460021018B48F6FF73AA
:101B000019404FF6FF7303EA02231943018370471C
:101B10000A460021818B4FF68F7319401143818350
:101B200070470A460021818B48F6FF7319404FF633
:101B3000FF7303EA022319438183704721B10288AE
:101B400042F08002028004E002884FF67F731A4060
:101B50000280704721B1828842F00402828004E052
:101B600082884FF6FB731A408280704721B18288C9
:101B700042F00802828004E082884FF6F7731A4030
:101B80008280704721B1828842F00102828004E0A5
:101B900082884FF6FE731A40828070470A46002101
:101BA000018B4FF6F77319401143018370470A46C2
:101BB0000021018B4FF2FF7319404FF6FF7303EAC8
:101BC00002231943018370470A460021818B4FF697
:101BD000F77319401143818370470A460021818BB6
:101BE0004FF2FF7319404FF6FF7303EA02231943C4
:101BF000818370470A460021018B4FF6FB73194021
:101C00001143018370470A460021018B4FF6FF33D1
:101C100019404FF6FF7303EA02231943018370470B
:101C20000A460021818B4FF6FB73194011438183D3
:101C300070470A460021818B4FF6FF3319404FF65B
:101C4000FF7303EA02231943818370470A46002188
:101C5000018B4FF67F7319401143018370470A4689
:101C60000021018BC1F30E014FF6FF7303EA02233B
:101C70001943018370470A460021818B4FF67F7319
:101C800019401143818370470A460021818BC1F3BB
:101C90000E014FF6FF7303EA022319438183704755
:101CA0000A460021018C4FF6FD731940114301844F
:101CB00070470A460021018C4FF6F7731940114313
:101CC000018470470A460021018C4FF6DF731940EA
:101CD0004FF6FF7303EA02131943018470470A4663
:101CE0000021018C4FF67F7319404FF6FF7303EA12
:101CF00002131943018470470A460021018C4FF6F4
:101D0000FF5319404FF6FF7303EA0223194301847E
:101D100070470A460021018C4FF2FF7319404FF6BD
:101D2000FF7303EA02231943018470470A46002126
:101D3000018C4DF6FF7319404FF6FF7303EA02332F
:101D400019430184704730B5002301248C40A3B2AD
:101D5000048C9C430484048C02FA01F5ADB22C433C
:101D6000048430BD30B5002304248C40A3B2048C1D
:101D70009C430484048C02FA01F5ADB22C43048424
:101D800030BD70B5034600200024184618300125E8
:101D90008D40ACB21D8CA5431D8409B1082909D121
:101DA00000EB6100056825F07005056005681543C6
:101DB00005600EE00D1FC5F34E052844056825F4A7
:101DC000E045056005684FF6FF7606EA02263543D2
:101DD000056070BD21B1028842F00202028004E079
:101DE00002884FF6FD731A400280704721B10288C5
:101DF00042F00402028004E002884FF6FB731A40AE
:101E00000280704721B1828842F08002828004E023
:101E100082884FF67F731A408280704702884FF69F
:101E2000F7731A40028002880A4302807047828852
:101E30004FF68F731A40828082880A4382807047EF
:101E400002894FF6F8731A40028102890A4302811F
:101E5000704702894FF67F731A40028102890A4354
:101E60000281704781847047818570478186704701
:101E70000187704781877047A0F84010704702883B
:101E80004FF6FF431A40028002880A4302807047DF
:101E90000146888E70470146088F70470146888F3B
:101EA00070470146B1F8400070470146888C704782
:101EB0000146088D704702460020138A0B400BB183
:101EC000012000E000207047CA430282704730B50D
:101ED0000246002000230024158A05EA01039589A3
:101EE00005EA010413B10CB1012000E0002030BD6F
:101EF000CA4302827047000010B50446FB48844282
:101F000009D101218803FFF79FF800214FF4804099
:101F1000FFF79AF832E0F648844209D101214804DB
:101F2000FFF79FF800214FF40030FFF79AF825E003
:101F3000F048844209D101218804FFF792F800217A
:101F40004FF48020FFF78DF818E0EB48844209D168
:101F50000121C804FFF785F800214FF40020FFF7A6
:101F600080F80BE0E548844208D101210805FFF71D
:101F700078F800214FF48010FFF773F810BD2DE9B9
:101F8000F04786B005460E460024A24600BFA14693
:101F90000027B08900B100BF2F462C8A4CF6FF7095
:101FA0000440F08804432C82AC894EF6F3100440C0
:101FB000B08831890843718908430443AC81AC8AF5
:101FC0004FF6FF400440B0890443AC8201A8FEF7FD
:101FD000B4FFC648874202D1DDF810A001E0DDF869
:101FE0000CA0A88900F4004040B10AEBCA0000EB45
:101FF0000A1031684900B0FBF1F807E00AEBCA00AB
:1020000000EB0A1031688900B0FBF1F86420B8FBDE
:10201000F0F004012009642101FB1089A88900F473
:10202000004040B1322000EBC900B0FBF1F000F0FD
:102030000700044308E0322000EB09106421B0FBE4
:10204000F1F000F00F0004432C8106B0BDE8F087EA
:102050004FF41651016000218180C18001810C2163
:10206000418100218181704710B502460020108A0D
:102070004FF2FF0318400B884C8823438C8823437E
:10208000CC8823431843108210BD00210180418079
:102090008180C180704721B1828942F400528281DF
:1020A00004E082894DF6FF731A4082817047F0B5D3
:1020B0000346002400260025002040F66A17B94296
:1020C00000D100BF1846C1F3421401F01F060127DA
:1020D00007FA06F5012C01D10C3004E0022C01D1E5
:1020E000103000E014301AB107682F43076002E097
:1020F0000768AF430760F0BD1AB1838A0B43838240
:1021000002E0838A8B4383827047028A4FF6F07322
:102110001A400282028A0A430282704782894FF281
:10212000FF731A40828182890A438281704721B1FC
:10213000828942F00202828104E082894FF6FD73B7
:102140001A4082817047028A4FF6DF731A4002827A
:10215000028A0A430282704721B1028A42F4804215
:10216000028204E0028A4BF6FF731A400282704733
:10217000C1F308028280704701468888C0F30800D6
:102180007047818941F0010181817047028BD2B291
:102190000283028B42EA012202837047028B02F41F
:1021A0007F420283028B0A430283704721B1828AF5
:1021B00042F02002828204E0828A4FF6DF731A40E6
:1021C0008282704721B1828A42F01002828204E04A
:1021D000828A4FF6EF731A408282704721B1828A59
:1021E00042F00802828204E0828A4FF6F7731A40B6
:1021F0008282704721B1828942F40042828103E0E9
:102200008289C2F30E028281704721B1828A42F430
:102210000062828204E0828A4FF2FF731A40828257
:102220007047828A4FF6FB731A408282828A0A4381
:102230008282704721B1828A42F00202828204E0E7
:10224000828A4FF6FD731A40828270470246002050
:10225000B1F5007F00D100BF13880B400BB1012006
:1022600000E00020704701F40072B2F5007F00D159
:1022700000BFCA430280704770B5024600240023A5
:102280000025002040F66A16B14200D100BFC1F31C
:10229000421501F01F03012606FA03F3012D02D1B6
:1022A0009689334006E0022D02D1168A334001E0C0
:1022B000968A33400C12012606FA04F4168834403C
:1022C00013B10CB1012000E0002070BD10B5002258
:1022D000002340F66A14A14200D100BF0A12012473
:1022E0009440A3B2DC43048010BD000000380140DC
:1022F0000044004000480040004C004000500040B6
:1023000010B56FF00400FEF722F92E4800682E4940
:10231000B0FBF1F02D4908700846007800EB400151
:10232000C1EBC0104FF6FF7101EAC00028490880D8
:1023300010BD0146254A12784A434FF0E0235A6106
:1023400000229A611A46126942F001021A6100BF26
:102350004FF0E022106900F001021AB100F480325F
:10236000002AF5D04FF0E022126922F001024FF06E
:10237000E0231A6100229A6170470146144A1288CC
:102380004A434FF0E0235A6100229A611A461269CB
:1023900042F001021A6100BF4FF0E022106900F024
:1023A00001021AB100F48032002AF5D04FF0E02289
:1023B000126922F001024FF0E0231A6100229A61B3
:1023C000704700000000002000127A002800002062
:1023D0002A000020014600BF704700BFBB4A128898
:1023E00002F04002002AF9D0C2B2B84B1B1D1A807D
:1023F000704710B586B00446012144F20400FEF790
:1024000009FE4FF40070ADF8140003208DF816009B
:1024100018208DF8170005A9AD48FEF73FFB4FF4D3
:102420008060ADF8140004208DF8170005A9A848B5
:10243000FEF734FB25208DF8000003208DF8010005
:102440008DF8020001208DF803006846FEF735F88C
:1024500001940020ADF80800ADF80A00ADF80C00BA
:10246000ADF810000C20ADF80E0001A99748FFF759
:1024700086FD012240F225519448FFF718FE012104
:102480009248FFF708FE06B010BD10B5044600BF25
:1024900040218E48FFF7DAFE0028F9D021468B480C
:1024A000FFF766FE10BD70B505460E46002403E03A
:1024B000285DFFF7EAFF641CB442F9DB70BD70B51C
:1024C00000250026002400BF02E000F095FA641CFD
:1024D000804800788442F8DB00207F49087070BD96
:1024E00010B57A48FFF748FE7C4908707A480078B2
:1024F00000283DD100217A48FFF720FA00217848D2
:10250000FFF7B0FC77480078012817D176480078AB
:1025100072490978884211D10020724908707349C4
:1025200008706C49087008460078401C08706B48B9
:1025300001786F48674A1278815415E0694800783D
:1025400090B96A48007878B962480078C8280BDAF0
:1025500062480178664A5F480078401C11545D4823
:102560000078401C5B49087001215D48FFF7E6F9DF
:1025700010BD10B540F225515448FFF77DFE08B15B
:10258000FFF7AEFF10BD08B55AA000680090032108
:102590006846FFF788FF08BD08B54FF4E060FDF717
:1025A00087FF35208DF8000002208DF80100002003
:1025B0008DF8020001208DF803006846FDF77DFFCD
:1025C00008BD10B586B0044601210805FEF72FFDB1
:1025D00001213020FEF71EFD0420ADF81400032079
:1025E0008DF8160004208DF8170005A94248FEF763
:1025F00055FA4FF48050ADF8140003208DF8160002
:1026000018208DF8170005A93C48FEF747FA0194F9
:102610000020ADF80800ADF80A00ADF80C00ADF8E8
:1026200010000C20ADF80E0001A93548FFF7A7FCFB
:10263000012240F225513248FFF739FD012130488F
:10264000FFF729FDFFF7A8FF06B010BD10B540F257
:1026500025512B48FFF710FE70B12948FFF78CFD7C
:10266000044621462648FFF783FD00BF4021244849
:10267000FFF7ECFD0028F9D010BD38B504461DA0C9
:102680000068009000250BE021781D48FFF770FDE1
:1026900000BF40211A48FFF7D9FD0028F9D0641C7B
:1026A00020780028F0D100250CE01DF80510144812
:1026B000FFF75EFD00BF40211148FFF7C7FD00286E
:1026C000F9D06D1C032DF0DB38BD0000003801404F
:1026D000000801403F000020410000204000002091
:1026E000000400404200002043000020440000207D
:1026F00060000020FFFFFF000014014000100140B7
:102700000050004000B587B001214FF40170FEF782
:1027100081FC4FF40040FEF7E1FB0220ADF804001D
:1027200000208DF8070001A92E48FEF7B7F92E48C2
:10273000FDF72CFF002002908DF80C008DF80D00A5
:102740004FF4602004900020059001208DF81800BF
:1027500002A92548FDF741FF01212348FDF769FF44
:102760002148FDF788FF00BF1F48FDF789FF0028BB
:10277000FAD11D48FDF78EFF00BF1B48FDF78FFF04
:102780000028FAD107B000BD10B504460723012286
:1027900021461548FDF7B9FF01211348FDF789FFD0
:1027A00000BF02211048FEF7F5F80028F9D00E48C6
:1027B000FEF712F810BD2DE9F04107460C46002542
:1027C000002608E03846FFF7DFFF05440520FFF745
:1027D000D4FD701CC6B2A642F4DBB5FBF4F080B2A7
:1027E000BDE8F08100080140002401407FB50546A6
:1027F0000C4601210220FEF71AFCADF80850ADF896
:1028000004400020ADF80A00ADF8060001A96148B7
:10281000FEF738FD012211465E48FFF7AAF81D2099
:102820008DF8000001208DF8010003208DF80200D2
:1028300001208DF803006846FDF73FFE0121554851
:10284000FFF77CF87FBD10B501215248FFF73FFB31
:10285000B0B101214F48FFF74BFB01204E490870F2
:102860004E48007860B901204C49087000204A4960
:10287000087001204A4908704A4800784A4908709F
:1028800010BD7FB505460C4601210420FEF7CFFBA5
:10289000ADF80850ADF804400020ADF80A00ADF8DE
:1028A000060001A94148FEF7EDFC012211463F4810
:1028B000FFF75FF81E208DF8000000208DF8010062
:1028C00003208DF8020001208DF803006846FDF713
:1028D000F4FD01213548FFF731F87FBD2DE9F047C0
:1028E0008EB0342101A800F064FB002401212F48A0
:1028F000FFF7EDFA002849D001212C48FFF7F8FA3C
:102900002B480068402823DC0120FFF73DFF81466B
:10291000484602F003FC824602F098FA07464FF060
:102920006632244B01F082FF054601F0A3FC044609
:102930004FF07E51204602F005FC1F491C4A1268E8
:1029400041F822001A480068401C1949086009E053
:1029500000201749086000211448FEF7EFFF01200E
:10296000164908600120FFF70FFF8146484602F034
:10297000D5FB824602F06AFA07464FF066320D4BED
:1029800001F054FF054601F075FC04460EB0BDE8A9
:10299000F0870000000400404200002044000020B6
:1029A000410000203F00002060000020000800409F
:1029B0004800002066664A3F280100204C000020A5
:1029C00000BF011EA0F10100FBD1704708B5FDF763
:1029D000CEFC01211020FEF71DFB4FF6FF70ADF875
:1029E000000010208DF8030003208DF802006946D6
:1029F0002E48FEF753F808BD10B54FF6FF712B486F
:102A0000FEF7F9F82A48FFF7DBFF4FF6FF7127487A
:102A1000FEF7F3F82648FFF7D3FF4FF6FF71234880
:102A2000FEF7E9F810BD10B500240BE00120A0402E
:102A3000C04381B21D48FEF7E7F81E48FFF7C0FF0C
:102A4000601CC4B2082CF1DB00240BE08020204184
:102A5000C04381B21548FEF7D7F81648FFF7B0FF1C
:102A6000601CC4B2082CF1DB00240BE01120A04054
:102A7000C04381B20D48FEF7C7F80E48FFF7A0FF2C
:102A8000601CC4B2042CF1DB00240BE08820204140
:102A9000C04381B20548FEF7B7F80648FFF790FF3C
:102AA000601CC4B2042CF1DB10BD0000001001401A
:102AB000C027090080841E000FB42DE9F04786B0BE
:102AC0000446DDE916532A46DDE91271384601F065
:102AD000ADFE81468A46DDE914532A46DDE91071D0
:102AE000384601F0A3FE4A465346CDE9000102F004
:102AF000C3F8CDE90201DDE914532A46DDE912717C
:102B0000384601F093FE81468A46DDE916532A468F
:102B1000DDE91071384601F089FE4A465346CDE999
:102B2000000101F0D9FBCDE9040102A80FC884E837
:102B30000F0006B0BDE8F0075DF814FB2DE9F04F7B
:102B40009DB004468846404608EBD0714910199163
:102B5000CDF86C8001201A9002E01A98401C1A905F
:102B60001B9800EBD07149101B910129F5D1DDF8BC
:102B700068A0D3E0504601F0F2FD02460B46CDE9D5
:102B8000060100204FF0804100F012FECDE908015F
:102B900001F0B6FD834658460BEBD07149101391F6
:102BA0007B4812900026B2E0304601F0D8FDCDE916
:102BB00008011A99A1EB0A0001F0D1FD02460B466B
:102BC000CDE9040100204FF0804100F0F1FDCDE996
:102BD0000601DDE9082301F029FECDE91601404692
:102BE00002F084FA06904FF08040129902F0AAFA9F
:102BF0000590069902F0B8F9079002F027F9CDE99F
:102C00000801DDE9162301F011FECDE91401DDE92B
:102C1000140100F07FFDCDE90E01DDE9140101F0A2
:102C2000B3FA81F00041CDE9100135466AE013980E
:102C30002F1804EB05130FCBCDE90C23CDE90A01C6
:102C400004EB071003C8CDE9080104EB051003C825
:102C5000CDE90601DDE9082301F03EFB04EB051296
:102C600003C204EB0710C1688068CDE9080104EBDA
:102C70000510C1688068CDE90601DDE9082301F08F
:102C80002BFB04EB0512C2E90201DDE90A01CDE9E3
:102C9000080104EB071003C8CDE90601DDE90823AC
:102CA00001F0EAFF04EB071203C2DDE90C01CDE9F4
:102CB000080104EB0711D1E90201CDE90601DDE9C4
:102CC000082301F0D9FF04EB0712C2E902010EA8A4
:102CD0000FC8CDE90423CDE9020104EB0711D1E9C6
:102CE0000201CDE9000104EB071106A8D1E9002398
:102CF000FFF7E2FE04EB071006A991E80E10A0E82A
:102D00000E105D44A8F10100A84290DA761C1398D9
:102D1000401EB042BFF648AFAAF1010ABAF1010F56
:102D2000BFF628AFA8F102001890404608EBD0711A
:102D30004E10012525E0B54215DA04EB06130FCB42
:102D4000CDE90C23CDE90A0104EB061004EB051CC8
:102D50009CE80E10A0E80E1004EB05100AA991E8FB
:102D60000E10A0E80E10DDF8649006E0A6EB090650
:102D7000484609EBD0714FEA61094E45F6DA4E44F8
:102D80006D1C18988542D6DD1DB0BDE8F08F00009F
:102D9000D00F49402DE9F04F99B034210CA800F034
:102DA00008F94FF0000B00200B9000244FF448600E
:102DB0000A9000BF10E02E4951F8240002F046F8B6
:102DC0002C4A02EB041203C200212A4A02EB04122D
:102DD0009160D160601C84B2402CECDB402125481E
:102DE000FFF7ACFE00243DE0224800EB0410D0E9E0
:102DF0000253204800EB04102A46D0E902713846FD
:102E000001F014FD81468A461A4800EB0410D0E90F
:102E10000053184800EB0411D1E900712A463846E6
:102E200001F004FD4A465346CDE9000101F054FA91
:102E3000CDE9020101F0F8F900224FF08043CDE91D
:102E4000040101F0F3FC00220B4BCDE9060101F077
:102E5000FFFACDE9080101F00DFA084941F8240014
:102E6000601C84B2202CBFDB19B0BDE8F08F0000DD
:102E700028010020280300200000504028020020E4
:102E80002DE9F04F93B0342106A800F092F84FF0EE
:102E9000000900260020059000270490039080463A
:102EA000029000240FE0204602F020F982464146BD
:102EB00001F0F8FF80463A4850F82410029801F0DB
:102EC000F1FF0290641C1F2CEDD14FF0844140466D
:102ED00002F04AF804904FF08441029802F044F85E
:102EE000039000252EE0204602F000F9009004999E
:102EF00002F0FEF98346204602F0F8F800900499AB
:102F000002F0F6F95946019002F01CF98246059943
:102F100001F0C8FF0590224951F82400039902F0FE
:102F2000E7F983461E4951F82400039902F0E0F9BD
:102F30005946019002F006F98246394601F0B2FF87
:102F400007466D1C1F2DCED13846059902F00CF8AE
:102F500006463046049902F0F5F88246039902F0DD
:102F6000BDF981460F4806600F48C0F8009013B0C5
:102F7000BDE8F08F00B58DB03421684600F019F837
:102F8000074A5168106802F0B3F9084908604FF425
:102F9000FA70FFF7F2F9FFF773FF0DB000BD70474D
:102FA00028020020580000205C000020540000206F
:102FB00070474FF0000200B51346944696462039FC
:102FC00022BFA0E80C50A0E80C50B1F12001BFF4E2
:102FD000F7AF090728BFA0E80C5048BF0CC05DF848
:102FE00004EB890028BF40F8042B08BF704748BF96
:102FF00020F8022B11F0804F18BF00F8012B70470A
:10300000704770477047704710B500F009F80068C6
:1030100010BD10B5044600F003F8046010BD0000B8
:103020000048704728080020004870472808002002
:103030007546FFF7F9FFAE4605006946534620F096
:103040000700854618B020B5FDF720FABDE82040FE
:103050004FF000064FF000074FF000084FF0000B54
:1030600021F00701AC46ACE8C009ACE8C009ACE807
:10307000C009ACE8C0098D46704710B50446AFF3EF
:1030800000802046BDE81040FDF799B8490050EA9D
:10309000C12018BF04204A0D18BF40F0010040F2C3
:1030A000FF72B2EB515F08BF40F00200012808BF79
:1030B000052070472DE9F74F144694B00021C4E96C
:1030C00002111599079121F00045C9498D4206DC8E
:1030D0001599C4E9000117B00020BDE8F08FC5497B
:1030E000DFF814A3A9423CDD0799C44E0029C44F60
:1030F000C44A1599534619DD01F0BEFD554506D069
:10310000C14AC24B01F0B8FDC4E900010AE04FF02A
:10311000D352BE4B01F0B0FD32463B4601F0ACFD50
:10312000C4E9000117B00120BDE8F08F01F0D4F828
:10313000554506D0B44AB54B01F0CEF8C4E90001BC
:103140000AE04FF0D352B14B01F0C6F832463B468D
:1031500001F0C2F8C4E9000117B04FF0FF30BDE83C
:10316000F08FAB49A942159978DB21F000418346E5
:103170008846A84AA84B01F059FB0022A74B01F052
:10318000ABF801F0BDFA099001F0E9FA06460F46E6
:103190009C4A534601F04AFB43465A4601F07AFCEA
:1031A00080468A46984A994B3046394601F03EFBA4
:1031B0002A0D01250B924246534601F06BFC032D6C
:1031C000C4E9000139D00B98C1F30A51401A05EB4C
:1031D00045111139814230DA9148C346784400EBF9
:1031E0000510CDF80CA00C90D0E9002330463946EC
:1031F00001F01CFB02460B460491069058460399C9
:1032000001F03AFD80468A4602460B46584603992D
:1032100001F032FD049B069A01F02EFD83460C98C6
:1032200003913946D0E90223304601F0FFFA5A46AD
:10323000039B01F021FD6D1CBDE707980028A2BF8C
:10324000099817B0BDE8F08F616881F000416160B6
:10325000099817B04042BDE8F08FFFE78446159803
:10326000C1F31301C0F30A50A0F2F5304FEA601821
:1032700000F01F06C6F12000139000200690079072
:1032800041F4801E05206D4676B1664A08EB0001C8
:103290007A4452F8213002EB8101B3404A68139915
:1032A00022FA01F1194305E05F4908EB0002794475
:1032B00051F82210A1FB0E27A1FB0C131A449A42CD
:1032C00034BF0123002303EB070A05EB8003D3E996
:1032D00001B70F448F4234BF0121002193448B4436
:1032E00011B1934502D903E0934501D2012100E0D9
:1032F0000021C3E901B7514445F82010011EA0F197
:103300000100C1DC0298059F00F10050800F12906F
:103310000298DDE90356800001F021FA8346284631
:103320000D9101F033FA6FF01D0202F088F8CDE93B
:103330000E01304601F02AFA6FF03D0202F07FF8EC
:1033400080468A46384601F021FA6FF05D0202F0AD
:1033500076F8074642465346119100F0BDFFDDE97D
:103360000E2300F0B9FF5A460D9B00F0B5FF002573
:103370000E465A4628460D9B01F07EFCDDE90E23E1
:1033800001F07AFC4246534601F076FC3A46119B26
:1033900001F080FBDFF898A0244A534601F046FA7A
:1033A00007468846234A244B3146284601F03EFA18
:1033B0003A46434600F090FF074688464FF0A84241
:1033C00053463146284601F031FA3A46434600F06A
:1033D00083FF159A12F0004F04D0129A81F0004139
:1033E00052421292C4E90001129817B0BDE8F08F62
:1033F000FB21E93F7CD90240FB21F93F7370032E8A
:103400008A19A33B000040543163621A61B4D03D75
:10341000FB21394183C8C96D305FE43F0000E03FC4
:10342000B02300002C2300000E230000182D44546C
:10343000FB21F93D3326A611460B113C2DE9FF4D2A
:1034400021F0004807460C46B8F1795F08DA01F030
:1034500057F9002801BF0020324904B0BDE8F08DC3
:103460003A4623461046194601F0E0F90546024661
:103470002D480E460B460621784400F05DF82A469A
:10348000334601F0D3F9DDE9022382468B46384604
:10349000214601F0CBF904460F4652465B462846CA
:1034A000314601F0C3F922463B4601F0E5FB0746F1
:1034B0008A464FF0FF322846314601F0C0FF1B4AD2
:1034C00090450ADA3A46534601F0D6FB04B0002292
:1034D000BDE8F04D134B01F0DDBA154A4245A8BFD7
:1034E000A8F500154FF00004B8BF124D22462B4638
:1034F00001F0C2FB0646884622462B4600200949B9
:1035000001F0BAFB04460D463A4653463046414662
:1035100001F0B2FB04B022462B46BDE8F04D01F0AD
:10352000B9BA00000000F03FDC2000003333D33F85
:103530000000E93F0000D23F2DE9F0414F1E00EBB3
:10354000C7010446D1E9000115461E4637F00602C0
:103550000DD02A46334601F069F97F1E04EBC703FC
:10356000D3E9002300F0B8FE37F00602F1D1022FB4
:1035700025D0042F13D0062F18BFBDE8F0812A46AE
:10358000334601F053F9D4E90A2300F0A5FE2A4698
:10359000334601F04BF9D4E9082300F09DFE2A469A
:1035A000334601F043F9D4E9062300F095FE2A469C
:1035B000334601F03BF9D4E9042300F08DFE2A469E
:1035C000334601F033F9D4E9022300F085FE2A46A0
:1035D000334601F02BF9D4E90023BDE8F04100F0B7
:1035E0007BBE00002DE9FF4D054621F0004084B070
:1035F0000C46B0F1795F0BDA2846FFF747FD042847
:1036000008BF00F07FF8284608B02146BDE8F08DDD
:103610002A460B46104601F009F906460F462A468F
:10362000234601F003F9804626488A4632463B4647
:1036300005217844FFF780FF83461098029160B31C
:10364000214A224B4046514601F0F0F8CDE90001F5
:103650005A4640465146029B01F0E8F882468846A9
:10366000DDE906014FF0FF3201F0E9FE5246434624
:1036700001F002FB32463B4601F0D8F8DDE90623B3
:1036800001F0FAFADDE9002301F0F6FA08B02A4663
:103690002346BDE8F04D01F0FDB90B465A463046D1
:1036A000394601F0C3F8084A084B00F015FE4246BF
:1036B000534601F0BBF808B02A462346BDE8F04D5A
:1036C00000F00ABE22200000495555555555C5BF8A
:1036D000002213461046014900F0BABE0000F03F38
:1036E000012201F0ACBE00F0F7BD002213461046E7
:1036F000114600F0ADBE40F2013200204FF0E04133
:1037000001F09DBE024A0020110701F098BE0000A2
:1037100001FDFFFF00B5244B21F0004287B09A4223
:10372000DCBF0022134629DD204B9A4208D140B964
:103730004FF00100FFF76DFCFFF7D7FF07B000BDAA
:1037400003DBFFF7CDFF07B000BD02AAFFF7B2FC15
:1037500010F0030104BF0DF1080C9CE80F000DD020
:10376000012001290ED0022914D00DF1080C00907F
:103770009CE80F00FFF736FF07B000BDFFF75EFEC5
:1037800007B000BD0DF1080C00909CE80F00FFF79A
:1037900029FF05E00DF1080C9CE80F00FFF74EFE35
:1037A00007B081F0004100BDFB21E93F0000F07F40
:1037B0002DE9F04D1D460C4698B0174621F000410A
:1037C00023F00043002814BF4FF0010C4FF0000C11
:1037D0000CEB440CFE4A0CEB02064FEA620C664509
:1037E0002BD33E0018BF012606EB45061644F94AC6
:1037F000964222D3F84A53EA070C02D0944205D1EC
:1038000048B918B000201146BDE8F08D002808BF67
:103810004FF0000C01D04FF0010C0CEB440212F5FC
:10382000001F0AD8002F14BF4FF0010C4FF0000CFE
:103830000CEB450212F5001F07D918B03A462B468B
:103840002146BDE8F04DFFF74EBF0022DFF88CA304
:10385000002CB8BF534526DADFF884C36345A8BF00
:10386000022220DADFF870C39C451CDCDFF874C349
:103870000CEB235CBCF1140F08DDCCF1340627FA05
:1038800006FC0CFA06F6BE420DD108E05FB9CCF199
:10389000140623FA06FC0CFA06F69E4203D10CF03D
:1038A0000102C2F1020251EA000C19D1002D17DA0F
:1038B000002C18BF022A01D0012A07D00220FFF7EE
:1038C000A8FB18B0BDE8F04DFFF702BF0220FFF7DC
:1038D000A0FBFFF7FDFE18B081F00041BDE8F08DC0
:1038E000B7F1000C6CD1534525D104F1804212F59B
:1038F000801201BF00280020B74918B008BFBDE8FA
:10390000F08DB548884207DC002DA1BF60462946EE
:1039100018B0BDE8F08D07E0281E05DA80F0004100
:1039200018B06046BDE8F08DAF497944D1E9000197
:1039300018B0BDE8F08DDFF8A0C2634525D1002D99
:103940001FDA19B1514512D1D8B909E0002840F069
:10395000EC82A24A214618B062F31E01BDE8F08D48
:103960000020214618B060F31E01BDE8F08D08DA92
:1039700018B02346BDE8F04D02460020614600F035
:1039800067BD18B02146BDE8F08D514518DAB5F194
:10399000804F0DD0A5F1005CBCF1FF5C10D1B4F1FB
:1039A000000C0DDB18B06146BDE8F04D00F03CBCEA
:1039B000234618B00246BDE8F04D194600F036BF68
:1039C000060024F0004C3BD1D9B1514533D1002C35
:1039D00006DD002DA1BF0020514618B0BDE8F08DD6
:1039E000002C01DD002D1BDB002C13DA002D11DB78
:1039F000012A4FF0000014BF78497C4918B0BDE897
:103A0000F08D022A18BF002C0AD0012A08D1002C00
:103A100006DA0AE0002CB8BF002D11DA012A04D022
:103A2000002018B00146BDE8F08D18B000204FF01E
:103A30000041BDE8F08DA1F14050B0F17F601AD097
:103A4000012000EBE47050EA020421D0624C521EC7
:103A50004FF0000B104304BF4FF0000B644C65485F
:103A600083427CDD644A654893421FDD884217DB50
:103A7000002D25DB37E0002C00DA4AB1022A0CBF0A
:103A800001204FF0FF3018B0BDE8F04D00F067BEE8
:103A90000120FFF7BEFA18B0BDE8F04DFFF725BED4
:103AA0004D4A8A4202DC002D0ADC1CE0814202DA27
:103AB000002D18DA04E0484B994220DD002D12DD7C
:103AC0000220FFF7A6FAFFF716FE05460E46002273
:103AD00053465846214600F0A9FE18B066F31E0171
:103AE0002846BDE8F08D0220FFF793FAFFF70AFEA3
:103AF0000A46214618B062F31E01BDE8F08D00228F
:103B00003046614601F0B8F880460E466FF001027B
:103B100001F095FC4FF05532394B00F0BBFF4246A7
:103B2000334600F083FE0022364B00F0B3FF82469E
:103B30004246334604911046194600F077FE52463D
:103B4000049B00F073FE8A4600904FF0C0422E4B5B
:103B50004046314600F06AFE2C4A2B4B00E027E03D
:103B6000CDE906015146009800F060FE82460191C1
:103B7000274A284B4046314600F058FE5246019BEA
:103B800001F07AF882460B4602460591DDE906010E
:103B900000F0A2FBDDE9062300268846304601F04E
:103BA0006BF85246059B00F075FF024600F07EB9A7
:103BB0000020B1F5801F07DA35223046614601F05A
:103BC0003EFC06466FF0340000EB215024E000007C
:103BD000FFFF1F00FFFF0F000000F03F0000F07F1D
:103BE0000000404301FCFFFF5A1C00000000F0FFF2
:103BF0000000F0BF0000E0410000F043FFFFEF3F96
:103C00005555D53F0000E03F4715F73FFE822B6535
:103C100044DF5DF80BAE543EA0F2FF300190C1F3DB
:103C2000130040F07F6141F040510291FE4988420B
:103C3000D8BF002004DDFD498142C8BF012001DD5D
:103C40000D9008E000200D900198401C0190029812
:103C5000A0F5801002900299F54878440B910D99D7
:103C600000EBC100D0E900230F9330460A920B9974
:103C700001F002F8CDE90601DDE90A2130460F9B8B
:103C800000F02AFB02460B460020EA4900F0E0FB68
:103C9000059102460B460090DDE9060100F0C6FDE5
:103CA0001490E5488A464FF000087844029900686D
:103CB00012904FF0005040EA61010D980F9B01EB0C
:103CC000804000F5002109910A9A129800F0D4FF73
:103CD00032460B9B00F0DEFE4246534600F0A6FD46
:103CE0000646029140465146099B129A00F09EFDFD
:103CF000DDE9062300F0CEFE3246029B00F0BCFF59
:103D0000059B009A00F092FD0091149A049053468E
:103D10001046194600F08AFD06460246C7480B4683
:103D2000029106217844FFF707FCCDE90510029BBC
:103D300032461046194600F079FDDDE9053200F003
:103D400075FD05910646534640461946149A00F003
:103D5000C3FA009B049A00F069FD3246059B00F00F
:103D6000BBFACDE90510424653461046194600F00D
:103D70005DFD0022B24B02910A9000F0ADFADDE940
:103D8000053200F0A9FA0E464246AD4B404600F01F
:103D900073FF029B0A9A00F06FFFDDE9053200F025
:103DA00079FE424602910A9033461046514600F091
:103DB0003DFDCDE906015346149A02990A9800F098
:103DC00035FD8A460290334642460099049800F039
:103DD0002DFD5346029A00F07FFA82460B460246BA
:103DE0000591DDE9060100F077FADDE90623002000
:103DF0008846064600F040FF5246059B00F04AFE0A
:103E0000824609914FF060428E4B3046414600F0A9
:103E10000DFD049006918C4A8A4B5046099900F09A
:103E200005FD82460291894A894B3046414600F0A1
:103E3000FDFC5246029B00F04FFA864B7B440D9AE4
:103E400003EBC203D3E9002300F046FA0E9007917A
:103E5000019800F084FC0591DDE9061382460E9A74
:103E6000049800F039FA7C4A7A440D9B02EBC303B4
:103E7000D3E900230093029200F02EFA5246059BEC
:103E800000F02AFA0026884652463046059B00F08C
:103E9000F3FE009B029A00F0EFFE069B049A00F0EE
:103EA000EBFE079B0E9A00F0F5FD024600200B4644
:103EB00002903846294600F0B9FC824601912B4613
:103EC00038461946029A00F0D7FE3246434600F0C3
:103ED000ADFC5246019B00F0FFF907468A46324688
:103EE00043462946029800F0A1FC05460E463A4694
:103EF000534600F0F1F9594A8846914221DBA8EB7C
:103F0000020353EA000210D12A46334600F0B4FE01
:103F1000CDE90401524A534B3846514600F0DCF9D2
:103F2000DDE9042300F080FD21D20220FFF771F8C3
:103F3000FFF7E1FB0A46214618B062F31E01BDE817
:103F4000F08D494B28F000429A4210D3474A08EBC3
:103F5000020353EA00027FF4C6AD2A46334600F05E
:103F60008BFE3A46534600F05FFD7FF6BCAD002263
:103F7000019228F000403E493E4A01EB2051824226
:103F800023DA481C4FF4801121FA00F040443A4AE9
:103F9000C0F30A517A44394BA1F2FF31CB4020EAF9
:103FA0000303C0F3130040F48010C1F11401C840B2
:103FB00012680190B8F1000FBCBF40420190284642
:103FC000314600F059FE05460E462A46334638462D
:103FD000514600F081F94FF000084246284B404618
:103FE000059100F023FCCDE90601264A264B404608
:103FF000059900F01BFC009102902A46334640468A
:10400000059900F039FE3A46534600F043FD1F4A39
:104010001F4B00F00BFC009B029A00F05DF9074675
:10402000884602460B4635E08E9803007AB60B00B0
:10403000721800000000F03FDA180000D8170000E6
:104040000000084009C7EE3FFD033ADCF5015B14B0
:10405000E02F3EBEB0160000741600000000904035
:10406000FE822B654715973C00CC904000346F3F93
:1040700001FCFFFF0000E03FF0150000FFFF0F0014
:10408000432EE63F396CA80C615C20BEEF39FAFE86
:10409000422EE63FDDE9060100F01EF9DDE90623C8
:1040A00005460E4600F0E8FD3A46434600F0F2FCB5
:1040B0000F462A46334600901046194600F0B6FBDC
:1040C000824602462E4888460B4605217844FFF773
:1040D00033FA5246434600F0A9FB2A46334600F025
:1040E000D9FC80468A463B4628463146009A00F075
:1040F0009DFB3B46009A00F0EFF8069100900022ED
:104100004FF080434046514600F0B6FD0F460C90FC
:10411000424653462846314600F088FB3B460C9AFF
:1041200000F096F9069B009A00F0A6FD2A46334659
:1041300000F0A2FD0022134B00F0ACFC05460198F4
:104140000E4601EB00510815002810DC28463146C8
:10415000019A01F074F9FEF799FF042808BFFFF7F0
:10416000D1FA28463146019A01F069F905460B4615
:1041700018B02A4658462146BDE8F04D00F056BB1F
:10418000601400000000F03F00B5254B21F0004214
:1041900087B09A4203DC0022134600922BE0214BA9
:1041A0009A4208D140B94FF00100FEF732FFFFF705
:1041B0009CFA07B000BD03DBFFF792FA07B000BD21
:1041C00002AAFEF777FF10F003014FF001000DD0B7
:1041D000012914D002291AD00DF1080C9CE80F0017
:1041E000FFF72CF907B081F0004100BD0DF1080C7C
:1041F00000909CE80F00FFF7F5F907B000BD0DF146
:10420000080C9CE80F00FFF719F907B000BD0DF18D
:10421000080C00909CE80F00FFF7E4F9E2E70000CB
:10422000FB21E93F0000F07F2DE9F04106460F46F3
:1042300000F03CFC041E0D4618BF0120284320F06E
:104240000040C0F17F6000F1E040C00F0ED0301C94
:1042500018BF0120384320F00040C0F17F6000F11A
:10426000E040C00F04BF0120FEF7D3FE20462946E0
:10427000BDE8F08121F00042A2F16052B2F5801F4A
:1042800001F0004328BFD2F17F6C0BD95FEA001C1C
:1042900043EAC20242EB507018BF704728BF20F0BB
:1042A00001007047B2F5801FBCBF184670474FEA47
:1042B000410C1CF5001F02D2084601F00AB870B587
:1042C00000F05EFB00000089FFF7F6BF4FF00040F2
:1042D000A0F580007047000010B591EA030F48BFB9
:1042E00083F0004300F1D084841A71EB030C05D2F3
:1042F000121943EB0C03001B61EB0C01DFF824E106
:104300004FEA1154A4EB135C1EEA430F18BF9EEA58
:10431000445F73D023EA0E03DCF1200E21EA04513E
:1043200043F4801332D322FA0CFE10EB0E0023FA72
:104330000CFE41EB0E01CCF1200E03FA0EFE10EB49
:104340000E0051F10001B1F5801FCCF1200E32D2E8
:1043500001EB045112FA0EF2BDE8104058BF70474D
:10436000401C38BF5FEA420218BF7047002814BFE4
:1043700020F0010041F100014FEA410313F5001F55
:1043800038BF7047A1F1C04100F048BB012A43EBA0
:104390000302ACF1200CDCF11F0E32BF4FF0000E17
:1043A00023FA0CF310EB030041EB0451B4EB115F63
:1043B000D0D0A1EB045101F5801149085FEA30002B
:1043C00001EB04510ED350F1000038BF12FA0EFE7B
:1043D00008D1BDE81040C9E7401C38BF5FEA42027F
:1043E000CAD1C3E7BDE810404FEA410313F5001FEF
:1043F00038BF7047A1F1C04100F010BB9EEA445F96
:1044000008D011EA5E0FBDE8104004BF01F0004182
:1044100000207047BDE8104070B500F0B1FA00BF51
:1044200064FBBE3E0000E0FF02494FF0000000F0D8
:10443000D4BF00BF0000F87F491058BFC1F1404110
:104440005B1058BFC3F140438B42EFF300807047CD
:104450002DE9C04130B4DFF8A0C23CEA111418BF06
:104460003CEA131400F0EC8081EA03051CEA111405
:1044700044EAD57418BF1CEA131500F0C780A4EBFA
:1044800005044FF0004545EAC12145EAC32341EA4E
:10449000505143EA525304F17F74994204F50034B9
:1044A0004FEAC0204FEAC22208BF904200F09C8031
:1044B0004FEA13650FF24016765D4FEA134506FB8F
:1044C00005F7C7F1807706FB07F74FEAD737A7FB59
:1044D00003687642C8F58038A7FB06CE38BFA8F13E
:1044E000010807FB08E64FF0000EA6FB028CE6FB76
:1044F00003CEDCF1000CCEF1004E38BFAEF1010E60
:10450000A6FB0C584FF000074FF00005E6FB0E87A6
:10451000A1FB08C6A0FB07CE16EB0E0645F1000571
:10452000E1FB076515F1E04E7EBFA4F580345FEA3C
:1045300046066D4116F1800745F100054FEA172741
:104540004FEA066647EA0567A6F1DE46B6F1805FE8
:104550004FEA15251FD9384624F0010C05EBC4712C
:10456000BCF1FE6F01EB0C1102D8F0BCBDE800817C
:1045700024425CBF01F5801E9EEAC47F02D4F0BCD9
:10458000BDE80081244238D4F0BCA1F1C041BDE8AF
:10459000004100F043BA4FEAD22242EA43524FEAC6
:1045A000D323A7FB02864FEAD02040EA415007FB05
:1045B00003661EEA0E0F4FEAD12105FB026658BFC3
:1045C000A6EB0056B6EB00564FEA520E4EEAC37EFB
:1045D00018EB0E0E56EB530EBDD518EB02085E41DC
:1045E0007F1C55F10005B6E74FF480154FF000072A
:1045F0004FF000064FF00008ADE7F0BC4FF00000B0
:1046000001F1C04101F00041BDE8008111EA0C1F39
:104610000CEA131500D00CE013EA0C1F00F0258003
:104620004FF00000F0BC81EA030101F00041BDE859
:104630000081F0BCBDE8004181EA030100F0EEB961
:10464000F0BCBDE8004170B500F09AF9097EFC3E6F
:1046500000F007B881EA03014FF0000001F00041CB
:10466000704781EA030100F0D9B9F0BCBDE8004110
:104670004FF0000021497047FFFDFBF9F7F5F4F218
:10468000F0EEEDEBE9E8E6E4E3E1E0DEDDDBDAD8ED
:10469000D7D5D4D3D1D0CFCDCCCBCAC8C7C6C5C44B
:1046A000C2C1C0BFBEBDBCBBBAB9B8B7B6B5B4B362
:1046B000B2B1B0AFAEADACABAAA9A8A8A7A6A5A44D
:1046C000A3A3A2A1A09F9F9E9D9C9C9B9A99999811
:1046D0009797969595949393929191908F8F8E8EB4
:1046E0008D8C8C8B8B8A8989888887878685858441
:1046F00084838382828181800000FF070000F87F2D
:104700004FEA41034FEA5353A3F58063D3F11E03ED
:10471000C8BFD3F1210C0CDD4FF0004242EAC122A8
:1047200042EA505232FA03FC8CEAE17CACEBE170D5
:104730007047102BC4BF0020704703F5787CBCF194
:10474000FF3F04D06FF0004282EA2100704770B54D
:1047500000F016F94992248000207047F2E710F02B
:10476000004248BF4042B0FA80F310FA03F10AD089
:10477000C3F11D0303F580634FEA415002EB03527E
:1047800002EBD12170474FF000007047B0FA80F380
:1047900010FA03F10AD0C3F11D0303F580634FEA59
:1047A00041504FEA035202EBD12170474FF0000015
:1047B0007047000051EA030C17D41CF5801F58BF46
:1047C000BCF5801F00F10680994218BF704708BFF2
:1047D0009042704707D711F5801F58BF13F5801F0F
:1047E00019D499427047894270471CF5801F08D53B
:1047F000BCF5801FF7D58B4218BF704708BF8242B7
:1048000070474FF4001C1CEB410F38BF1CEB430FEB
:1048100001D28B42704770B500F0B2F89224490083
:104820004FF000514FF08053FFF706BEDFF848C14C
:1048300070B51CEA111E1EBF1CEA13159EEA0C0F70
:1048400095EA0C0F00F06F8081EA030423EA4C1311
:104850004EEAD47E21EA4C1141F4801143F48013D6
:10486000AE44A1FB024CA0FB0365AEF17F7E36197E
:1048700055EB0C05A1FB034C4CF10003A0FB021C03
:1048800016EB0C06654153F10003094218BF46F0D0
:10489000010613F4007F0BD14FEA03314FEA0530D4
:1048A000340341EA155140EA16506FF003020AE062
:1048B0004FEAC3214FEAC520F40241EA555140EACC
:1048C00056506FF0020202EB2E4201EB025585EAD0
:1048D000CE710AD05FEA440C18BF24F0004450F1B6
:1048E000000041F1000120EAD47040F2FE7C6245F4
:1048F00000D270BDA84214BF4FF080444FF0404436
:10490000002E08BF0024BEF1806FA8BFA1F1C041F6
:10491000BDE8704080F282804FF0000001F1C0419C
:1049200001F0004170479EEA0C0F0CEA131518BF06
:1049300095EA0C0F06D04FF0000081EA030E0EF04E
:10494000004170BD00F01CF88900013E00F007B87E
:1049500000F009B84FEA430C5FEA5C5C08D081EADA
:10496000030100F05BB84FEA410C5FEA5C5CF6D1F2
:104970004FF00000014970470000FF070000F87F7A
:104980000EF1020E2EF0030E5EF8046B364205D4D3
:10499000012A43EB030515F5001F12D8012841EB4E
:1049A000010C1CF5001F0CD80ED14FEAD17C15F577
:1049B000001F0CEB4C0C0CF1020C08BF4CEBD37C31
:1049C00004E04FF0080C01E04FEAD37C0CEB4C05FF
:1049D00026FA05F606F00706B6F1040C06D20EEB31
:1049E000860CBDE870404CF0010C6047DFE80CF02D
:1049F000090B02024FF000414FF00000A1F5002129
:104A000070BD19461046012851EB010418BFD4F5BA
:104A1000001484BF002001F0004170BD0808A0F51B
:104A200000114FEA3101704753EA010C17D41CF50D
:104A3000801F58BFBCF5801F00F106808B4218BF55
:104A4000704708BF8242704707D713F5801F58BFD1
:104A500011F5801F19D48B4270479B4270471CF59B
:104A6000801F08D5BCF5801FF7D5994218BF704745
:104A700008BF904270474FF4001C1CEB430F38BF37
:104A80001CEB410F01D2994270470FB40CBC03BC20
:104A9000FFF7C1BE91EA030F10B581F000413FF569
:104AA00023AC83F0004300F0EFB800002DE9F041A3
:104AB00001F5801CBCF5001FC0F2C3804FEA115CF9
:104AC00021EA0C510CF1FD0C41F480115FEA5C0C01
:104AD0000CF5C07C01D3400049413DA4890241EA64
:104AE000905187028E0E0A0CA45D04FB04F602FBB3
:104AF00006F6C6F14046A4FB0662F60D46EA4226DB
:104B000006FB06F4A4FB01235242C3F1404338BF25
:104B10005B1EA6FB02420024E6FB0324D20B42EA02
:104B20004446A6FB0623A1FB02E2A3FB07E4A4186C
:104B30004FF0000252F10002E3FB01426442C2F175
:104B4000404E38BFAEF1010EA6FB04234FF0000229
:104B5000E6FB0E32A2FB03464FF00004B61954F1F7
:104B60000004E2FB0264A1FB06E6A4FB07E816EBE7
:104B700008064FF0000858F10008E4FB016876428F
:104B8000C8F1405838BFA8F10108A2FB06E4A3FB16
:104B900008E52D194FF0000454F10004E2FB08541D
:104BA000A1FB05E6A7FB04E818EB06084FF000069A
:104BB00056F10006E1FB048618F1200556F10006C7
:104BC000A809A8F11B08B10908F03F08B8F10A0FBD
:104BD00040EA86601CD901EB0C51BDE8F08100BFB2
:104BE000FCF5EEE8E2DDD8D3CFCBC7C3C0BDB9B684
:104BF000B4B1AEACA9A7A5A3A19F9D9B9A98969589
:104C00009392908F8D8C8B8988878685848382810F
:104C1000A0FB006800FB01F208EB4208B8EB872814
:104C200007D5341858EB0104D5D5401C51F10001CB
:104C3000D1E7341A78EB0104CDD4401E71F10001A4
:104C4000C9E75FEA4C0C5FEA9C5C0DD105D34FF0DD
:104C5000000001F00041BDE8F081BDE8F04170B511
:104C6000FFF78EFE6DDBFFBEBDE8F0414FF00000A8
:104C7000004970470000F87F10B591EA030F48BF64
:104C800083F000433FF530AB841A71EB030C07D27D
:104C900012198CF0004C43EB0C03001B61EB0C0170
:104CA000DFF8A4E14FEA1154A4EB135C1EEA430FB2
:104CB00018BF9EEA445F00F0B08023EA6E035242C0
:104CC00021EA0451C3EB6E0338BF5B1EDCF1200EFA
:104CD00025D322FA0CFE10EB0E0043FA0CFE41EB3A
:104CE0000E01CCF1200E03FA0EFE10EB0E0051F176
:104CF0000001CCF1200E29D412FA0EF201EB04517E
:104D0000BDE8104058BF7047401C1CBFB2F1004FB7
:104D1000704700280CBF491C20F00100704712EBBF
:104D2000020E43EB030218BF4FF0010E4EEA42029F
:104D3000ACF1200CDCF11E0E54D943FA0CFE10EB42
:104D40000E0051F1FF31CCF11E0ED5D50EF1010E42
:104D500012FA0EFE404141EB010101EB445C5FEAB7
:104D60005C5C10D910EBDE7001EB045138BFBEF172
:104D7000004FBDE8104018BF704700280CBF491C09
:104D800020F00100704730D24FEAD42C11F5001109
:104D900024F400641BD0B1FA81F20B3AA41AA41EC9
:104DA000D2F12003914030FA03F31943904001EB14
:104DB000CC71002C01EB0451BDE81040A8BF704736
:104DC00001F1C0414FF0000001F000417047B0FA1E
:104DD00080F310FA03F100D110BDE41A173C480526
:104DE000C90AE4E701EB045110BD491001EB04517D
:104DF000BDE810404FEA300002E04FF0000170477C
:104E00004A0008BF0042F8D0B2F5001F28BF704723
:104E100001F000414FF0000070479EEA445F07D068
:104E200011EA5E0FBDE8104004BF0021002070476A
:104E3000BDE8104070B5FFF7A3FD00BF40DFF63EB0
:104E400083F00041104670470000E0FF43004FEA46
:104E5000D30C4FEA3C0C43401FBF40070CF160519C
:104E600013F0FE4F70471CF0006F03D100200CF0D0
:104E7000004170470CF0004343EA507010B540EA1F
:104E8000CC0000F0E0F900BF000000924FEA000102
:104E9000FFF7C4BD4FF000414FF00000A1F5002125
:104EA0007047000090EA010F48BF81F0004100F117
:104EB0002682421A3CBF801A89184FEAD0524FF01E
:104EC0007F4C1CEA410FA2EBD15318BF9CEA026F42
:104ED00000F03B804FF0004C4CEA00204CEA0121EE
:104EE00021FA03FC10EB0C0C1ED202F1FF325FEA38
:104EF0001C2040EBC25038BF70471CF07F0F4FEAB8
:104F0000400C18BFBCF17F4F38BF7047C3F120037E
:104F1000994008BF20F00100BCF17F4F38BF7047B7
:104F2000A0F1C04000F0D5B94FEA3C00000A40EBC8
:104F3000C25028BF1CF0FF0F4FEA400CE6D018BF4C
:104F4000BCF17F4F38BF7047EAE79CEA026F05D09B
:104F500010EA5C0F08BF00F00040704710B500F089
:104F600072F900BF64FBBE3E4FF47F0C1CEAD01206
:104F70001EBF1CEAD11392EA0C0F93EA0C0F00F04B
:104F8000858090EA010F48BF42F4807240F4000C23
:104F900041F400002CF07F4120F07F4000B58142B9
:104FA000A2EB03020FF2081CACEB504EC0F1000064
:104FB0009EF800E04FEA4E0E00FB0EFC38BF4900A1
:104FC0004FEA2C1C02F5FA020CFB0EF34FEACE1E40
:104FD0004FEA112C4FEAC1210EEB635E42EB2242F5
:104FE0000EFB0CFC4FEA1C5300FB03114FEA112C83
:104FF0004FEA01310EFB0CFC4FEADC4C00FB0C11BC
:10500000C14228BF09184CEB03335DF804EB10EBE9
:10501000410143EBC250B2F57C0F38BF704729D530
:1050200012F0F00F1CBF00F1C04000F000407047CC
:10503000008182838485868788898B8C8D8E8F9171
:105040009293959697999A9C9D9FA0A2A3A5A7A895
:10505000AAACAEB0B2B3B5B7B9BCBEC0C2C5C7C9C1
:10506000CCCED1D4D7D9DCDFE2E6E9ECF0F3F7FA25
:10507000FE0000004FEA400C0CF1807CBCF17E4F3A
:1050800028BF7047B0F1C04000F023B990EA010F8B
:105090000CEAD11348BF42F48072624538BF6345C1
:1050A00007D213F47F0F16D080EA010000F0004011
:1050B000704710B500F0C7F8097EFC3E00F005B857
:1050C00080EA010000F00040704780EA010000F033
:1050D000004000F0FEB812F47F0F04BF0248704792
:1050E00080EA010000F0F5B80000C07F10F0004138
:1050F00048BF4042B0FA80F310FA03F2C3F19D03B7
:105100000BD051EAC35101EB1220530638BF704750
:1051100000F1010008BF20F001007047B0FA80F3F1
:1051200010FA03F2C3F19D030AD0D90501EB122056
:10513000530638BF704700F1010008BF20F001009E
:10514000704700004FF47F0C1CEAD0121EBF1CEA0F
:10515000D11392EA0C0F93EA0C0F00F0478090EA0B
:10516000010F48BF42F480724FF0004C4CEA00201F
:105170004CEA012102EB0302A0FB0113A2F500029D
:10518000002918BF43F001035B0028BF4FEA330337
:1051900042EB22425FEA132C4CEBC2502EBFBCEB19
:1051A000436FB2F57C0F70474FEA036CBCF1004FC0
:1051B00008BF20F00100B2F57C0F38BF70470BD557
:1051C00082F0FF0212F5803FC8BF704700F1C04077
:1051D000D8BF00F00040704700F5000C5FEA4C0CAF
:1051E00048BF7047B0F1C04000F073B890EA010FBB
:1051F0000CEAD11348BF42F48072624538BF634560
:1052000004D280EA010000F00040704710B500F0C1
:105210001AF800BF8900013E00F007B800F009B895
:105220005FEA410C5FEA1C6C08D080EA010000F0E4
:1052300050B85FEA400C5FEA1C6CF6D14FF00040BA
:10524000A0F5800070470EF1020E2EF0030E5EF8FE
:10525000044B244204D44FEA4102B2F17F4F11D8EB
:105260004FEA4003B3F17F4F0CD80ED14FEAD07C08
:10527000B2F17F4F0CEB4C0C0CF1020C08BF4CEB65
:10528000D17C04E04FF0080C01E04FEAD17C0CEB3C
:105290004C0324FA03F404F00704B4F1040C06D21E
:1052A0000EEB840CBDE810404CF0010C6047DFE8C9
:1052B0000CF0070802024FF00040A0F5800010BD7E
:1052C0000846420018BFD2F1807288BF00F000404B
:1052D00010BDFF2141EAD050C005704780F000406A
:1052E00090EA010F7FF5E5AD81F0004100F007B8CD
:1052F00090EA010F48BF81F000413FF5DAAD421A54
:1053000004D882F00042A0EB020011444FEAD052D0
:105310004FF07F4C1CEA410FA2EBD15318BF9CEA1F
:10532000026F4AD04FF0004C4CEA00204CEA0121B9
:1053300021FA03FCB0EB0C0C0FD412F0FE0F36D0A8
:105340005FEA4C001DD5001240EBC25038BF7047D9
:105350001CF03F0F18BF70470BE0A2F101025FEA9B
:105360001C2040EBC25038BF70471CF07F0F18BFA5
:105370007047C3F12003994014BF401E20F0010084
:10538000704780084FEA122308BF7047B0FA80FCCC
:10539000A2EB0C02CCF1280C60FA0CF093EA122F6D
:1053A00004BF00EBC25070474FEAC3707047130A46
:1053B0005FEADC1008BF7047F6E79CEA026F04D092
:1053C00010EA5C0F08BF0020704710B5FFF73BFFE5
:1053D00040DFF63E81F0004070470CF00F03092BD0
:1053E00008BF082000F059800A2B0BD0082B18BFEB
:1053F000704708BF1CF0400F0AD04FF000004FF07C
:10540000000170471CF0400F18BF4FF0004070477C
:105410001CF0100F08D020F0704300F07F4242EAE9
:10542000D3014FEA4370704700F0604021F07F42A3
:1054300042EA000201F07F4040EA727070474FF08C
:10544000FF0C4CF4E06C1CEA11531CBF9CEA030CEB
:105450009445C2BFDA4201EB02517047002B0DD0D8
:10546000BCF1000F0FD0002A01F00041A4BF41F0B1
:10547000E04141F07F614FF00000704701F00041D2
:105480004FF00000704750EA01334FF09B0C18BFFB
:105490004CF0806C7EF4C8AF70471CF4801F11D0B4
:1054A0001CF4E02F03D06FEACC31490070474FF075
:1054B0004050EFF3008222F0704242EA000282F391
:1054C000008870474FF000007047000000000000A7
:1054D000000000000000F03F000000000000F83F66
:1054E00000000000000000000000004003B8E23FA0
:1054F000000000000000000006D0CF43EBFD4C3E52
:10550000033333333333E33FFFAB6FDBB66DDB3F46
:105510004D268F515555D53F01411DA96074D13F8E
:1055200065DBC9934A86CD3FEF4E454A287ECA3F88
:105530003E5555555555C53F93BDBE166CC166BF0A
:105540002CDE25AF6A56113FF16BD2C541BDBBBE03
:10555000D0A4BE726937663E4C5555555555A53F8A
:105560007751C1166CC156BF9015CB19A001FA3EF8
:10557000AD529C804F7E92BEC4B1B4BD9EEE213E22
:10558000D43888BEE9FAA8BD000000000000000081
:1055900000004054FB21F93F3163621A61B4D03DF1
:1055A0000000601A61B4D03D7370032E8A19A33BCA
:1055B0000000002E8A19A33BC14920259A837B391C
:1055C00000000000000000006E83F9A22915444E7F
:1055D000D15727FCC0DD34F5999562DB4190433CFF
:1055E000AB6351FE61C5BBDE3A6E24B7E0D24D42DB
:1055F000EA2E49061C92D1091CEB1DFE3EA729B1DB
:10560000F53582E88444BB2E26709CE9417E5FB468
:1056100039D69139F43953838B5F849C3B28F9BD8B
:10562000FF97F81F0F9805DE8B112FEF1F6D0A5A99
:10563000CF7E366DB709CB27663F464F2DEA5F9E7A
:10564000C7BA27757BF1E5EBF739073DEA92528A35
:10565000B15FFB6B085D8D1FA6F810111111813F22
:10566000D561C119A0012ABF7DFEB157E31DC73E18
:10567000EB9C2B8AE6E55ABE7CD5CF5A3AD9E53D5C
:10568000A056000800000020600000006C01000827
:105690000057000860000020280E00008801000864
:1056A00000A24A0400000000000000000102030400
:1056B00006070809000000000102030401020304B8
:1056C00006070809020406080000000000000000A8
:1056D000FFFFFFFFFFFF01000000000000000000CF
:1056E00000000001010000000000000000000000B8
:1056F00000000000000000000000000000000000AA
:0400000508000131BD
:00000001FF
