:020000040800F2
:10000000801B0020210500082503000827030008A5
:100010002B0300082F030008330300080000000032
:10002000000000000000000000000000370300088E
:1000300039030008000000003B0300083D030008EE
:100040003B0500083B0500083B0500083B05000890
:100050003B0500083B0500083B0500083B05000880
:100060003B0500083B0500083B0500083B05000870
:100070003B0500083B0500083B0500083B05000860
:100080003B0500083B0500083B0500083B05000850
:100090003B0500083B0500083B0500083B05000840
:1000A0003B0500083B0500083B0500083B05000830
:1000B0003B050008872E00081D2F00083B0500089F
:1000C0003B0500083B0500083B0500083B05000810
:1000D0003B050008232600083B0500083B050008F7
:1000E0003B0500083B0500083B0500083B050008F0
:1000F0003B0500083B0500083B0500083B050008E0
:100100003B0500083B0500083B0500083B050008CF
:100110003B050008FD2600083B0500083B050008DC
:100120003B0500083B0500083B0500083B050008AF
:1001300000F002F800F04AF80AA090E8000C8244AF
:100140008344AAF10107DA4501D100F03FF8AFF28C
:10015000090EBAE80F0013F0010F18BFFB1A43F0A5
:1001600001031847A86D0000C86D0000103A24BFB5
:1001700078C878C1FAD8520724BF30C830C144BF0C
:1001800004680C607047000000230024002500264E
:10019000103A28BF78C1FBD8520728BF30C148BFEA
:1001A0000B607047662906F01585642903F03E83CD
:1001B000002070471FB503F0B9FE040000200021A5
:1001C00005F0EAFCE0601FBD10B510BD03F0B2FF02
:1001D0001146FFF7EFFF00F031F803F0D0FF03B452
:1001E000FFF7F2FF03BC02F04DF9000038B50446FA
:1001F00040A00068009000250BE021783E4802F006
:100200000FF800BF40213C4802F078F80028F9D0F0
:10021000641C20780028F0D100250CE01DF80510A2
:10022000354801F0FDFF00BF4021334802F066F879
:100230000028F9D06D1C032DF0DB38BD8EB03421C1
:1002400001A803F0B6FB00BF02F0B2F802F07AFD9D
:1002500002F0A0FE4FF4A06000F082F94FF4965037
:1002600002F01FF94FF4965002F003FA41F61F41D5
:1002700040F2F31002F0DAFD9521084602F021FE6B
:1002800003F086F91DA0FFF7B1FF32E04FF47A705A
:1002900002F0CBF81D480068012823D1002413E0A8
:1002A0001B4951F8240006F0A7FA05462A460B46DA
:1002B00018A101A803F0A6FA01A8FFF797FF4FF4D1
:1002C000FA7002F0B2F8641C402CE9DD03F046F845
:1002D00000200E490860114908600121104801F012
:1002E00085FB00BF00BF4021034802F007F800284B
:1002F000F9D0CBE7FFFFFF0000500040696E697442
:1003000069616C204F4B0D0A000000004C0000207A
:100310001C010020252E32660D0A00004800002036
:1003200000080040704700BFFEE700BFFEE700BFC7
:10033000FEE700BFFEE77047704770477047000058
:100340000CB50020019000906C48006840F48030AB
:100350006A49086000BF6948006800F400300090F6
:100360000198401C0190009818B90198B0F5A06F51
:10037000F1D16248006800F4003010B10120009013
:1003800001E0002000900098012843D15C480068FB
:1003900040F010005A4908600846006820F0030049
:1003A00008600846006840F0020008605348406852
:1003B000524948600846406848600846406840F432
:1003C000806048600846406820F47C104860084619
:1003D000406840F4E81048600846006840F08070CB
:1003E000086000BF4548006800F000700028F9D0A0
:1003F0004248406820F00300404948600846406891
:1004000040F00200486000BF3C48406800F00C002B
:100410000828F9D10CBD10B5FFF792FF10BD10B53B
:100420003648006840F001003449086008464068DA
:10043000344908403149486008460068324908405C
:100440002E4908600846006820F4802008600846AD
:10045000406820F4FE0048604FF41F008860FFF7FA
:10046000DAFF4FF000602949086010BD10B5002187
:1004700000200022214B5B6803F00C0121B104290C
:1004800006D0082928D107E0214B224C236027E021
:100490001F4B204C236023E0184B5B6803F4701063
:1004A000164B5B6803F48032022303EB904022B9C1
:1004B000194B4343174C23600DE0104B5B6803F46A
:1004C000003323B1144B4343124C236003E0104B21
:1004D0004343104C236003E00D4B0E4C236000BFE0
:1004E00000BF064B5B68C3F303130C4CE15C094B84
:1004F0001B68CB40074C236010BD00000010024079
:10050000002002400000FFF8FFFFF6FE08ED00E0CB
:1005100000127A000000002000093D0004000020C5
:100520000948804709480047FEE7FEE7FEE7FEE787
:10053000FEE7FEE7FEE7FEE7FEE7FEE704480549C3
:10054000054A064B704700001F04000831010008EF
:1005500080150020801B00208017002080170020BD
:1005600031490143314A1160704770B500210023C1
:100570000F22C47804B32D4C246804F4E064C4F55D
:10058000E064210AC1F10403CA40447804FA03F18B
:100590008478144021430901254C0678A15504783C
:1005A00004F01F050124AC4005786D11AD0005F184
:1005B000E025C5F8004109E0047804F01F05012496
:1005C000AC401C4D0678761145F8264070BD1A4A9D
:1005D0000A400243154B1B1F1A60704739B1134A7A
:1005E000121D12680243114B1B1D1A6006E00F4AD0
:1005F000121D126882430D4B1B1D1A6070470428A0
:1006000008D14FF0E021096941F004014FF0E022E8
:10061000116107E04FF0E021096921F004014FF07A
:10062000E0221161704700000000FA050CED00E0C7
:1006300000E400E080E100E080FFFF1F10B5044609
:10064000FA48844208D10121401500F055FD0021EF
:10065000601500F051FD17E0F548844208D10121F2
:10066000001500F049FD0021201500F045FD0BE0CC
:10067000F048844208D10121C80300F03DFD00216B
:100680004FF4004000F038FD10BD30B502460020A8
:1006900000235068E84C20400D790C6844EA05249A
:1006A000204350609068E54C2040D1E902542C432F
:1006B0004D7944EA450420439060D06A20F47000EC
:1006C0000C7C641EE4B2234340EA0350D06230BD88
:1006D00000210160017141718160C16001210174DB
:1006E000704721B1826842F00102826003E08268B3
:1006F00022F001028260704721B1826842F4807268
:10070000826003E0826822F480728260704710B5D4
:100710000023CBB21AB144681C43446002E0446831
:100720009C43446010BD816841F0080181607047BE
:10073000014600208A6802F008020AB1012000E0A8
:1007400000207047816841F00401816070470146D4
:1007500000208A6802F004020AB1012000E00020B3
:10076000704721B1826842F4A002826003E082688F
:1007700022F4A00282607047014600208A6802F4D9
:1007800080020AB1012000E00020704710B50A463F
:1007900000210023416821F46041531E41EA4331A6
:1007A000416010BD21B1426842F40062426003E042
:1007B000426822F4006242607047F0B504460D467C
:1007C00000200021092D11DDE068A5F10A0606EBE5
:1007D0004607072606FA07F18843A5F10A0606EB45
:1007E000460603FA06F10843E0600CE0206905EBD9
:1007F0004507072606FA07F1884305EB450603FA85
:1008000006F108432061072A0FDA606B561E06EBDB
:1008100086071F2606FA07F18843561E06EB860652
:1008200005FA06F10843606322E00D2A0FDA206B17
:10083000D61F06EB86071F2606FA07F18843D61F48
:1008400006EB860605FA06F10843206310E0E06A2D
:10085000A2F10D0606EB86071F2606FA07F188436C
:10086000A2F10D0606EB860605FA06F10843E062E2
:10087000F0BD21B1826842F48012826003E0826898
:1008800022F48012826070470146C86C80B27047C3
:1008900066484C300068704721B1426842F480627B
:1008A000426003E0426822F480624260704721B1F6
:1008B000426842F48052426003E0426822F480526F
:1008C000426070470A460021816821F4E0411143EB
:1008D0008160704721B1826842F40042826003E087
:1008E000826822F400428260704721B1826842F43B
:1008F0000212826003E0826822F402128260704772
:10090000014600208A6802F400120AB1012000E0CA
:1009100000207047F0B5044615460020002200264E
:10092000092911DDE068A1F10A0707EB470C072749
:1009300007FA0CF29043A1F10A0707EB470703FA05
:1009400007F21043E0600CE0206901EB410C07273F
:1009500007FA0CF2904301EB410703FA07F2104348
:100960002061A06BC0F30156EF1C06F1010CA7EB50
:100970000C0707EB870C1F2707FA0CF29043EF1CBC
:1009800006F1010CA7EB0C0707EB870701FA07F24A
:100990001043A063F0BD10B50A4600210023816B0F
:1009A00021F44011531E41EA0351816310BD08B583
:1009B000002300930090009B0B440093009B1A605F
:1009C00008BD08B5024600200090009201F1280001
:1009D000009B184400900098006880B208BD0A4649
:1009E00000214168164B1940114341607047416234
:1009F000826270470A460021416821F01F011143BD
:100A00004160704740B109490831096841F400016B
:100A1000064A0832116007E004490831096821F4E8
:100A20000001024A083211607047000000240140B2
:100A300000280140003C0140FFFEF0FFFDF7F1FF00
:100A4000FFFD3FFF0246002013680B400BB1012061
:100A500000E000207047CA430260704770B502464C
:100A60000020002300240B125568CEB205EA0604CC
:100A700015681D4015B10CB1012000E0002070BDCB
:100A800000220A12D34303607047000010B50446E9
:100A9000CC48844208D10121042000F02DFB002124
:100AA000042000F029FB46E0C748844208D1012118
:100AB000082000F021FB0021082000F01DFB3AE097
:100AC000C248844208D10121102000F015FB00210A
:100AD000102000F011FB2EE0BD48844208D1012116
:100AE000202000F009FB0021202000F005FB22E07F
:100AF000B848844208D10121402000F0FDFA0021CD
:100B0000402000F0F9FA16E0B348844208D10121F0
:100B1000802000F0F1FA0021802000F0EDFA0AE0D8
:100B2000AE48844207D10121801500F0E5FA00218A
:100B3000A01500F0E1FA10BD10B50121084600F043
:100B4000DBFA0021012000F0D7FA10BD2DE9F041B9
:100B5000024600250026002000230024002791F8EB
:100B600003C00CF00F0591F803C00CF0100CBCF1A1
:100B7000000F03D091F802C04CEA050591F800C0BF
:100B8000BCF1000F31D0146800202BE04FF0010CB5
:100B90000CFA00F3B1F800C00CEA03069E4220D123
:100BA00083004FF00F0C0CFA03F7BC4305FA03FC6B
:100BB0004CEA040491F803C0BCF1280F06D14FF0B1
:100BC000010C0CFA00FCC2F814C00AE091F803C052
:100BD000BCF1480F05D14FF0010C0CFA00FCC2F833
:100BE00010C0401C0828D1D31460B1F800C0BCF17B
:100BF000FF0F34DD546800202EE000F1080C4FF0A8
:100C0000010808FA0CF3B1F800C00CEA03069E4292
:100C100021D183004FF00F0C0CFA03F7BC4305FA07
:100C200003FC4CEA040491F803C0BCF1280F05D181
:100C300000F1080C08FA0CF8C2F8148091F803C00F
:100C4000BCF1480F07D100F1080C4FF0010808FA79
:100C50000CF8C2F81080401C0828CED35460BDE8C0
:100C6000F0814FF6FF710180022181700421C17073
:100C700070470246002093680B400BB1012000E052
:100C8000002070470146886880B270470246002005
:100C9000D3680B400BB1012000E0002070470146F3
:100CA000C86880B2704701617047416170470AB1FE
:100CB000016100E041617047C16070474FF48032CC
:100CC0000A4382618161826182698269704702465A
:100CD0000020434B18684FF68073184040EA02101A
:100CE00008433F4B186070473E49C8617047F0B5F4
:100CF0000A46002300240021002500F00046B6F13A
:100D0000004F02D1364EF16901E0354E7168C0F3F3
:100D1000034583B200F44016B6F5401F08D121F018
:100D200070612F4E766826F070662D4F7E6012E05F
:100D300000F48016B6F5801F06D1032606FA05F4E6
:100D4000A14341F0706106E0460D360103FA06F654
:100D5000B14341F0706122B1460D360103FA06F647
:100D6000314300F00046B6F1004F02D11C4EF16154
:100D700001E01B4E7160F0BD30B500228B071C0FE7
:100D80000F2303FA04F2164B08338C1053F8243067
:100D90009343134C08348D1044F8253023468C10AF
:100DA00053F824308C07240F00FA04F423430C4C2E
:100DB00008348D1044F8253030BD0A49DC31086014
:100DC0007047000000080140000C01400010014085
:100DD0000014014000180140001C014000200140A7
:100DE0000000014000002042DF48006840F00100A0
:100DF000DD49086008464068DC490840DA49486037
:100E000008460068DA490840D74908600846006883
:100E100020F4802008600846406820F4FE00486006
:100E20004FF41F0088607047CF49096821F4803172
:100E3000CD4A11601146096821F480211160B0F596
:100E4000803F03D0B0F5802F0ED106E0C649096877
:100E500041F48031C44A116007E0C349096841F494
:100E6000A021C14A116000E000BF00BF704710B56B
:100E700001460022002300204A11012A02D1BA4C67
:100E8000236806E0022A02D1B74C236A01E0B64C7F
:100E9000636A01F01F02012494401C400CB1012040
:100EA00000E0002010BD38B500200090002400258F
:100EB00000BF3120FFF7DBFF05460098401C009083
:100EC0000098B0F5A06F01D0002DF2D03120FFF7CF
:100ED000CEFF08B1012400E00024204638BD0146C1
:100EE0000020A14A106820F0F80040EAC10010601C
:100EF0007047A04908607047024600209A4B586826
:100F000020F47C1042EA01031843974B5860704765
:100F100098490866704701460020934A506820F0BF
:100F200003000843506070478F48406800F00C0091
:100F30007047014600208C4A506820F0F0000843BA
:100F40005060704701460020874A506820F4E060F6
:100F500008435060704701460020834A506820F4DF
:100F6000605040EAC1005060704729B17E4A527A11
:100F700002437D4B5A7204E07B4A527A82437A4B99
:100F80005A7270477B49D83108607047014600208B
:100F9000754A506820F44040084350607047002173
:100FA000714A20321170704A82F82010012802D054
:100FB00004280AD104E001216B4A2032117005E0B7
:100FC0000521694A2032117000E000BF00BF704760
:100FD0006949086070476449096A0143624A1162BD
:100FE0007047654944390860704730B500210022D8
:100FF000002400235C4D6D6805F00C0121B104292B
:1010000005D0082923D105E05C4D056022E05B4D49
:1010100005601FE0544D6D6805F47012524D6D6807
:1010200005F48034022505EB92421CB9544D55431A
:1010300005600BE04C4D6D6805F400351DB1504D59
:101040005543056002E04D4D5543056002E04B4DB0
:10105000056000BF00BF444D6D6805F0F00109094F
:10106000484D6B5C0568DD4045603F4D6D6805F49B
:10107000E061090A434D6B5C4568DD4085603A4D8F
:101080006D6805F46051C90A3E4D6B5C4568DD40F2
:10109000C560354D6D6805F44041890B3A4D6B5C78
:1010A000C568B5FBF3F5056130BD29B12E4A52691B
:1010B00002432D4B5A6104E02B4A526982432A4B6A
:1010C0005A61704729B1284A92690243264B9A61B6
:1010D00004E0254A92698243234B9A61704729B103
:1010E000214AD2690243204BDA6104E01E4AD269E8
:1010F00082431D4BDA61704729B11B4AD268024313
:10110000194BDA6004E0184AD2688243164BDA6061
:10111000704729B1144A12690243134B1A6104E063
:10112000114A12698243104B1A61704712494039C3
:10113000086070470F49C86470470B49C871704711
:101140000948406A40F0807007494862704701468C
:101150000020054A92680A400AB1012000E0002000
:101160007047014988727047001002400000FFF884
:10117000FFFFF6FE000042428004424200127A0065
:1011800000093D00140000202400002010B5044692
:10119000FE48844208D10121C014FFF7ADFF0021B1
:1011A000E014FFF7A9FFC4E0B4F1804F08D101219A
:1011B0000846FFF7AEFF00210120FFF7AAFFB8E0C5
:1011C000F348844208D101210220FFF7A2FF002149
:1011D0000220FFF79EFFACE0EE48844208D10121D7
:1011E0000420FFF796FF00210420FFF792FFA0E004
:1011F000E948844208D101210820FFF78AFF002135
:101200000820FFF786FF94E0E448844208D10121DA
:101210001020FFF77EFF00211020FFF77AFF88E003
:10122000DF48844208D101212020FFF772FF00210E
:101230002020FFF76EFF7CE0DA48844208D10121CC
:101240004014FFF759FF00216014FFF755FF70E0CD
:10125000D548844209D10121C804FFF74DFF002180
:101260004FF40020FFF748FF63E0D048844209D1E3
:1012700001210805FFF740FF00214FF48010FFF720
:101280003BFF56E0CA48844209D101214805FFF7D7
:1012900033FF00214FF40010FFF72EFF49E0C5484F
:1012A000844208D101214020FFF733FF0021402074
:1012B000FFF72FFF3DE0C048844208D10121802084
:1012C000FFF727FF00218020FFF723FF31E0BB4815
:1012D000844208D101218015FFF71BFF0021A015D2
:1012E000FFF717FF25E0B648844209D10121080421
:1012F000FFF702FF00214FF48030FFF7FDFE18E0FA
:10130000B048844209D101214804FFF7F5FE0021CD
:101310004FF40030FFF7F0FE0BE0AB48844208D1F9
:1013200001218804FFF7E8FE00214FF48020FFF739
:10133000E3FE10BD00220288944B98420ED0994BD8
:1013400098420BD0B0F1804F08D0914B984205D015
:10135000904B984202D0904B984204D14FF68F7335
:101360001A404B881A438D4B984207D08C4B9842B9
:1013700004D04FF6FF431A40CB881A4302808B8873
:1013800083850B880385814B98420BD0854B98420F
:1013900008D08B4B984205D08A4B984202D08A4B9A
:1013A000984201D10B7A038601238382704770B57E
:1013B000002400220023058C4FF6FE76354005847C
:1013C000028C8388048B4FF68F752C40B51E2C4001
:1013D0000D882C43751E2A400D892A434D882A43C7
:1013E0006A4DA8420BD06F4DA84208D0744DA84258
:1013F00005D0744DA84202D0734DA84213D14FF6C8
:10140000F7752A404D892A434FF6FB752A408D888F
:101410002A434FF6FF652B404FF6FF552B408D8931
:101420002B43CD892B4383800483CD88858602841A
:1014300070BD70B5002400220023058C4FF6EF76B6
:1014400035400584028C8388048B48F6FF752C4058
:101450004FF6FF452C400D884FF6FF7606EA05252E
:101460002C434FF6DF752A400D8906EA05152A43FD
:101470004D8806EA05152A43444DA84202D0494D3D
:10148000A8421DD14FF67F752A404D894FF6FF7651
:1014900006EA05152A434FF6BF752A408D8806EAED
:1014A00005152A434FF6FF352B404FF2FF752B40B1
:1014B0008D8906EA85052B43CD8906EA85052B43F0
:1014C00083800483CD880587028470BD70B50024B5
:1014D00000220023058C4FF6FF6635400584028C00
:1014E0008388848B4FF68F752C404FF6FC752C400B
:1014F0000D882C434FF6FF552A400D894FF6FF7695
:1015000006EA05252A434D8806EA05252A431F4D8C
:10151000A84202D0234DA8421DD14FF2FF752A40A8
:101520004D894FF6FF7606EA05252A434FF6FF352B
:101530002A408D8806EA05252A434EF6FF752B4082
:101540004DF6FF752B408D8906EA05152B43CD8995
:1015500006EA05152B4383808483CD888587028422
:1015600070BD70B5002200230024058C4EF6FF7676
:1015700035400584038C8488828B48F6FF752A40A9
:101580004FF6FF452A400D8820E00000002C014066
:101590000004004000080040000C00400010004023
:1015A0000014004000340140004C01400050014054
:1015B0000054014000180040001C00400020004082
:1015C0000040014000440140004801404FF6FF76D2
:1015D00006EA05252A434DF6FF752B400D8906EADC
:1015E00005352B434D8806EA05352B43FA4DA842B5
:1015F00002D0FA4DA84208D14BF6FF752C408D89D8
:101600004FF6FF7606EA85152C4384808283CD88C9
:10161000A0F84050038470BD828B4FF2FF331A4014
:101620008283828B4FF6FF7303EA01231A4382837E
:101630007047F0B50C461546002200210026078CA5
:101640004EF6FF7C07EA0C070784828B018C4FF66D
:10165000FF7707EA043640F6FF473A404FF6FF7738
:1016600007EA05273A434FF6FF7707EA03373A437D
:10167000D94FB8420ED0D94FB8420BD0B0F1804FFD
:1016800008D0D74FB84205D0D64FB84202D0D64F77
:10169000B84206D14DF6FF77394046F480573943BA
:1016A00005E047F6FF57394044F4805739438283B9
:1016B0000184F0BD828B4FF6F3731A408283828BD4
:1016C0000A4382837047F0B50C461546002200217C
:1016D0000026078C4FF6FF6C07EA0C070784828B05
:1016E000018C4FF6FF7707EA04264FF60C773A4055
:1016F0004FF6FF7707EA03172F433A43B64FB84236
:101700000ED0B64FB8420BD0B0F1804F08D0B44FD6
:10171000B84205D0B34FB84202D0B34FB84206D159
:101720004FF6FF57394046F48077394305E04FF2D2
:10173000FF57394044F48077394382830184F0BDF8
:10174000028B4FF2FF331A400283028B4FF6FF7376
:1017500003EA01231A4302837047F0B50C4615468D
:10176000002200210026078C4FF6EF7C07EA0C07C9
:101770000784028B018C4FF6FF7707EA041640F6C8
:10178000FF473A404FF6FF7707EA03373A434FF6F1
:10179000FF7707EA05273A438F4FB8420ED08F4FA5
:1017A000B8420BD0B0F1804F08D08D4FB84205D071
:1017B0008C4FB84202D08C4FB84206D14FF6DF773B
:1017C000394046F01007394305E04FF65F7739405E
:1017D00044F01007394302830184F0BD028B4FF6B9
:1017E000F3731A400283028B0A4302837047F0B5F9
:1017F0000C46154600220021068C4FF6FE773E402F
:101800000684028B018C4FF60C7632407E1C06EA71
:1018100003162E433243704EB0420ED06F4EB0428C
:101820000BD0B0F1804F08D06D4EB04205D06D4E58
:10183000B04202D06C4EB04206D14FF6FD76314038
:1018400044F00106314305E04FF6F576314044F0AF
:101850000106314302830184F0BD70B505460C4694
:101860005D4885420ED05D4885420BD0B5F1804F72
:1018700008D05B48854205D05A48854202D05A4874
:10188000854200D100E000BF208850B92389A2889A
:1018900061882846FFF7ABFFE1882846FFF79EFFE7
:1018A00025E0208804280AD12389A2886188284657
:1018B000FFF753FFE1882846FFF742FF17E0208833
:1018C00008280AD12389A28861882846FFF7FBFEF1
:1018D000E1882846FFF7EEFE09E02389A2886188A7
:1018E0002846FFF7A6FEE1882846FFF795FE70BD63
:1018F0002DE9F04105460C4600260127608808B90D
:10190000022600E00026A088012801D1022700E07D
:1019100001272088A0B92389A28861882846FFF77B
:1019200066FFE1882846FFF759FF23893A4631468A
:101930002846FFF712FFE1882846FFF701FF13E072
:101940002389A28861882846FFF707FFE188284697
:10195000FFF7F6FE23893A4631462846FFF747FF50
:10196000E1882846FFF73AFFBDE8F0810A884B88F6
:101970001A438B881A43CB881A430B891A434B8925
:101980001A438B891A43A0F8442070474FF6FF7121
:10199000818000210180C180418001727047002157
:1019A000018041808180C180018141818181C1812B
:1019B0007047002101804180012181800021C18088
:1019C000018170470021018041808180C1800181B7
:1019D0004181818170470000002C014000340140AA
:1019E0000004004000080040000C004021B10288C3
:1019F00042F00102028004E002884FF6FE731A40B2
:101A00000280704731B1B0F8442042F40042A0F89F
:101A1000442005E0B0F84420C2F30E02A0F84420B0
:101A200070471AB183890B43838102E083898B431A
:101A3000838170478182704741EA0203A0F84830F1
:101A400070471AB183890B43838102E083898B43FA
:101A50008381704701894FF6F87211400181704708
:101A60000A46002101894FF68F7319401143018105
:101A7000704730B504460D4629462046FFF7F0FF73
:101A8000208940F00700208130BD2DE9F041044657
:101A90000D4616461F46602D06D13B4601223146B3
:101AA0002046FFF75AFE05E03B460122314620461C
:101AB000FFF79DFE29462046FFF7D2FF208940F020
:101AC00007002081BDE8F08130B50C460021018976
:101AD000C9B24FF6FF7505EA03251543254329438F
:101AE000018130BD2DE9F04105460E461746984666
:101AF000002443463A4631462846FFF7E5FF2C8945
:101B00004FF6F870044044F007044FF68F7004401D
:101B100044F070042C81BDE8F081F0B504460D4618
:101B200016461F463B46324629462046FFF7CCFF65
:101B3000208940F480402081F0BD01858282704779
:101B40000A46002101884FF68F7319401143018026
:101B50007047F0B50C4615461E46002100220023B2
:101B60000189028B038C4FF6F877394021434FF6F9
:101B7000FC473A4040F201173A434FF6DD773B40CD
:101B80004FF6FF7707EA06172F433B430181028395
:101B90000384F0BD0A460021018B4FF68F73194074
:101BA0001143018370470A460021018B48F6FF73F9
:101BB00019404FF6FF7303EA02231943018370476C
:101BC0000A460021818B4FF68F73194011438183A0
:101BD00070470A460021818B48F6FF7319404FF683
:101BE000FF7303EA022319438183704721B10288FE
:101BF00042F08002028004E002884FF67F731A40B0
:101C00000280704721B1828842F00402828004E0A1
:101C100082884FF6FB731A408280704721B1828818
:101C200042F00802828004E082884FF6F7731A407F
:101C30008280704721B1828842F00102828004E0F4
:101C400082884FF6FE731A40828070470A46002150
:101C5000018B4FF6F77319401143018370470A4611
:101C60000021018B4FF2FF7319404FF6FF7303EA17
:101C700002231943018370470A460021818B4FF6E6
:101C8000F77319401143818370470A460021818B05
:101C90004FF2FF7319404FF6FF7303EA0223194313
:101CA000818370470A460021018B4FF6FB73194070
:101CB0001143018370470A460021018B4FF6FF3321
:101CC00019404FF6FF7303EA02231943018370475B
:101CD0000A460021818B4FF6FB7319401143818323
:101CE00070470A460021818B4FF6FF3319404FF6AB
:101CF000FF7303EA02231943818370470A460021D8
:101D0000018B4FF67F7319401143018370470A46D8
:101D10000021018BC1F30E014FF6FF7303EA02238A
:101D20001943018370470A460021818B4FF67F7368
:101D300019401143818370470A460021818BC1F30A
:101D40000E014FF6FF7303EA0223194381837047A4
:101D50000A460021018C4FF6FD731940114301849E
:101D600070470A460021018C4FF6F7731940114362
:101D7000018470470A460021018C4FF6DF73194039
:101D80004FF6FF7303EA02131943018470470A46B2
:101D90000021018C4FF67F7319404FF6FF7303EA61
:101DA00002131943018470470A460021018C4FF643
:101DB000FF5319404FF6FF7303EA022319430184CE
:101DC00070470A460021018C4FF2FF7319404FF60D
:101DD000FF7303EA02231943018470470A46002176
:101DE000018C4DF6FF7319404FF6FF7303EA02337F
:101DF00019430184704730B5002301248C40A3B2FD
:101E0000048C9C430484048C02FA01F5ADB22C438B
:101E1000048430BD30B5002304248C40A3B2048C6C
:101E20009C430484048C02FA01F5ADB22C43048473
:101E300030BD70B503460020002418461830012537
:101E40008D40ACB21D8CA5431D8409B1082909D170
:101E500000EB6100056825F0700505600568154315
:101E600005600EE00D1FC5F34E052844056825F4F6
:101E7000E045056005684FF6FF7606EA0226354321
:101E8000056070BD21B1028842F00202028004E0C8
:101E900002884FF6FD731A400280704721B1028814
:101EA00042F00402028004E002884FF6FB731A40FD
:101EB0000280704721B1828842F08002828004E073
:101EC00082884FF67F731A408280704702884FF6EF
:101ED000F7731A40028002880A43028070478288A2
:101EE0004FF68F731A40828082880A43828070473F
:101EF00002894FF6F8731A40028102890A4302816F
:101F0000704702894FF67F731A40028102890A43A3
:101F10000281704781847047818570478186704750
:101F20000187704781877047A0F84010704702888A
:101F30004FF6FF431A40028002880A43028070472E
:101F40000146888E70470146088F70470146888F8A
:101F500070470146B1F8400070470146888C7047D1
:101F60000146088D704702460020138A0B400BB1D2
:101F7000012000E000207047CA430282704730B55C
:101F80000246002000230024158A05EA01039589F2
:101F900005EA010413B10CB1012000E0002030BDBE
:101FA000CA4302827047000010B50446FB488442D1
:101FB00009D101218803FFF79FF800214FF48040E9
:101FC000FFF79AF832E0F648844209D1012148042B
:101FD000FFF79FF800214FF40030FFF79AF825E053
:101FE000F048844209D101218804FFF792F80021CA
:101FF0004FF48020FFF78DF818E0EB48844209D1B8
:102000000121C804FFF785F800214FF40020FFF7F5
:1020100080F80BE0E548844208D101210805FFF76C
:1020200078F800214FF48010FFF773F810BD2DE908
:10203000F04786B005460E460024A24600BFA146E2
:102040000027B08900B100BF2F462C8A4CF6FF70E4
:102050000440F08804432C82AC894EF6F31004400F
:10206000B08831890843718908430443AC81AC8A44
:102070004FF6FF400440B0890443AC8201A8FEF74C
:10208000B4FFC648874202D1DDF810A001E0DDF8B8
:102090000CA0A88900F4004040B10AEBCA0000EB94
:1020A0000A1031684900B0FBF1F807E00AEBCA00FA
:1020B00000EB0A1031688900B0FBF1F86420B8FB2E
:1020C000F0F004012009642101FB1089A88900F4C3
:1020D000004040B1322000EBC900B0FBF1F000F04D
:1020E0000700044308E0322000EB09106421B0FB34
:1020F000F1F000F00F0004432C8106B0BDE8F0873A
:102100004FF41651016000218180C18001810C21B2
:10211000418100218181704710B502460020108A5C
:102120004FF2FF0318400B884C8823438C882343CD
:10213000CC8823431843108210BD002101804180C8
:102140008180C180704721B1828942F4005282812E
:1021500004E082894DF6FF731A4082817047F0B522
:102160000346002400260025002040F66A17B942E5
:1021700000D100BF1846C1F3421401F01F06012729
:1021800007FA06F5012C01D10C3004E0022C01D134
:10219000103000E014301AB107682F43076002E0E6
:1021A0000768AF430760F0BD1AB1838A0B4383828F
:1021B00002E0838A8B4383827047028A4FF6F07372
:1021C0001A400282028A0A430282704782894FF2D1
:1021D000FF731A40828182890A438281704721B14C
:1021E000828942F00202828104E082894FF6FD7307
:1021F0001A4082817047028A4FF6DF731A400282CA
:10220000028A0A430282704721B1028A42F4804264
:10221000028204E0028A4BF6FF731A400282704782
:10222000C1F308028280704701468888C0F3080025
:102230007047818941F0010181817047028BD2B2E0
:102240000283028B42EA012202837047028B02F46E
:102250007F420283028B0A430283704721B1828A44
:1022600042F02002828204E0828A4FF6DF731A4035
:102270008282704721B1828A42F01002828204E099
:10228000828A4FF6EF731A408282704721B1828AA8
:1022900042F00802828204E0828A4FF6F7731A4005
:1022A0008282704721B1828942F40042828103E038
:1022B0008289C2F30E028281704721B1828A42F480
:1022C0000062828204E0828A4FF2FF731A408282A7
:1022D0007047828A4FF6FB731A408282828A0A43D1
:1022E0008282704721B1828A42F00202828204E037
:1022F000828A4FF6FD731A408282704702460020A0
:10230000B1F5007F00D100BF13880B400BB1012055
:1023100000E00020704701F40072B2F5007F00D1A8
:1023200000BFCA430280704770B5024600240023F4
:102330000025002040F66A16B14200D100BFC1F36B
:10234000421501F01F03012606FA03F3012D02D105
:102350009689334006E0022D02D1168A334001E00F
:10236000968A33400C12012606FA04F4168834408B
:1023700013B10CB1012000E0002070BD10B50022A7
:10238000002340F66A14A14200D100BF0A120124C2
:102390009440A3B2DC43048010BD0000003801402B
:1023A0000044004000480040004C00400050004005
:1023B00010B56FF00400FEF722F92E4800682E4990
:1023C000B0FBF1F02D4908700846007800EB4001A1
:1023D000C1EBC0104FF6FF7101EAC0002849088028
:1023E00010BD0146254A12784A434FF0E0235A6156
:1023F00000229A611A46126942F001021A6100BF76
:102400004FF0E022106900F001021AB100F48032AE
:10241000002AF5D04FF0E022126922F001024FF0BD
:10242000E0231A6100229A6170470146144A12881B
:102430004A434FF0E0235A6100229A611A4612691A
:1024400042F001021A6100BF4FF0E022106900F073
:1024500001021AB100F48032002AF5D04FF0E022D8
:10246000126922F001024FF0E0231A6100229A6102
:10247000704700000000002000127A0028000020B1
:102480002A000020014600BF704700BFA74A1288FB
:1024900002F04002002AF9D0C2B2A44B1B1D1A80E0
:1024A000704710B586B00446012144F20400FEF7DF
:1024B00009FE4FF40070ADF8140003208DF81600EB
:1024C00018208DF8170005A99948FEF73FFB4FF437
:1024D0008060ADF8140004208DF8170005A9944819
:1024E000FEF734FB25208DF8000003208DF8010055
:1024F0008DF8020001208DF803006846FEF735F8DC
:1025000001940020ADF80800ADF80A00ADF80C0009
:10251000ADF810000C20ADF80E0001A98348FFF7BC
:1025200086FD012240F225518048FFF718FE012167
:102530007E48FFF708FE06B010BD10B5044600BF88
:1025400040217A48FFF7DAFE0028F9D02146774883
:10255000FFF766FE10BD70B505460E46002403E089
:10256000285DFFF7EAFF641CB442F9DB70BD70B56B
:1025700000250026002400BF02E000F021FD641CBD
:102580006C4800788442F8DB00206B49087070BD0D
:1025900010B56648FFF748FE68490870664800783D
:1025A00000283DD100216648FFF720FA0021644849
:1025B000FFF7B0FC63480078012817D16248007823
:1025C0005E490978884211D100205E4908705F4950
:1025D00008705849087008460078401C0870574831
:1025E00001785B48534A1278815415E055480078C9
:1025F00090B95648007878B94E480078C8280BDA68
:102600004E480178524A4B480078401C11544948C2
:102610000078401C4749087001214948FFF7E6F956
:1026200010BD10B540F225514048FFF77DFE08B1BE
:10263000FFF7AEFF10BD08B546A00068009003216B
:102640006846FFF788FF08BD08B54FF4E060FDF766
:1026500087FF35208DF8000002208DF80100002052
:102660008DF8020001208DF803006846FDF77DFF1C
:1026700008BD10B586B0044601210805FEF72FFD00
:1026800001213020FEF71EFD0420ADF814000320C8
:102690008DF8160004208DF8170005A92E48FEF7C6
:1026A00055FA4FF48050ADF8140003208DF8160051
:1026B00018208DF8170005A92848FEF747FA01945D
:1026C0000020ADF80800ADF80A00ADF80C00ADF838
:1026D00010000C20ADF80E0001A92148FFF7A7FC5F
:1026E000012240F225511E48FFF739FD01211C4807
:1026F000FFF729FDFFF7A8FF06B010BD10B540F2A7
:1027000025511748FFF710FE70B11548FFF78CFDF3
:10271000044621461248FFF783FD00BF40211048C0
:10272000FFF7ECFD0028F9D010BD00000038014093
:10273000000801403F000020410000204000002030
:10274000000400404200002043000020440000201C
:1027500054000020FFFFFF00001401400010014062
:10276000005000402DE9F04F4FF0000C4FF00003F7
:1027700001EB1C6EBEF90250BEF900400EF5807EE2
:10278000BEF90290BEF900800EF5807EBEF902709F
:10279000BEF900600EF5807EBEF902B0BEF900A061
:1027A0000EF5807ED044D944A8EB4A0AA9EB4B0B26
:1027B0004FEAA4044FEAA50504EBA60405EBA70520
:1027C000A4EB6606A5EB670704EBA80405EBA905D7
:1027D000A4EB6808A5EB690906EBAB06A7EBAA0713
:1027E000A6EB6B0B07EB6A0A458020F8044B478089
:1027F00020F8046BA0F8029020F8048BA0F802A047
:1028000020F804BB03F1010393FAA3FC402BAFD1E2
:10281000A0EB82014FF0100312090FF2361000F105
:10282000000006B403EB430C6144A2F5803202EBD6
:102830008332B1F90250B1F90040A1EB0301B0F9C4
:1028400002B0B0F900A000F10400A5EB040E0EFBED
:102850000BFC0AEB4B0E05FB0ACB04FB0ECAB1F9CD
:102860000250B1F90040A1EB0301B0F90290B0F9B8
:10287000008000F10400A5EB040E0EFB09FC08EB40
:10288000490E05FB08C904FB0EC8B1F90250B1F9A5
:102890000040A1EB0301B0F90270B0F9006000F153
:1028A0000400A5EB040E0EFB07FC06EB470E05FB30
:1028B00006C704FB0EC6B1F90250B1F9004001F1A0
:1028C0000001D044D944A8EB4A0AA9EB4B0B4FEACC
:1028D000A4044FEAA50504EB264405EB2745A4EB29
:1028E000E636A5EBE73704EB284405EB2945A4EBD6
:1028F000E838A5EBE93906EB2B46A7EB2A47A6EB10
:10290000EB3B07EBEA3A4D800C8019444F800E8078
:102910001944A1F80290A1F800801944A1F802A07E
:1029200021F804BBB2F5803283DA03EB430C614437
:10293000A2F101025FEA024E18BFA0EB0C007FF487
:1029400076AF06BC4FEA830392087FF46AAFBDE816
:10295000F08F0040000000400000004000005DDDFE
:10296000213BA3227E180000412D7EA5412D0000B1
:10297000412D00C000405DDD82E75DDD213B7EA58D
:10298000412D004000000040000000400000AA2A45
:1029900094126B39460649327C0CA8118E234932B9
:1029A0007C0CA3227E1821F77931AA2A9412A8114F
:1029B0008E235DDD213BA3227E180000412D95C6AC
:1029C000B13F461A2B1E58EE3735BEB4C53EA8118E
:1029D0008E235DDD213B63A97138DF089A28B7CDCE
:1029E000C53E7EA5412D0000412D00C0004063A9D9
:1029F0002B1E21F77931BEB4C53EBEB47C0C58EE17
:102A0000373561AC213B95C6BAF9BAE571383BA7B9
:102A100037355DDD82E75DDD213B7EA5412D21F768
:102A200066D756D53F3D3BA78E23A811C9CAB7CD5F
:102A3000C53E61AC7E18AA2AC1C295C6B13FBEB4DC
:102A40007C0C0040000000400000004000001E3BE5
:102A5000B504693E9201C83C2403EB356409C83CC7
:102A600024036B3946066C30060E1E3BB504EB356D
:102A70006409AA2A94126B39460649327C0CAE24AA
:102A80000917AF37D607882E8D0F7E1E5D1BEB35DD
:102A90006409AA2A941224188C1F1E34F10AB32642
:102AA0009015A8118E2349327C0CA3227E18140B9A
:102AB00060276C30060E7E1E5D1B7104FB2A882E7B
:102AC0008D0F461A2B1EC7FD5A2E9D2C1211FE1576
:102AD000E72021F77931AA2A9412A8118E2387F0D2
:102AE0005334B2281314480D202602EAE536B326E3
:102AF0009015DF089A289CE32B39AE24091771043E
:102B0000FB2A5DDD213BA3227E180000412D4ED71C
:102B1000C53C9320EF198FFB6C2F78D1153E7E1E9C
:102B20005D1B21F77931E2CB0F3F641CC61CB8F264
:102B3000683395C6B13F461A2B1E58EE373597C1FC
:102B4000FB3F24188C1F02EAE536F0BCEC3FFE1573
:102B5000E720BAE57138A6B8853FD5133D2282E15A
:102B6000DB39BEB4C53EA8118E235DDD213B40B1EB
:102B7000AF3D790FDA244DD9423C2EAE423C480D90
:102B8000202656D53F3D8EAB823A140B602778D174
:102B9000153E63A97138DF089A28B7CDC53EB1A7A5
:102BA0001236A906CE2915CA4F3F78A6683371049C
:102BB000FB2A95C6B13FBCA576303902212C38C31B
:102BC000EC3F7EA5412D0000412D00C00040BCA57A
:102BD000CE29C7FD5A2EF0BCEC3F78A620268FFBED
:102BE0006C2F09BAB13FB1A73D2257F976304DB7E6
:102BF0004F3F63A92B1E21F77931BEB4C53E8EAB82
:102C0000EF19ECF474325EB2153E2EAE9015B8F2A8
:102C100068332DB03F3D40B1121187F053342EAED2
:102C2000423CBEB47C0C58EE373561AC213BA6B8B3
:102C3000D6072BEC1236C8AADB39F0BC240302EA13
:102C4000E53663A9713897C16EFEDCE7B03734A86A
:102C5000E53695C6BAF9BAE571383BA73735E2CB08
:102C60000FF59CE32B3978A6683378D173F082E1B5
:102C7000DB39EDA579314ED7EDEB6DDF823A99A5C1
:102C80006C2F5DDD82E75DDD213B7EA5412D9CE360
:102C90003AE352DBB63B99A5FB2A02EA19DF4DD98C
:102CA000423CEDA59A2887F026DB4ED7C53C78A696
:102CB000202621F766D756D53F3D3BA78E23C7FD7B
:102CC000DFD363D3AF3D34A8E720710494D078D12B
:102CD000153E63A92B1E140B8CCD94CF723EC8AA4F
:102CE0005D1BA811C9CAB7CDC53E61AC7E182418BA
:102CF00050C8E2CB0F3F2EAE90157E1E25C615CADA
:102D00004F3F2DB09412AE244AC451C8853F5EB2E5
:102D10008D0FAA2AC1C295C6B13FBEB47C0C6C30DF
:102D20008EC1E2C4D43F4DB76409EB35B1C038C39E
:102D3000EC3F09BA46061E3B2CC097C1FB3FF0BCD6
:102D40002403000000B587B001214FF40170FEF7A5
:102D5000B9F94FF40040FEF719F90220ADF804006C
:102D600000208DF8070001A92E48FDF7EFFE2E4840
:102D7000FDF764FC002002908DF80C008DF80D002A
:102D80004FF4602004900020059001208DF8180079
:102D900002A92548FDF779FC01212348FDF7A1FC94
:102DA0002148FDF7C0FC00BF1F48FDF7C1FC00280B
:102DB000FAD11D48FDF7C6FC00BF1B48FDF7C7FC54
:102DC0000028FAD107B000BD10B504460723012240
:102DD00021461548FDF7F1FC01211348FDF7C1FC20
:102DE00000BF02211048FDF72DFE0028F9D00E4843
:102DF000FDF74AFD10BD2DE9F04107460C460025C0
:102E0000002608E03846FFF7DFFF05440520FFF7FE
:102E10000CFB701CC6B2A642F4DBB5FBF4F080B22A
:102E2000BDE8F08100080140002401407FB505465F
:102E30000C4601210220FEF752F9ADF80850ADF81A
:102E400004400020ADF80A00ADF8060001A945488D
:102E5000FEF770FA012211464248FEF7E2FD1D20FE
:102E60008DF8000001208DF8010003208DF802008C
:102E700001208DF803006846FDF777FB01213948F2
:102E8000FEF7B4FD7FBD10B501213648FFF777F896
:102E9000B0B101213348FFF783F8012032490870AF
:102EA0003248007860B901203049087000202E496E
:102EB000087001202E4908702E4800782E490870AD
:102EC00010BD7FB505460C4601210420FEF707F929
:102ED000ADF80850ADF804400020ADF80A00ADF898
:102EE000060001A92548FEF725FA012211462348CC
:102EF000FEF797FD1E208DF8000000208DF80100E0
:102F000003208DF8020001208DF803006846FDF7CC
:102F10002CFB01211948FEF769FD7FBD10B58EB06D
:102F2000342101A800F045FD002401211348FFF7DA
:102F300026F8A8B101211148FFF732F810480068BF
:102F400038B920210F48FDF7AEFE01200C4908607A
:102F500006E020210B48FDF7A8FE00200849086084
:102F60000EB010BD000400404200002044000020CC
:102F7000410000203F0000205400002000080040D5
:102F8000500000200010014000BF011EA0F1010010
:102F9000FBD1704708B5FDF742FA01211020FEF77A
:102FA00091F84FF6FF70ADF8000010208DF8030087
:102FB00003208DF8020069462E48FDF7C7FD08BDC5
:102FC00010B54FF6FF712B48FDF76DFE2A48FFF74D
:102FD000DBFF4FF6FF712748FDF767FE2648FFF736
:102FE000D3FF4FF6FF712348FDF75DFE10BD10B50E
:102FF00000240BE00120A040C04381B21D48FDF732
:103000005BFE1E48FFF7C0FF601CC4B2082CF1DB5A
:1030100000240BE080202041C04381B21548FDF719
:103020004BFE1648FFF7B0FF601CC4B2082CF1DB62
:1030300000240BE01120A040C04381B20D48FDF7F1
:103040003BFE0E48FFF7A0FF601CC4B2042CF1DB6E
:1030500000240BE088202041C04381B20548FDF7E1
:103060002BFE0648FFF790FF601CC4B2042CF1DB76
:1030700010BD000000100140C027090080841E0020
:103080000FB42DE9F04786B00446DDE916532A4611
:10309000DDE91271384603F09FF881468A46DDE982
:1030A00014532A46DDE91071384603F095F84A4674
:1030B0005346CDE9000103F0B5FACDE90201DDE99F
:1030C00014532A46DDE91271384603F085F881462B
:1030D0008A46DDE916532A46DDE91071384603F0C9
:1030E0007BF84A465346CDE9000102F09DFDCDE94B
:1030F000040102A80FC884E80F0006B0BDE8F0077D
:103100005DF814FB2DE9F04F9DB00446884640461B
:1031100008EBD07149101991CDF86C8001201A90FC
:1031200002E01A98401C1A901B9800EBD0714910CD
:103130001B910129F5D1DDF868A0D3E0504602F0DB
:10314000E4FF02460B46CDE9060100204FF0804126
:1031500001F0C0FFCDE9080102F07AFF834658462E
:103160000BEBD071491013917B4812900026B2E00E
:10317000304602F0CAFFCDE908011A99A1EB0A0016
:1031800002F0C3FF02460B46CDE9040100204FF0D8
:10319000804101F09FFFCDE90601DDE9082303F03E
:1031A0001BF8CDE91601404603F030FC06904FF0C5
:1031B0008040129903F042FC0590069903F048FB09
:1031C000079003F019FBCDE90801DDE9162303F0B0
:1031D00003F8CDE91401DDE9140101F02DFFCDE97B
:1031E0000E01DDE9140102F061FC81F00041CDE93E
:1031F000100135466AE013982F1804EB05130FCB26
:10320000CDE90C23CDE90A0104EB071003C8CDE991
:10321000080104EB051003C8CDE90601DDE9082328
:1032200002F002FD04EB051203C204EB0710C168B3
:103230008068CDE9080104EB0510C1688068CDE91C
:103240000601DDE9082302F0EFFC04EB0512C2E9F8
:103250000201DDE90A01CDE9080104EB071003C80A
:10326000CDE90601DDE9082303F0DCF904EB0712E0
:1032700003C2DDE90C01CDE9080104EB0711D1E936
:103280000201CDE90601DDE9082303F0CBF904EBE7
:103290000712C2E902010EA80FC8CDE90423CDE947
:1032A000020104EB0711D1E90201CDE9000104EBB1
:1032B000071106A8D1E90023FFF7E2FE04EB07108F
:1032C00006A991E80E10A0E80E105D44A8F10100D7
:1032D000A84290DA761C1398401EB042BFF648AF61
:1032E000AAF1010ABAF1010FBFF628AFA8F1020056
:1032F0001890404608EBD0714E10012525E0B542EC
:1033000015DA04EB06130FCBCDE90C23CDE90A0146
:1033100004EB061004EB051C9CE80E10A0E80E1050
:1033200004EB05100AA991E80E10A0E80E10DDF8D4
:10333000649006E0A6EB0906484609EBD0714FEA17
:1033400061094E45F6DA4E446D1C18988542D6DD6B
:103350001DB0BDE8F08F0000D00F49402DE9F04FBF
:1033600099B034210BA800F024FB00200A900990AA
:10337000814600244FF44860089072A0FCF736FFA5
:1033800000BF10E0754951F8240003F035FA744A83
:1033900002EB041203C20021714A02EB0412916095
:1033A000D160601C84B2402CECDB40216C48FFF7FC
:1033B000A9FE0024BFE06A4800EB0411D1E90253E2
:1033C00000EB0411D1E902712A46384602F004FFED
:1033D000CDE90201624800EB0410D0E900536048D7
:1033E00000EB0411D1E900712A46384602F0F4FEE0
:1033F000CDE90001DDE9022302F016FCCDE904016C
:1034000002F0A4FB00224FF08043CDE9060102F058
:10341000E3FE82460022534B02F0C2FC524A02EB0A
:10342000C40203C24E4800EB041100EB0410D1E9C2
:1034300002532A46D0E90271384602F0CDFECDE9AA
:103440000201474800EB041100EB0410D1E90053DE
:103450002A46D0E90071384602F0BEFECDE90001EF
:10346000DDE9022302F0E0FBCDE9040102F06EFB8E
:1034700000223C4BCDE9060102F092FC824602F0AC
:10348000A1FB8146364800EB0410D0E9002110462C
:1034900002F098FB83464FF0854103F0CFFA824655
:1034A00003F0AAF907460022304B02F079FC0546EA
:1034B00002F0FEFD0A902A4800EB0410D0E9022138
:1034C000104602F07FFB80464FF0854103F0B6FACC
:1034D000074603F091F982460022244B02F060FC7B
:1034E000054602F0E5FD099074B9484603F084F9F9
:1034F000074600221E4B02F06FFE054602F062FBFB
:103500001C4941F8240002E01A4840F82490194967
:1035100051F8240003F070F92246CDE9000116A10C
:103520000BA800F06FF90BA8FCF760FE6420FEF713
:103530007CFF601C84B2202CFFF63DAF19B0BDE8C3
:10354000F08F00002D2D2D2DD7D4D6F7CDEAB3C99D
:103550004646542D2D2D2D0D0A0000001C01002083
:103560002004002000005040200200200000E04025
:103570000000E03F20080020256454696D657373E6
:10358000204D61673A252E32660D0A0000000000CA
:103590002DE9F04F8FB0002400BF71E0204602F00B
:1035A000CBFD82467B4A7C4B02F016FE074600228A
:1035B0007A4B02F011FE05460022794B02F0F0FB37
:1035C000CDE9040102F072FA0022764BCDE9060142
:1035D00002F002FECDE90A01204602F0ADFD0746E9
:1035E0006C4A6D4B02F0F8FD054600226E4B02F06E
:1035F000F3FD00226A4BCDE9000102F0D1FBCDE9D9
:10360000020102F053FA82460022684B02F0E4FD08
:10361000CDE90601204602F08FFD82465D4A5E4BF1
:1036200002F0DAFD05460022614B02F0D5FD0022D2
:103630005B4BCDE9000102F0B3FB074602F036FA1E
:1036400000225C4BCDE9020102F0C6FDCDE9040188
:10365000DDE9062302F0E8FACDE90801DDE90A23F5
:1036600002F0E2FACDE90C0102F0ACFA81464846DC
:1036700003F0B0F90004504941F82400601C84B202
:10368000FF2C8BDD0FB0BDE8F08F2DE9F04F91B02E
:10369000342104A800F08DF948A0FCF7A7FD002410
:1036A00069E04C4830F824000FFA80FA494850F895
:1036B00024004FEA2049504603F0A8F906464FF08F
:1036C000874103F0BBF905464FF08E4103F0C0F887
:1036D0000390484603F09AF906464FF0874103F0FD
:1036E000ADF905464FF08E4103F0B2F802900AFBA7
:1036F0000AF109FB091002F008FDCDE9000102F012
:1037000025FA07460022344B02F04AFB054602F038
:1037100059FA834674B9584603F06EF805460022FC
:103720002E4B02F059FD074602F04CFA2C4941F8A5
:1037300024000DE0584603F05FF807460022294BAD
:1037400002F04AFD054602F03DFA254941F8240001
:10375000234951F8240003F04FF82246CDE9000137
:1037600021A104A800F04EF804A8FCF73FFD642056
:10377000FEF75BFE641C802C93D311B0BDE8F08F84
:1037800010B54FF480720C491248FEF7EBFFFFF7BB
:103790007CFF10BD1C2D4454FB21194000F89140C2
:1037A0000000B9400094C140003081400040CF404B
:1037B000000049400040DF40200900202D2D2D2D24
:1037C000445350CDEAB3C94646542D2D2D2D0D0A34
:1037D00000000000200D0020000070400000E03FCD
:1037E000201100200000F03F2564B4CED0B3B2A871
:1037F000B7D6C1BF3A252E32660D0A000000000080
:10380000704700000FB41CB5074B06AA7B446946FD
:103810000090059800F071FB0020694600F080FBE5
:103820001CBC5DF814FB0000110700002DE9F041FD
:103830000646002410687529314616A510D0AFF34E
:103840000080002802DA404213A507E031688A07A9
:1038500001D512A502E0490704D511A5012401E014
:10386000AFF3008000210A2206F1240709E0B0FB33
:10387000F2FCB0FBF2F302FB1C0030307854184627
:10388000491C0028F3D123462A463046BDE8F041C2
:1038900000F0C5B8000000002D0000002B00000063
:1038A000200000002DE9F0474FF0000A8946044649
:1038B000C0F820A02046E1688847002876D0252857
:1038C00006D0D4E901219047206A401C2062F1E72C
:1038D000E168204600258847C4F81CA0064600275A
:1038E000C4F818A02A2E09D0304601F09DFB38B349
:1038F00004EB8708303EC8F8186019E059F8041B3B
:10390000204604EB87029161E1688847012F064653
:1039100018D1E069002820DA25F020051DE0D8F84C
:10392000180000EB800006EB40003038C8F81800A3
:103930002046E1688847064601F076FB0028EED174
:10394000012F0AD02E2E08D12046E16888477F1C1F
:103950000646022F45F02005C4DBA069002803DAE3
:10396000404245F00105A061E80701D025F01005AF
:10397000B6B1A6F14100192802D8203645F40065F9
:103980004A463146204625604D46FCF70BFC58B1AF
:10399000012806D0ED1D25F0070000F1080989E790
:1039A00004E005F1040985E730468AE7206ABDE8AE
:1039B000F0874FF0000200B5134694469646203932
:1039C00022BFA0E80C50A0E80C50B1F12001BFF4D8
:1039D000F7AF090728BFA0E80C5048BF0CC05DF83E
:1039E00004EB890028BF40F8042B08BF704748BF8C
:1039F00020F8022B11F0804F18BF00F8012B704700
:103A0000704770477047704710B500F093FA006830
:103A100010BD10B5044600F08DFA046010BD2DE90C
:103A2000F0470D4699469246044600F12408016885
:103A3000880604D5E06921F01001216000E0012032
:103A4000A84201DD471B00E00027A1697A1902EBBB
:103A50000900081AA0612078C00602D42046AFF3FE
:103A60000080002608E0D4E901211AF806009047FA
:103A7000206A401C761C20624E45F4DB2078C0068C
:103A80000AD52046AFF3008006E0D4E901213020BA
:103A90009047206A401C2062381EA7F10107F4DC21
:103AA00007E0D4E9012118F805009047206A401C7E
:103AB0002062281EA5F10105F3DC2046AFF300804B
:103AC0002078000602D50220BDE8F0870120FBE740
:103AD00070472DE9FF4F0C461E464FF0FF378BB065
:103AE000D2E90001DDF860800A908A46C1F30A55E8
:103AF00005B93D46002108464FF00000BAF1000F1D
:103B000000F4400005DA00EB80004FF4400101EAC8
:103B100050004FEA9059B9F1010F00DDB9460A98FB
:103B200050EA4A000ED044F61050A5F2FF35454346
:103B30002F14B8F1000F1ED07542291E1EDDC9F1E9
:103B400000021CE0B8F1010F4FF0000001D030215D
:103B500003E0F24305E02154401CB042FBDB304659
:103B60000022002121540B99C1F80880C1E90020EE
:103B70000FB0BDE8F08FBD1B6D1CDEE74A4600DAD2
:103B8000694206A800F060FA06AB93E8070003ABB1
:103B900083E8070050460A9900F03AFB8DE80700D9
:103BA000A0F500501F3800900398002D0ADD42F266
:103BB0001F014A460844002303A90390684600F009
:103BC000A3FD09E0A0F500504A461F38002303A9D1
:103BD0000390684600F0ADFD8DE807000004000C7E
:103BE00003D04FF0FF30410800E01046B8F1000F5D
:103BF00003D00022009215461EE0751E05D400F089
:103C00009DF9303262556D1EF9D5B3460122084345
:103C100002D000227F1C04E02078302801D100224D
:103C20007F1E002A099784D01DE0112D07DA00F0CD
:103C300085F9303262556D1C50EA0102F5D1084316
:103C400002D00098C8B10EE00021681E05E0235C98
:103C5000625C63542254401E491C8142F7DBAB4630
:103C6000A81B401E0990002004F80B000B98099A2D
:103C7000C0F80880C0E9002B7AE711264FF0000851
:103C800057E72DE9F04F88460446D21D22F0070180
:103C900091B0D1E90001CDE90A0100F081FE0246B0
:103CA0000B98C00F01D02D2007E02068810701D5B7
:103CB0002B2002E0202101EAC000032A099001D054
:103CC000072A05DB03464146204600F07DF90BE15B
:103CD0002078800601D5E06900E00620B8F1650F84
:103CE000814606D0B8F1660F18D0B8F1670F70D1D1
:103CF00031E00020B9F1110F009001DB112301E048
:103D000009F101030AAA01A90CA8FFF7E2FEDDE907
:103D10000C70002609F10105834647E001204B465F
:103D200000904FF000470AAA01A90CA8FFF7D1FEA6
:103D3000DDE90DB00C995D46002610B909F10100CE
:103D40000D18B9EB050003D4C0F1FF3609F10105E8
:103D5000A5EB09002BE0B9F1010F01DA4FF00109E1
:103D60000020B9F1110F0090484601DD112300E059
:103D700003460AAA01A90CA8FFF7ABFEDDE90C7007
:103D80004D4600268346207800070AD4AB4500DA6A
:103D90005D4601A8012D04DD411911F8011C3029EF
:103DA00007D04F4502DA17F1040F04DA01208246EA
:103DB0000FE06D1EEEE7002F02DCED1B3E4403E03A
:103DC000781CA84200DD7D1CB81B00F1010A4FF0F1
:103DD00000472078000703D4AA4501DB4FF0FF3AE3
:103DE0000021B7F1004F0DF143088DF8431024D0A6
:103DF00002202B23002F01DA7F422D230A21021EED
:103E0000A0F1010000DC5FB197FBF1FC97FBF1F240
:103E100001FB1C7C17460CF1300C08F801CDEEE7D5
:103E2000A8F1010003702188090501D5452100E0B2
:103E30006521A0F1010800F8011C09980FA9A1EB68
:103E40000807FF1D00B10120411901EBEA70A169CB
:103E50003844081A401EA0612078C00602D42046CB
:103E6000AFF30080099828B1D4E901219047206A76
:103E7000401C20622078C00622D52046AFF3008087
:103E80001EE0002E04DBB34502DD01A8805D00E0EA
:103E90003020D4E901219047206A401C2062761C22
:103EA000AAF101005FEA000A0AD100F03FF8C068F9
:103EB0000168405CD4E901219047206A401C2062DF
:103EC000281EA5F10105DCDC07E0D4E9012118F882
:103ED000010B9047206A401C2062381EA7F10107A1
:103EE000F3DC2046AFF30080032011B041E6000070
:103EF00001694A1C02610878704700B58FB0CDE9AE
:103F000001310021059105497944CDE9031011469D
:103F10006846FFF7C7FC0FB000BD0000E5FFFFFFDC
:103F20000A6802F8010B0A607047000000487047F9
:103F300040150020004870472015002030B5B0F132
:103F40000A024FEA900E71F100034EEA817EB0EB57
:103F50000E0061EB91014FEA101E4EEA017E10EB5C
:103F60000E0041EB11114FEA102E4EEA016E10EBDC
:103F70000E0041EB11214FEA104E4EEA014E10EBBC
:103F80000E0041EB1141401841F100014FEAD00011
:103F900040EA41704FEAD10110EB80054FEA8104FD
:103FA00044EA907444EB01046D1944EB0404521B81
:103FB000A3414FF0000348BF0A3200D530BD401C7A
:103FC00041F1000130BD00002DE9F0411F460446DB
:103FD00003260168072A01F4006004DB08B116A576
:103FE00005E016A503E008B115A500E015A521F030
:103FF00010002060A069C01EA0610FB1401EA0612A
:104000002046AFF300804FB1D4E9012138469047F4
:10401000206A401C2062C01C206206E0206AFAE789
:10402000D4E9012115F8010B9047761EF8D22046FD
:10403000AFF30080BDE8F0814E414E006E616E002E
:10404000494E4600696E66002DE9F04781461646E6
:104050008AB0354878440DC88DE80D003248784460
:10406000801C03AC0DC884E80D0041F69B30084469
:10407000372190FBF1F290FBF1F5A5F1800501FBF2
:1040800012041B3C02D56442012000E00020DFF84E
:1040900098A080460027FA44AAF1BE0A0EE0E00785
:1040A0000AD03246684607EB470101230AEB81013B
:1040B00000F03FFB8DE8070064107F1C002CEED160
:1040C000194F7F44AE3F19E0E80715D007EB041005
:1040D0000DF1180A90E80E008AE80E00C068F04260
:1040E00001D1981908903246012306A903A800F0CF
:1040F00020FB03AB83E807006D10641C002DE3D1A7
:104100004FF0010332466946B8F1000F03A802D010
:1041100000F0FAFA01E000F00CFBC9E90001C9F86F
:1041200008200AB0BDE8F0879C2E000000487047C8
:10413000201500207546FFF7F9FFAE4605006946D9
:10414000534620F00700854618B020B5FCF7F6F975
:10415000BDE820404FF000064FF000074FF0000888
:104160004FF0000B21F00701AC46ACE8C009ACE809
:10417000C009ACE8C009ACE8C0098D46704710B56D
:104180000446AFF300802046BDE81040FCF727B896
:104190004FF0013C50F8042B51F8043B9A4221D1D6
:1041A000A2EB0C03934313EACC1317D150F8042B62
:1041B00051F8043B9A4215D1A2EB0C03934313EA46
:1041C000CC130BD150F8042B51F8043B9A4209D17F
:1041D000A2EB0C03934313EACC13DBD04FF00000A7
:1041E000704700BFD01A01BAB1FA81F101F018018D
:1041F00022FA01F0CB40C1F12001DBB2C0B2C01AFB
:104200002CFA01F3D11A914311EAC311E6D1704798
:104210005FEA400C08BF91F0000F4FEA8C234FEA91
:10422000C12243EA51514FEA1C5018BF00F5F0403B
:104230004FEA300018BF41F000415FEA6C5C00F0CB
:104240002980BCF1FF3F08BF40F080407047130C4D
:1042500006BF12044FF0100C4FF0000C130E04BFF9
:1042600012020CF1080C130F04BF12010CF1040C24
:10427000930F04BF92000CF1020CD30F04BF520045
:104280000CF1010C11464FF00002A0F11F00A0EB51
:104290000C00704711F0004F08BF704731F000412B
:1042A0003FF4D5AF0B0C06BF09044FF0100C4FF0D4
:1042B000000C0B0E04BF09020CF1080C0B0F04BF1D
:1042C00009010CF1040C8B0F04BF89000CF1020CE6
:1042D000CB0F04BF49000CF1010CCCF12003A0EB83
:1042E0000C0022FA03F302FA0CF241EA030100F196
:1042F0000100704720F07F4C80EA030023F07F47E5
:10430000ACEB070303F57C5300F0004003F1FF031F
:104310002DE980494FEA154B09B44FEA144325EAC9
:104320000B4E24EA03480FF2042606EB1327490834
:104330003E785FEA320203FB0667C7F5000707FB1A
:1043400006F64FEA54374FEAD64606F1020607FB57
:10435000066CCCF1005C4FEA1C472CEA074C07FBCB
:1043600006F40CFB06F504EB15464FEA961634BF2F
:1043700000204FF000404FEAD13706FB07FC4FEA20
:104380001C4C0CFB0BF7D21B03FB0CF761EB07017A
:104390000CFB0EF7B0EB074072EB17420CFB08F773
:1043A00034BFA2EB0742B2EB074261EB17414FEA81
:1043B0000C444FEA910706FB07FC4FEA1C4C0CFB30
:1043C0000BF7B0EBC74072EB573203FB0CF734BF6F
:1043D000A2EBC742B2EBC74261EB57310CFB0EF7C1
:1043E000B0EBC70072EB57720CFB08F734BFA2EBBF
:1043F000C702B2EBC70261EB5771039F4FEA8161BD
:1044000041EA921104EBCC044FEAD1374FEA8262C1
:1044100006FB07FC42EA90124FEA80604FEA1C4C10
:104420000CFB0BF7D21B03FB0CF761EB07010CFB3A
:104430000EF7B0EB074072EB17420CFB08F734BFE6
:10444000A2EB0742B2EB074261EB17414FEA8C55F2
:104450004FEA910704EB9C2406FB07FC4FEA1C4C37
:104460000CFB0BF7B0EBC74072EB573203FB0CF7BA
:1044700034BFA2EBC742B2EBC74261EB57310CFB32
:104480000EF7B0EBC70072EB57720CFB08F734BFA6
:10449000A2EBC702B2EBC70261EB577115EB4C25DB
:1044A0004FEA816141EA92114FEA82624FEAD137C5
:1044B00042EA901206FB07FC44F100044FEA8060D8
:1044C0004FEA1C4C0CFB0BF7D21B03FB0CF761EB08
:1044D00007010CFB0EF7B0EB074072EB17420CFB29
:1044E00008F734BFA2EB0742B2EB074261EB17417A
:1044F00015EB1C154FEA813141EA92414FEA8232B5
:1045000042EA90424FEA80304FEA0C7644F10004D0
:1045100048EA03434EEA0B484FF0000EB2EB080C9A
:1045200071EB030724BF624639464EEB0E0E4FF087
:10453000000B0018524149414BEB0B0BB2EB080C3E
:1045400071EB03077BF1000B24BF624639464EEB4B
:104550000E0E4FF0000B0018524149414BEB0B0B74
:10456000B2EB080C71EB03077BF1000B24BF624632
:1045700039464EEB0E0E51EA020718BF46F001060F
:1045800016EB0E7655F1000254F1000103D5BDE89B
:104590008901BDE80088BDE88901BDE80048B61979
:1045A000524141EB0101A3F10103704780807F7EFE
:1045B0007D7C7B7A79787776767574737271717099
:1045C0006F6E6E6D6C6C6B6A6A696868676666654B
:1045D0006464636362616160605F5F5E5E5D5D5CD9
:1045E0005C5B5B5A5A59595858575756565555554A
:1045F0005454535352525251515050504F4F4F4EAA
:104600004E4D4D4D4C4C4C4B4B4B4A4A4A494949F7
:104610004848484747474746464645454544444439
:10462000444343434342424242414141002B9C4662
:1046300030D477002BD01CB54FEA370703B44FF0C6
:1046400010004FF01001BAF1000F06D0BCF1000FBE
:10465000DCBF40F0080040F008014FF000000FBC44
:10466000BDE810400BF1010BBBF1010F08BF5FEA81
:10467000170722BF12F1010211F101014FF00041B1
:1046800043F1000300F0004043EA00007047F9D313
:104690005708D0E746EA064613F1400F4FEA1646A0
:1046A0001FDD13F1200FDFBF16430A460021203320
:1046B0005B42BED0C3F1200746EA064602FA07F77E
:1046C0004FEA164646EA0706C3F1200722FA03F22C
:1046D00001FA07F721FA03F14FF0000342EA07025B
:1046E000A7E746EA020646EA06464FEA164646EAC3
:1046F0000106BCBF46EA0646360C4FF000034FF0F9
:1047000000024FF0000194E72DE9804C9A46934651
:1047100070B491E8380007C831EA400C48BF34EA69
:10472000430C03D5FFF7E6FDFFF780FFF0BCBDE8C3
:10473000008C2DE9804C9A46934670B491E838007D
:1047400007C810F0804F08BF13F0804F03D100F06E
:1047500005F8FFF76BFFF0BCBDE8008C20F07F4749
:1047600080EA030023F07F4C07EB0C03A3F57C5396
:1047700000F00040A3F1FE0392F0000F00F0B380C0
:1047800095F0000F00F077802DE901494FEA1140C4
:104790004FEA144621EA004800FB06FC24EA0647DB
:1047A00008FB06F607FB08F800FB07F718EB0648BE
:1047B0004CEB164C4FEA124B18EB07484FEA1546E4
:1047C0004CEB174022EA0B4E0BFB06FC25EA064792
:1047D0000EFB06F607FB0EFE0BFB07F71EEB064E65
:1047E0004CEB164C4FF000061EEB074E4CEB174BF4
:1047F00018EB0B0840F1000018EB0E0B58EB00080B
:1048000040F100008F1A4FF000013CBFC943661B06
:1048100014BFB5EB040C00213CBFC943F61B4FEAA3
:1048200017444EEA8E0E27EA04454FEA1C4704FB64
:1048300007622CEA074C05FB07F70CFB05F604FBA7
:104840000CFC16EB074642EB174216EB0C4642EB0C
:104850001C421BEB060658EB0202414146EA9E064B
:1048600001D5BDE80189B619524141EB0101A3F11F
:104870000103BDE801894FEA14454FEA114724EAD4
:10488000054621EA074C05FB07F406FB07F70CFB7E
:1048900006F105FB0CFC11EB074144EB17444FEA12
:1048A000124711EB0C4144EB1C4422EA074C05FB78
:1048B00007F206FB07F70CFB06F605FB0CFC16EBF4
:1048C000074642EB174216EB0C4642EB1C456A18B2
:1048D00054F1000148BF7047B619524141EB010144
:1048E000A3F10103704795F0000F37D04FEA114252
:1048F0004FEA144721EA024624EA074C02FB07F17B
:1049000006FB07F70CFB06F402FB0CFC14EB074458
:1049100041EB17414FEA154714EB0C4441EB1C41A6
:1049200025EA074C02FB07F506FB07F70CFB06F62A
:1049300002FB0CFC16EB074645EB174516EB0C4645
:1049400045EB1C42121951F1000148BF7047B619DE
:10495000524141EB0101A3F1010370474FEA1445B5
:104960004FEA114724EA054621EA074C05FB07F107
:1049700006FB07F70CFB06F24FF0000605FB0CFCEC
:1049800012EB074241EB174112EB0C4251EB1C4179
:1049900048BF7047921841EB0101A3F10103704732
:1049A000490050EAC12018BF04204A0D18BF40F04A
:1049B000010040F2FF72B2EB515F08BF40F002000D
:1049C000012808BF052070472DE9F74F144694B021
:1049D0000021C4E902111599079121F00045C94948
:1049E0008D4206DC1599C4E9000117B00020BDE82E
:1049F000F08FC549DFF814A3A9423CDD0799C44EE6
:104A00000029C44FC44A1599534619DD01F00AFE26
:104A1000554506D0C14AC24B01F004FEC4E900016D
:104A20000AE04FF0D352BE4B01F0FCFD32463B464C
:104A300001F0F8FDC4E9000117B00120BDE8F08FD6
:104A400001F0F2F8554506D0B44AB54B01F0ECF848
:104A5000C4E900010AE04FF0D352B14B01F0E4F891
:104A600032463B4601F0E0F8C4E9000117B04FF0D0
:104A7000FF30BDE8F08FAB49A942159978DB21F0F2
:104A8000004183468846A84AA84B01F0A5FB0022B6
:104A9000A74B01F0C9F801F0DBFA099001F035FBF2
:104AA00006460F469C4A534601F096FB43465A463B
:104AB00001F0C6FC80468A46984A994B30463946F2
:104AC00001F08AFB2A0D01250B924246534601F064
:104AD000B7FC032DC4E9000139D00B98C1F30A518A
:104AE000401A05EB45111139814230DA9148C3462D
:104AF000784400EB0510CDF80CA00C90D0E9002311
:104B00003046394601F068FB02460B460491069098
:104B10005846039901F086FD80468A4602460B46B8
:104B20005846039901F07EFD049B069A01F07AFD38
:104B300083460C9803913946D0E90223304601F0B0
:104B40004BFB5A46039B01F06DFD6D1CBDE70798BA
:104B50000028A2BF099817B0BDE8F08F616881F006
:104B600000416160099817B04042BDE8F08FFFE74F
:104B700084461598C1F31301C0F30A50A0F2F53032
:104B80004FEA601800F01F06C6F1200013900020C5
:104B90000690079041F4801E05206D4676B1664A66
:104BA00008EB00017A4452F8213002EB8101B34056
:104BB0004A68139922FA01F1194305E05F4908EBAD
:104BC0000002794451F82210A1FB0E27A1FB0C131F
:104BD0001A449A4234BF0123002303EB070A05EB72
:104BE0008003D3E901B70F448F4234BF0121002174
:104BF00093448B4411B1934502D903E0934501D20C
:104C0000012100E00021C3E901B7514445F820101B
:104C1000011EA0F10100C1DC0298059F00F10050C7
:104C2000800F12900298DDE90356800001F06DFAC2
:104C3000834628460D9101F07FFA6FF01D0201F0C6
:104C4000FDFFCDE90E01304601F076FA6FF03D022E
:104C500001F0F4FF80468A46384601F06DFA6FF0A5
:104C60005D0201F0EBFF074642465346119100F00A
:104C7000DBFFDDE90E2300F0D7FF5A460D9B00F065
:104C8000D3FF00250E465A4628460D9B01F0CAFC6C
:104C9000DDE90E2301F0C6FC4246534601F0C2FC9A
:104CA0003A46119B01F0CCFBDFF898A0244A53460A
:104CB00001F092FA07468846234A244B314628469B
:104CC00001F08AFA3A46434600F0AEFF07468846AE
:104CD0004FF0A84253463146284601F07DFA3A4645
:104CE000434600F0A1FF159A12F0004F04D0129A2B
:104CF00081F0004152421292C4E90001129817B0AB
:104D0000BDE8F08FFB21E93F7CD90240FB21F93F50
:104D10007370032E8A19A33B000040543163621A5A
:104D200061B4D03DFB21394183C8C96D305FE43F98
:104D30000000E03F9422000010220000F221000059
:104D4000182D4454FB21F93D3326A611460B113C86
:104D50002DE9FF4D21F0004807460C46B8F1795F78
:104D600008DA01F075F9002801BF0020324904B0CB
:104D7000BDE8F08D3A4623461046194601F02CFA5C
:104D8000054602462D480E460B460621784400F0A3
:104D90005DF82A46334601F01FFADDE90223824618
:104DA0008B463846214601F017FA04460F46524614
:104DB0005B462846314601F00FFA22463B4601F099
:104DC00031FC07468A464FF0FF322846314601F053
:104DD00035FF1B4A90450ADA3A46534601F022FC59
:104DE00004B00022BDE8F04D134B01F029BB154A79
:104DF0004245A8BFA8F500154FF00004B8BF124DFA
:104E000022462B4601F00EFC0646884622462B46DB
:104E10000020094901F006FC04460D463A46534677
:104E20003046414601F0FEFB04B022462B46BDE869
:104E3000F04D01F005BB00000000F03FC01F000076
:104E40003333D33F0000E93F0000D23F2DE9F0416A
:104E50004F1E00EBC7010446D1E9000115461E466E
:104E600037F006020DD02A46334601F0B5F97F1E11
:104E700004EBC703D3E9002300F0D6FE37F00602A7
:104E8000F1D1022F25D0042F13D0062F18BFBDE873
:104E9000F0812A46334601F09FF9D4E90A2300F055
:104EA000C3FE2A46334601F097F9D4E9082300F0FF
:104EB000BBFE2A46334601F08FF9D4E9062300F001
:104EC000B3FE2A46334601F087F9D4E9042300F003
:104ED000ABFE2A46334601F07FF9D4E9022300F005
:104EE000A3FE2A46334601F077F9D4E90023BDE852
:104EF000F04100F099BE00002DE9FF4D054621F07C
:104F0000004084B00C46B0F1795F0BDA2846FFF719
:104F100047FD042808BF00F07FF8284608B0214666
:104F2000BDE8F08D2A460B46104601F055F90646BD
:104F30000F462A46234601F04FF9804626488A4606
:104F400032463B4605217844FFF780FF83461098A0
:104F5000029160B3214A224B4046514601F03CF990
:104F6000CDE900015A4640465146029B01F034F912
:104F700082468846DDE906014FF0FF3201F05EFE11
:104F80005246434601F04EFB32463B4601F024F9BF
:104F9000DDE9062301F046FBDDE9002301F042FBD9
:104FA00008B02A462346BDE8F04D01F049BA0B4649
:104FB0005A463046394601F00FF9084A084B00F0CE
:104FC00033FE4246534601F007F908B02A4623460D
:104FD000BDE8F04D00F028BE061F000049555555AC
:104FE0005555C5BF002213461046014900F0D8BEF2
:104FF0000000F03F012201F021BE00F015BE0022AA
:1050000013461046114600F0CBBE40F2013200209C
:105010004FF0E04101F012BE024A0020110701F0FA
:105020000DBE000001FDFFFF30380A2801D201202B
:10503000704700207047000000B5244B21F000426B
:1050400087B09A42DCBF0022134629DD204B9A42EA
:1050500008D140B94FF00100FEF7DBFCFFF7CFFFAE
:1050600007B000BD03DBFFF7C5FF07B000BD02AA14
:10507000FFF7AAFC10F0030104BF0DF1080C9CE837
:105080000F000DD0012001290ED0022914D00DF1FE
:10509000080C00909CE80F00FFF72EFF07B000BD42
:1050A000FFF756FE07B000BD0DF1080C00909CE81C
:1050B0000F00FFF721FF05E00DF1080C9CE80F0041
:1050C000FFF746FE07B081F0004100BDFB21E93F3C
:1050D0000000F07F2DE9F04D1D460C4698B01746B4
:1050E00021F0004123F00043002814BF4FF0010CD1
:1050F0004FF0000C0CEB440CFE4A0CEB02064FEA9E
:10510000620C66452BD33E0018BF012606EB450610
:105110001644F94A964222D3F84A53EA070C02D0C1
:10512000944205D148B918B000201146BDE8F08D71
:10513000002808BF4FF0000C01D04FF0010C0CEB21
:10514000440212F5001F0AD8002F14BF4FF0010CC3
:105150004FF0000C0CEB450212F5001F07D918B0F8
:105160003A462B462146BDE8F04DFFF746BF0022E8
:10517000DFF88CA3002CB8BF534526DADFF884C3D0
:105180006345A8BF022220DADFF870C39C451CDC0F
:10519000DFF874C30CEB235CBCF1140F08DDCCF119
:1051A000340627FA06FC0CFA06F6BE420DD108E0DA
:1051B0005FB9CCF1140623FA06FC0CFA06F69E42FF
:1051C00003D10CF00102C2F1020251EA000C19D124
:1051D000002D17DA002C18BF022A01D0012A07D0AF
:1051E0000220FEF716FC18B0BDE8F04DFFF7FABE3E
:1051F0000220FEF70EFCFFF7F5FE18B081F000412B
:10520000BDE8F08DB7F1000C6CD1534525D104F108
:10521000804212F5801201BF00280020B74918B063
:1052200008BFBDE8F08DB548884207DC002DA1BF5E
:105230006046294618B0BDE8F08D07E0281E05DA63
:1052400080F0004118B06046BDE8F08DAF49794468
:10525000D1E9000118B0BDE8F08DDFF8A0C26345C8
:1052600025D1002D1FDA19B1514512D1D8B909E065
:10527000002840F0EC82A24A214618B062F31E01D9
:10528000BDE8F08D0020214618B060F31E01BDE896
:10529000F08D08DA18B02346BDE8F04D0246002034
:1052A000614600F07DBD18B02146BDE8F08D514546
:1052B00018DAB5F1804F0DD0A5F1005CBCF1FF5CB0
:1052C00010D1B4F1000C0DDB18B06146BDE8F04D13
:1052D00000F03CBC234618B00246BDE8F04D19462C
:1052E00000F07ABF060024F0004C3BD1D9B1514503
:1052F00033D1002C06DD002DA1BF0020514618B08F
:10530000BDE8F08D002C01DD002D1BDB002C13DA35
:10531000002D11DB012A4FF0000014BF78497C49B1
:1053200018B0BDE8F08D022A18BF002C0AD0012A5F
:1053300008D1002C06DA0AE0002CB8BF002D11DAE3
:10534000012A04D0002018B00146BDE8F08D18B045
:1053500000204FF00041BDE8F08DA1F14050B0F1C8
:105360007F601AD0012000EBE47050EA020421D0E3
:10537000624C521E4FF0000B104304BF4FF0000B65
:10538000644C654883427CDD644A654893421FDD76
:10539000884217DB002D25DB37E0002C00DA4AB10C
:1053A000022A0CBF01204FF0FF3018B0BDE8F04DCD
:1053B00000F0ABBE0120FEF72CFB18B0BDE8F04DAD
:1053C000FFF71DBE4D4A8A4202DC002D0ADC1CE0BC
:1053D000814202DA002D18DA04E0484B994220DDC0
:1053E000002D12DD0220FEF714FBFFF70EFE05462E
:1053F0000E46002253465846214600F0EDFE18B0F6
:1054000066F31E012846BDE8F08D0220FEF701FB81
:10541000FFF702FE0A46214618B062F31E01BDE8FE
:10542000F08D00223046614601F0FCF880460E46C1
:105430006FF0010201F002FC4FF05532394B00F0E1
:10544000FFFF4246334600F0C7FE0022364B00F015
:10545000F7FF82464246334604911046194600F053
:10546000BBFE5246049B00F0B7FE8A4600904FF008
:10547000C0422E4B4046314600F0AEFE2C4A2B4B2C
:1054800000E027E0CDE906015146009800F0A4FEB7
:1054900082460191274A284B4046314600F09CFE47
:1054A0005246019B01F0BEF882460B46024605912A
:1054B000DDE9060100F0B8FBDDE906230026884699
:1054C000304601F0AFF85246059B00F0B9FF0246A6
:1054D00000F07EB90020B1F5801F07DA3522304692
:1054E000614601F0ABFB06466FF0340000EB215043
:1054F00024E00000FFFF1F00FFFF0F000000F03F4F
:105500000000F07F0000404301FCFFFF2E1B000065
:105510000000F0FF0000F0BF0000E0410000F04399
:10552000FFFFEF3F5555D53F0000E03F4715F73FE0
:10553000FE822B6544DF5DF80BAE543EA0F2FF30D7
:105540000190C1F3130040F07F6141F0405102919E
:10555000FE498842D8BF002004DDFD498142C8BF12
:10556000012001DD0D9008E000200D900198401C05
:1055700001900298A0F5801002900299F5487844B5
:105580000B910D9900EBC100D0E900230F93304639
:105590000A920B9901F046F8CDE90601DDE90A21EE
:1055A00030460F9B00F040FB02460B460020EA49C4
:1055B00000F0F6FB059102460B460090DDE906017E
:1055C00000F00AFE1490E5488A464FF0000878443F
:1055D0000299006812904FF0005040EA61010D9866
:1055E0000F9B01EB804000F5002109910A9A129867
:1055F00001F018F832460B9B00F022FF424653465A
:1056000000F0EAFD0646029140465146099B129A77
:1056100000F0E2FDDDE9062300F012FF3246029BB6
:1056200001F000F8059B009A00F0D6FD0091149A55
:10563000049053461046194600F0CEFD0646024639
:10564000C7480B46029106217844FFF7FFFBCDE9DE
:105650000510029B32461046194600F0BDFDDDE9FB
:10566000053200F0B9FD05910646534640461946FD
:10567000149A00F0D9FA009B049A00F0ADFD32466E
:10568000059B00F0D1FACDE905104246534610467D
:10569000194600F0A1FD0022B24B02910A9000F0E1
:1056A000C3FADDE9053200F0BFFA0E464246AD4BC3
:1056B000404600F0B7FF029B0A9A00F0B3FFDDE915
:1056C000053200F0BDFE424602910A903346104674
:1056D000514600F081FDCDE906015346149A029926
:1056E0000A9800F079FD8A460290334642460099B6
:1056F000049800F071FD5346029A00F095FA824634
:105700000B4602460591DDE9060100F08DFADDE960
:10571000062300208846064600F084FF5246059B7B
:1057200000F08EFE824609914FF060428E4B30466B
:10573000414600F051FD049006918C4A8A4B504638
:10574000099900F049FD82460291894A894B304609
:10575000414600F041FD5246029B00F065FA864B3F
:105760007B440D9A03EBC203D3E9002300F05CFAFB
:105770000E900791019800F0C8FC0591DDE9061331
:1057800082460E9A049800F04FFA7C4A7A440D9BA8
:1057900002EBC303D3E900230093029200F044FA22
:1057A0005246059B00F040FA002688465246304695
:1057B000059B00F037FF009B029A00F033FF069B29
:1057C000049A00F02FFF079B0E9A00F039FE024664
:1057D00000200B4602903846294600F0FDFC824628
:1057E00001912B4638461946029A00F01BFF3246BB
:1057F000434600F0F1FC5246019B00F015FA0746C3
:105800008A46324643462946029800F0E5FC0546A2
:105810000E463A46534600F007FA594A88469142E6
:1058200021DBA8EB020353EA000210D12A463346DB
:1058300000F0F8FECDE90401524A534B3846514678
:1058400000F0F2F9DDE9042300F0C4FD21D20220CA
:10585000FEF7DFF8FFF7D9FB0A46214618B062F3DE
:105860001E01BDE8F08D494B28F000429A4210D34A
:10587000474A08EB020353EA00027FF4C6AD2A460A
:10588000334600F0CFFE3A46534600F0A3FD7FF6C4
:10589000BCAD0022019228F000403E493E4A01EB97
:1058A0002051824223DA481C4FF4801121FA00F083
:1058B00040443A4AC0F30A517A44394BA1F2FF31CD
:1058C000CB4020EA0303C0F3130040F48010C1F181
:1058D0001401C84012680190B8F1000FBCBF4042EB
:1058E00001902846314600F09DFE05460E462A46A8
:1058F00033463846514600F097F94FF000084246CB
:10590000284B4046059100F067FCCDE90601264A88
:10591000264B4046059900F05FFC009102902A4614
:1059200033464046059900F07DFE3A46534600F066
:1059300087FD1F4A1F4B00F04FFC009B029A00F0AE
:1059400073F90746884602460B4635E08E980300F9
:105950007AB60B00461700000000F03FAE170000BB
:10596000AC1600000000084009C7EE3FFD033ADC1A
:10597000F5015B14E02F3EBE8415000048150000C1
:1059800000009040FE822B654715973C00CC90406C
:1059900000346F3F01FCFFFF0000E03FC414000033
:1059A000FFFF0F00432EE63F396CA80C615C20BE60
:1059B000EF39FAFE422EE63FDDE9060100F034F948
:1059C000DDE9062305460E4600F02CFE3A46434626
:1059D00000F036FD0F462A46334600901046194621
:1059E00000F0FAFB824602462E4888460B46052107
:1059F0007844FFF72BFA5246434600F0EDFB2A4667
:105A0000334600F01DFD80468A463B462846314617
:105A1000009A00F0E1FB3B46009A00F005F9069180
:105A2000009000224FF080434046514600F0FAFDBE
:105A30000F460C90424653462846314600F0CCFBB8
:105A40003B460C9A00F0ACF9069B009A00F0EAFD88
:105A50002A46334600F0E6FD0022134B00F0F0FC2E
:105A6000054601980E4601EB00510815002810DC90
:105A700028463146019A01F0E1F8FEF791FF04282B
:105A800008BFFFF7C9FA28463146019A01F0D6F857
:105A900005460B4618B02A4658462146BDE8F04D4B
:105AA00000F09ABB341300000000F03F00B5254B16
:105AB00021F0004287B09A4203DC00221346009294
:105AC0002BE0214B9A4208D140B94FF00100FDF77D
:105AD000A0FFFFF794FA07B000BD03DBFFF78AFAD7
